{
  "_format": "hh-sol-artifact-1",
  "contractName": "RegisterProperty",
  "sourceName": "contracts/RegisterProperty.sol",
  "abi": [
    {
      "inputs": [
        {
          "internalType": "address",
          "name": "propertyOwner",
          "type": "address"
        },
        {
          "internalType": "string",
          "name": "owner_name",
          "type": "string"
        },
        {
          "internalType": "string",
          "name": "owner_Id",
          "type": "string"
        },
        {
          "internalType": "string",
          "name": "propertyName",
          "type": "string"
        },
        {
          "internalType": "string",
          "name": "propertyAddress",
          "type": "string"
        },
        {
          "internalType": "string",
          "name": "propertyImage",
          "type": "string"
        }
      ],
      "name": "addProperty",
      "outputs": [],
      "stateMutability": "nonpayable",
      "type": "function"
    },
    {
      "inputs": [
        {
          "internalType": "uint256",
          "name": "propId",
          "type": "uint256"
        },
        {
          "internalType": "address",
          "name": "newOwner",
          "type": "address"
        }
      ],
      "name": "changeOwner",
      "outputs": [],
      "stateMutability": "nonpayable",
      "type": "function"
    },
    {
      "inputs": [
        {
          "internalType": "address",
          "name": "property_owner",
          "type": "address"
        }
      ],
      "name": "display",
      "outputs": [
        {
          "components": [
            {
              "internalType": "uint256",
              "name": "_ID",
              "type": "uint256"
            },
            {
              "internalType": "address",
              "name": "owner",
              "type": "address"
            },
            {
              "internalType": "string",
              "name": "owner_name",
              "type": "string"
            },
            {
              "internalType": "string",
              "name": "owner_Id",
              "type": "string"
            },
            {
              "internalType": "string",
              "name": "Name",
              "type": "string"
            },
            {
              "internalType": "string",
              "name": "Address",
              "type": "string"
            },
            {
              "internalType": "string",
              "name": "ImageUrl",
              "type": "string"
            }
          ],
          "internalType": "struct RegisterProperty.Property[]",
          "name": "",
          "type": "tuple[]"
        }
      ],
      "stateMutability": "view",
      "type": "function"
    },
    {
      "inputs": [
        {
          "internalType": "uint256",
          "name": "",
          "type": "uint256"
        }
      ],
      "name": "properties",
      "outputs": [
        {
          "internalType": "uint256",
          "name": "_ID",
          "type": "uint256"
        },
        {
          "internalType": "address",
          "name": "owner",
          "type": "address"
        },
        {
          "internalType": "string",
          "name": "owner_name",
          "type": "string"
        },
        {
          "internalType": "string",
          "name": "owner_Id",
          "type": "string"
        },
        {
          "internalType": "string",
          "name": "Name",
          "type": "string"
        },
        {
          "internalType": "string",
          "name": "Address",
          "type": "string"
        },
        {
          "internalType": "string",
          "name": "ImageUrl",
          "type": "string"
        }
      ],
      "stateMutability": "view",
      "type": "function"
    }
  ],
  "bytecode": "0x60806040526000805534801561001457600080fd5b5061165e806100246000396000f3fe608060405234801561001057600080fd5b506004361061004c5760003560e01c8063784796f714610051578063e078cdba1461006d578063eb39113f14610089578063f7b10808146100b9575b600080fd5b61006b60048036038101906100669190610c44565b6100ef565b005b61008760048036038101906100829190610dca565b610170565b005b6100a3600480360381019061009e9190610ee3565b6102f9565b6040516100b09190611127565b60405180910390f35b6100d360048036038101906100ce9190611149565b61082f565b6040516100e697969594939291906111de565b60405180910390f35b600060026000848152602001908152602001600020549050816001828154811061011c5761011b611270565b5b906000526020600020906007020160010160006101000a81548173ffffffffffffffffffffffffffffffffffffffff021916908373ffffffffffffffffffffffffffffffffffffffff160217905550505050565b600080815480929190610182906112ce565b919050555060008054905060006040518060e001604052808381526020018973ffffffffffffffffffffffffffffffffffffffff16815260200188815260200187815260200186815260200185815260200184815250905060018190806001815401808255809150506001900390600052602060002090600702016000909190919091506000820151816000015560208201518160010160006101000a81548173ffffffffffffffffffffffffffffffffffffffff021916908373ffffffffffffffffffffffffffffffffffffffff160217905550604082015181600201908161026c9190611522565b5060608201518160030190816102829190611522565b5060808201518160040190816102989190611522565b5060a08201518160050190816102ae9190611522565b5060c08201518160060190816102c49190611522565b505050600180805490506102d891906115f4565b60026000848152602001908152602001600020819055505050505050505050565b60606000805b6001805490508110156103a0578373ffffffffffffffffffffffffffffffffffffffff166001828154811061033757610336611270565b5b906000526020600020906007020160010160009054906101000a900473ffffffffffffffffffffffffffffffffffffffff1673ffffffffffffffffffffffffffffffffffffffff160361039357818061038f906112ce565b9250505b80806001019150506102ff565b5060008167ffffffffffffffff8111156103bd576103bc610c9f565b5b6040519080825280602002602001820160405280156103f657816020015b6103e3610b49565b8152602001906001900390816103db5790505b5090506000805b600180549050811015610823578573ffffffffffffffffffffffffffffffffffffffff166001828154811061043557610434611270565b5b906000526020600020906007020160010160009054906101000a900473ffffffffffffffffffffffffffffffffffffffff1673ffffffffffffffffffffffffffffffffffffffff1603610816576001818154811061049657610495611270565b5b90600052602060002090600702016040518060e0016040529081600082015481526020016001820160009054906101000a900473ffffffffffffffffffffffffffffffffffffffff1673ffffffffffffffffffffffffffffffffffffffff1673ffffffffffffffffffffffffffffffffffffffff16815260200160028201805461051f90611345565b80601f016020809104026020016040519081016040528092919081815260200182805461054b90611345565b80156105985780601f1061056d57610100808354040283529160200191610598565b820191906000526020600020905b81548152906001019060200180831161057b57829003601f168201915b505050505081526020016003820180546105b190611345565b80601f01602080910402602001604051908101604052809291908181526020018280546105dd90611345565b801561062a5780601f106105ff5761010080835404028352916020019161062a565b820191906000526020600020905b81548152906001019060200180831161060d57829003601f168201915b5050505050815260200160048201805461064390611345565b80601f016020809104026020016040519081016040528092919081815260200182805461066f90611345565b80156106bc5780601f10610691576101008083540402835291602001916106bc565b820191906000526020600020905b81548152906001019060200180831161069f57829003601f168201915b505050505081526020016005820180546106d590611345565b80601f016020809104026020016040519081016040528092919081815260200182805461070190611345565b801561074e5780601f106107235761010080835404028352916020019161074e565b820191906000526020600020905b81548152906001019060200180831161073157829003601f168201915b5050505050815260200160068201805461076790611345565b80601f016020809104026020016040519081016040528092919081815260200182805461079390611345565b80156107e05780601f106107b5576101008083540402835291602001916107e0565b820191906000526020600020905b8154815290600101906020018083116107c357829003601f168201915b5050505050815250508383815181106107fc576107fb611270565b5b60200260200101819052508180610812906112ce565b9250505b80806001019150506103fd565b50819350505050919050565b6001818154811061083f57600080fd5b90600052602060002090600702016000915090508060000154908060010160009054906101000a900473ffffffffffffffffffffffffffffffffffffffff169080600201805461088e90611345565b80601f01602080910402602001604051908101604052809291908181526020018280546108ba90611345565b80156109075780601f106108dc57610100808354040283529160200191610907565b820191906000526020600020905b8154815290600101906020018083116108ea57829003601f168201915b50505050509080600301805461091c90611345565b80601f016020809104026020016040519081016040528092919081815260200182805461094890611345565b80156109955780601f1061096a57610100808354040283529160200191610995565b820191906000526020600020905b81548152906001019060200180831161097857829003601f168201915b5050505050908060040180546109aa90611345565b80601f01602080910402602001604051908101604052809291908181526020018280546109d690611345565b8015610a235780601f106109f857610100808354040283529160200191610a23565b820191906000526020600020905b815481529060010190602001808311610a0657829003601f168201915b505050505090806005018054610a3890611345565b80601f0160208091040260200160405190810160405280929190818152602001828054610a6490611345565b8015610ab15780601f10610a8657610100808354040283529160200191610ab1565b820191906000526020600020905b815481529060010190602001808311610a9457829003601f168201915b505050505090806006018054610ac690611345565b80601f0160208091040260200160405190810160405280929190818152602001828054610af290611345565b8015610b3f5780601f10610b1457610100808354040283529160200191610b3f565b820191906000526020600020905b815481529060010190602001808311610b2257829003601f168201915b5050505050905087565b6040518060e0016040528060008152602001600073ffffffffffffffffffffffffffffffffffffffff16815260200160608152602001606081526020016060815260200160608152602001606081525090565b6000604051905090565b600080fd5b600080fd5b6000819050919050565b610bc381610bb0565b8114610bce57600080fd5b50565b600081359050610be081610bba565b92915050565b600073ffffffffffffffffffffffffffffffffffffffff82169050919050565b6000610c1182610be6565b9050919050565b610c2181610c06565b8114610c2c57600080fd5b50565b600081359050610c3e81610c18565b92915050565b60008060408385031215610c5b57610c5a610ba6565b5b6000610c6985828601610bd1565b9250506020610c7a85828601610c2f565b9150509250929050565b600080fd5b600080fd5b6000601f19601f8301169050919050565b7f4e487b7100000000000000000000000000000000000000000000000000000000600052604160045260246000fd5b610cd782610c8e565b810181811067ffffffffffffffff82111715610cf657610cf5610c9f565b5b80604052505050565b6000610d09610b9c565b9050610d158282610cce565b919050565b600067ffffffffffffffff821115610d3557610d34610c9f565b5b610d3e82610c8e565b9050602081019050919050565b82818337600083830152505050565b6000610d6d610d6884610d1a565b610cff565b905082815260208101848484011115610d8957610d88610c89565b5b610d94848285610d4b565b509392505050565b600082601f830112610db157610db0610c84565b5b8135610dc1848260208601610d5a565b91505092915050565b60008060008060008060c08789031215610de757610de6610ba6565b5b6000610df589828a01610c2f565b965050602087013567ffffffffffffffff811115610e1657610e15610bab565b5b610e2289828a01610d9c565b955050604087013567ffffffffffffffff811115610e4357610e42610bab565b5b610e4f89828a01610d9c565b945050606087013567ffffffffffffffff811115610e7057610e6f610bab565b5b610e7c89828a01610d9c565b935050608087013567ffffffffffffffff811115610e9d57610e9c610bab565b5b610ea989828a01610d9c565b92505060a087013567ffffffffffffffff811115610eca57610ec9610bab565b5b610ed689828a01610d9c565b9150509295509295509295565b600060208284031215610ef957610ef8610ba6565b5b6000610f0784828501610c2f565b91505092915050565b600081519050919050565b600082825260208201905092915050565b6000819050602082019050919050565b610f4581610bb0565b82525050565b610f5481610c06565b82525050565b600081519050919050565b600082825260208201905092915050565b60005b83811015610f94578082015181840152602081019050610f79565b60008484015250505050565b6000610fab82610f5a565b610fb58185610f65565b9350610fc5818560208601610f76565b610fce81610c8e565b840191505092915050565b600060e083016000830151610ff16000860182610f3c565b5060208301516110046020860182610f4b565b506040830151848203604086015261101c8282610fa0565b915050606083015184820360608601526110368282610fa0565b915050608083015184820360808601526110508282610fa0565b91505060a083015184820360a086015261106a8282610fa0565b91505060c083015184820360c08601526110848282610fa0565b9150508091505092915050565b600061109d8383610fd9565b905092915050565b6000602082019050919050565b60006110bd82610f10565b6110c78185610f1b565b9350836020820285016110d985610f2c565b8060005b8581101561111557848403895281516110f68582611091565b9450611101836110a5565b925060208a019950506001810190506110dd565b50829750879550505050505092915050565b6000602082019050818103600083015261114181846110b2565b905092915050565b60006020828403121561115f5761115e610ba6565b5b600061116d84828501610bd1565b91505092915050565b61117f81610bb0565b82525050565b61118e81610c06565b82525050565b600082825260208201905092915050565b60006111b082610f5a565b6111ba8185611194565b93506111ca818560208601610f76565b6111d381610c8e565b840191505092915050565b600060e0820190506111f3600083018a611176565b6112006020830189611185565b818103604083015261121281886111a5565b9050818103606083015261122681876111a5565b9050818103608083015261123a81866111a5565b905081810360a083015261124e81856111a5565b905081810360c083015261126281846111a5565b905098975050505050505050565b7f4e487b7100000000000000000000000000000000000000000000000000000000600052603260045260246000fd5b7f4e487b7100000000000000000000000000000000000000000000000000000000600052601160045260246000fd5b60006112d982610bb0565b91507fffffffffffffffffffffffffffffffffffffffffffffffffffffffffffffffff820361130b5761130a61129f565b5b600182019050919050565b7f4e487b7100000000000000000000000000000000000000000000000000000000600052602260045260246000fd5b6000600282049050600182168061135d57607f821691505b6020821081036113705761136f611316565b5b50919050565b60008190508160005260206000209050919050565b60006020601f8301049050919050565b600082821b905092915050565b6000600883026113d87fffffffffffffffffffffffffffffffffffffffffffffffffffffffffffffffff8261139b565b6113e2868361139b565b95508019841693508086168417925050509392505050565b6000819050919050565b600061141f61141a61141584610bb0565b6113fa565b610bb0565b9050919050565b6000819050919050565b61143983611404565b61144d61144582611426565b8484546113a8565b825550505050565b600090565b611462611455565b61146d818484611430565b505050565b5b818110156114915761148660008261145a565b600181019050611473565b5050565b601f8211156114d6576114a781611376565b6114b08461138b565b810160208510156114bf578190505b6114d36114cb8561138b565b830182611472565b50505b505050565b600082821c905092915050565b60006114f9600019846008026114db565b1980831691505092915050565b600061151283836114e8565b9150826002028217905092915050565b61152b82610f5a565b67ffffffffffffffff81111561154457611543610c9f565b5b61154e8254611345565b611559828285611495565b600060209050601f83116001811461158c576000841561157a578287015190505b6115848582611506565b8655506115ec565b601f19841661159a86611376565b60005b828110156115c25784890151825560018201915060208501945060208101905061159d565b868310156115df57848901516115db601f8916826114e8565b8355505b6001600288020188555050505b505050505050565b60006115ff82610bb0565b915061160a83610bb0565b92508282039050818111156116225761162161129f565b5b9291505056fea2646970667358221220f83d31aa76b9638fe2f148aec955fbfdb20b4ab176237fa005b72b8d729813e264736f6c63430008180033",
  "linkReferences": {},
  "deployedLinkReferences": {}
}