{
  "_format": "hh-sol-artifact-1",
  "contractName": "RegisterProperty",
  "sourceName": "contracts/RegisterProperty.sol",
  "abi": [
    {
      "inputs": [
        {
          "internalType": "address",
          "name": "propertyOwner",
          "type": "address"
        },
        {
          "internalType": "string",
          "name": "owner_name",
          "type": "string"
        },
        {
          "internalType": "string",
          "name": "owner_Id",
          "type": "string"
        },
        {
          "internalType": "string",
          "name": "propertyName",
          "type": "string"
        },
        {
          "internalType": "string",
          "name": "propertyAddress",
          "type": "string"
        },
        {
          "internalType": "string",
          "name": "propertyImage",
          "type": "string"
        }
      ],
      "name": "addProperty",
      "outputs": [],
      "stateMutability": "nonpayable",
      "type": "function"
    },
    {
      "inputs": [
        {
          "internalType": "uint256",
          "name": "propId",
          "type": "uint256"
        },
        {
          "internalType": "address",
          "name": "newOwner",
          "type": "address"
        }
      ],
      "name": "changeOwner",
      "outputs": [],
      "stateMutability": "nonpayable",
      "type": "function"
    },
    {
      "inputs": [
        {
          "internalType": "address",
          "name": "property_owner",
          "type": "address"
        }
      ],
      "name": "display",
      "outputs": [
        {
          "components": [
            {
              "internalType": "uint256",
              "name": "_ID",
              "type": "uint256"
            },
            {
              "internalType": "address",
              "name": "owner",
              "type": "address"
            },
            {
              "internalType": "string",
              "name": "owner_name",
              "type": "string"
            },
            {
              "internalType": "string",
              "name": "owner_Id",
              "type": "string"
            },
            {
              "internalType": "string",
              "name": "Name",
              "type": "string"
            },
            {
              "internalType": "string",
              "name": "Address",
              "type": "string"
            },
            {
              "internalType": "string",
              "name": "ImageUrl",
              "type": "string"
            },
            {
              "internalType": "uint256",
              "name": "Price",
              "type": "uint256"
            },
            {
              "internalType": "address",
              "name": "Buyer",
              "type": "address"
            }
          ],
          "internalType": "struct RegisterProperty.Property[]",
          "name": "",
          "type": "tuple[]"
        }
      ],
      "stateMutability": "view",
      "type": "function"
    },
    {
      "inputs": [
        {
          "internalType": "uint256",
          "name": "propertyId",
          "type": "uint256"
        },
        {
          "internalType": "uint256",
          "name": "price",
          "type": "uint256"
        }
      ],
      "name": "listProperty",
      "outputs": [],
      "stateMutability": "nonpayable",
      "type": "function"
    },
    {
      "inputs": [
        {
          "internalType": "uint256",
          "name": "",
          "type": "uint256"
        }
      ],
      "name": "properties",
      "outputs": [
        {
          "internalType": "uint256",
          "name": "_ID",
          "type": "uint256"
        },
        {
          "internalType": "address",
          "name": "owner",
          "type": "address"
        },
        {
          "internalType": "string",
          "name": "owner_name",
          "type": "string"
        },
        {
          "internalType": "string",
          "name": "owner_Id",
          "type": "string"
        },
        {
          "internalType": "string",
          "name": "Name",
          "type": "string"
        },
        {
          "internalType": "string",
          "name": "Address",
          "type": "string"
        },
        {
          "internalType": "string",
          "name": "ImageUrl",
          "type": "string"
        },
        {
          "internalType": "uint256",
          "name": "Price",
          "type": "uint256"
        },
        {
          "internalType": "address",
          "name": "Buyer",
          "type": "address"
        }
      ],
      "stateMutability": "view",
      "type": "function"
    },
    {
      "inputs": [
        {
          "internalType": "uint256",
          "name": "propertyId",
          "type": "uint256"
        }
      ],
      "name": "showIntrest",
      "outputs": [],
      "stateMutability": "nonpayable",
      "type": "function"
    },
    {
      "inputs": [],
      "name": "showIntrested",
      "outputs": [
        {
          "components": [
            {
              "internalType": "uint256",
              "name": "_ID",
              "type": "uint256"
            },
            {
              "internalType": "address",
              "name": "owner",
              "type": "address"
            },
            {
              "internalType": "string",
              "name": "owner_name",
              "type": "string"
            },
            {
              "internalType": "string",
              "name": "owner_Id",
              "type": "string"
            },
            {
              "internalType": "string",
              "name": "Name",
              "type": "string"
            },
            {
              "internalType": "string",
              "name": "Address",
              "type": "string"
            },
            {
              "internalType": "string",
              "name": "ImageUrl",
              "type": "string"
            },
            {
              "internalType": "uint256",
              "name": "Price",
              "type": "uint256"
            },
            {
              "internalType": "address",
              "name": "Buyer",
              "type": "address"
            }
          ],
          "internalType": "struct RegisterProperty.Property[]",
          "name": "",
          "type": "tuple[]"
        }
      ],
      "stateMutability": "view",
      "type": "function"
    },
    {
      "inputs": [],
      "name": "showListed",
      "outputs": [
        {
          "components": [
            {
              "internalType": "uint256",
              "name": "_ID",
              "type": "uint256"
            },
            {
              "internalType": "address",
              "name": "owner",
              "type": "address"
            },
            {
              "internalType": "string",
              "name": "owner_name",
              "type": "string"
            },
            {
              "internalType": "string",
              "name": "owner_Id",
              "type": "string"
            },
            {
              "internalType": "string",
              "name": "Name",
              "type": "string"
            },
            {
              "internalType": "string",
              "name": "Address",
              "type": "string"
            },
            {
              "internalType": "string",
              "name": "ImageUrl",
              "type": "string"
            },
            {
              "internalType": "uint256",
              "name": "Price",
              "type": "uint256"
            },
            {
              "internalType": "address",
              "name": "Buyer",
              "type": "address"
            }
          ],
          "internalType": "struct RegisterProperty.Property[]",
          "name": "",
          "type": "tuple[]"
        }
      ],
      "stateMutability": "view",
      "type": "function"
    },
    {
      "inputs": [
        {
          "internalType": "uint256",
          "name": "propertyId",
          "type": "uint256"
        }
      ],
      "name": "sold",
      "outputs": [],
      "stateMutability": "nonpayable",
      "type": "function"
    },
    {
      "inputs": [
        {
          "internalType": "uint256",
          "name": "propertyId",
          "type": "uint256"
        }
      ],
      "name": "unlist",
      "outputs": [],
      "stateMutability": "nonpayable",
      "type": "function"
    }
  ],
  "bytecode": "0x60806040526000805534801561001457600080fd5b506128e5806100246000396000f3fe608060405234801561001057600080fd5b506004361061009e5760003560e01c8063bbf34c2511610066578063bbf34c2514610131578063bf5a4dd31461014f578063e078cdba1461016b578063eb39113f14610187578063f7b10808146101b75761009e565b806316e72609146100a35780634d096d16146100bf5780634eda529b146100dd578063784796f7146100f95780639c03facb14610115575b600080fd5b6100bd60048036038101906100b89190611de6565b6101ef565b005b6100c761029b565b6040516100d49190612096565b60405180910390f35b6100f760048036038101906100f291906120b8565b61088e565b005b610113600480360381019061010e9190612124565b610901565b005b61012f600480360381019061012a9190611de6565b610982565b005b610139610a09565b6040516101469190612096565b60405180910390f35b61016960048036038101906101649190611de6565b610f50565b005b61018560048036038101906101809190612299565b610fc3565b005b6101a1600480360381019061019c91906123b2565b611247565b6040516101ae9190612096565b60405180910390f35b6101d160048036038101906101cc9190611de6565b6119de565b6040516101e699989796959493929190612447565b60405180910390f35b60016003600083815260200190815260200160002060006101000a81548160ff0219169083151502179055506000600560008381526020019081526020016000205490503360018281548110610248576102476124f7565b5b906000526020600020906009020160080160006101000a81548173ffffffffffffffffffffffffffffffffffffffff021916908373ffffffffffffffffffffffffffffffffffffffff1602179055505050565b60606000805b600180549050811015610371576001151560026000600184815481106102ca576102c96124f7565b5b906000526020600020906009020160000154815260200190815260200160002060009054906101000a900460ff161515148015610350575060001515600360006001848154811061031e5761031d6124f7565b5b906000526020600020906009020160000154815260200190815260200160002060009054906101000a900460ff161515145b1561036457818061036090612555565b9250505b80806001019150506102a1565b5060008167ffffffffffffffff81111561038e5761038d61216e565b5b6040519080825280602002602001820160405280156103c757816020015b6103b4611d24565b8152602001906001900390816103ac5790505b5090506000805b600180549050811015610884576001151560026000600184815481106103f7576103f66124f7565b5b906000526020600020906009020160000154815260200190815260200160002060009054906101000a900460ff16151514801561047d575060001515600360006001848154811061044b5761044a6124f7565b5b906000526020600020906009020160000154815260200190815260200160002060009054906101000a900460ff161515145b156108775760018181548110610496576104956124f7565b5b906000526020600020906009020160405180610120016040529081600082015481526020016001820160009054906101000a900473ffffffffffffffffffffffffffffffffffffffff1673ffffffffffffffffffffffffffffffffffffffff1673ffffffffffffffffffffffffffffffffffffffff168152602001600282018054610520906125cc565b80601f016020809104026020016040519081016040528092919081815260200182805461054c906125cc565b80156105995780601f1061056e57610100808354040283529160200191610599565b820191906000526020600020905b81548152906001019060200180831161057c57829003601f168201915b505050505081526020016003820180546105b2906125cc565b80601f01602080910402602001604051908101604052809291908181526020018280546105de906125cc565b801561062b5780601f106106005761010080835404028352916020019161062b565b820191906000526020600020905b81548152906001019060200180831161060e57829003601f168201915b50505050508152602001600482018054610644906125cc565b80601f0160208091040260200160405190810160405280929190818152602001828054610670906125cc565b80156106bd5780601f10610692576101008083540402835291602001916106bd565b820191906000526020600020905b8154815290600101906020018083116106a057829003601f168201915b505050505081526020016005820180546106d6906125cc565b80601f0160208091040260200160405190810160405280929190818152602001828054610702906125cc565b801561074f5780601f106107245761010080835404028352916020019161074f565b820191906000526020600020905b81548152906001019060200180831161073257829003601f168201915b50505050508152602001600682018054610768906125cc565b80601f0160208091040260200160405190810160405280929190818152602001828054610794906125cc565b80156107e15780601f106107b6576101008083540402835291602001916107e1565b820191906000526020600020905b8154815290600101906020018083116107c457829003601f168201915b50505050508152602001600782015481526020016008820160009054906101000a900473ffffffffffffffffffffffffffffffffffffffff1673ffffffffffffffffffffffffffffffffffffffff1673ffffffffffffffffffffffffffffffffffffffff168152505083838151811061085d5761085c6124f7565b5b6020026020010181905250818061087390612555565b9250505b80806001019150506103ce565b5081935050505090565b60016002600084815260200190815260200160002060006101000a81548160ff02191690831515021790555060006005600084815260200190815260200160002054905081600182815481106108e7576108e66124f7565b5b906000526020600020906009020160070181905550505050565b600060056000848152602001908152602001600020549050816001828154811061092e5761092d6124f7565b5b906000526020600020906009020160010160006101000a81548173ffffffffffffffffffffffffffffffffffffffff021916908373ffffffffffffffffffffffffffffffffffffffff160217905550505050565b60016004600083815260200190815260200160002060006101000a81548160ff02191690831515021790555060006002600083815260200190815260200160002060006101000a81548160ff02191690831515021790555060006003600083815260200190815260200160002060006101000a81548160ff02191690831515021790555050565b60606000805b600180549050811015610a8957600115156003600060018481548110610a3857610a376124f7565b5b906000526020600020906009020160000154815260200190815260200160002060009054906101000a900460ff16151503610a7c578180610a7890612555565b9250505b8080600101915050610a0f565b5060008167ffffffffffffffff811115610aa657610aa561216e565b5b604051908082528060200260200182016040528015610adf57816020015b610acc611d24565b815260200190600190039081610ac45790505b5090506000805b600180549050811015610f4657600115156003600060018481548110610b0f57610b0e6124f7565b5b906000526020600020906009020160000154815260200190815260200160002060009054906101000a900460ff16151503610f395760018181548110610b5857610b576124f7565b5b906000526020600020906009020160405180610120016040529081600082015481526020016001820160009054906101000a900473ffffffffffffffffffffffffffffffffffffffff1673ffffffffffffffffffffffffffffffffffffffff1673ffffffffffffffffffffffffffffffffffffffff168152602001600282018054610be2906125cc565b80601f0160208091040260200160405190810160405280929190818152602001828054610c0e906125cc565b8015610c5b5780601f10610c3057610100808354040283529160200191610c5b565b820191906000526020600020905b815481529060010190602001808311610c3e57829003601f168201915b50505050508152602001600382018054610c74906125cc565b80601f0160208091040260200160405190810160405280929190818152602001828054610ca0906125cc565b8015610ced5780601f10610cc257610100808354040283529160200191610ced565b820191906000526020600020905b815481529060010190602001808311610cd057829003601f168201915b50505050508152602001600482018054610d06906125cc565b80601f0160208091040260200160405190810160405280929190818152602001828054610d32906125cc565b8015610d7f5780601f10610d5457610100808354040283529160200191610d7f565b820191906000526020600020905b815481529060010190602001808311610d6257829003601f168201915b50505050508152602001600582018054610d98906125cc565b80601f0160208091040260200160405190810160405280929190818152602001828054610dc4906125cc565b8015610e115780601f10610de657610100808354040283529160200191610e11565b820191906000526020600020905b815481529060010190602001808311610df457829003601f168201915b50505050508152602001600682018054610e2a906125cc565b80601f0160208091040260200160405190810160405280929190818152602001828054610e56906125cc565b8015610ea35780601f10610e7857610100808354040283529160200191610ea3565b820191906000526020600020905b815481529060010190602001808311610e8657829003601f168201915b50505050508152602001600782015481526020016008820160009054906101000a900473ffffffffffffffffffffffffffffffffffffffff1673ffffffffffffffffffffffffffffffffffffffff1673ffffffffffffffffffffffffffffffffffffffff1681525050838381518110610f1f57610f1e6124f7565b5b60200260200101819052508180610f3590612555565b9250505b8080600101915050610ae6565b5081935050505090565b60006002600083815260200190815260200160002060006101000a81548160ff021916908315150217905550600060056000838152602001908152602001600020549050600060018281548110610faa57610fa96124f7565b5b9060005260206000209060090201600701819055505050565b600080815480929190610fd590612555565b919050555060008054905060006040518061012001604052808381526020018973ffffffffffffffffffffffffffffffffffffffff16815260200188815260200187815260200186815260200185815260200184815260200160008152602001600073ffffffffffffffffffffffffffffffffffffffff16815250905060018190806001815401808255809150506001900390600052602060002090600902016000909190919091506000820151816000015560208201518160010160006101000a81548173ffffffffffffffffffffffffffffffffffffffff021916908373ffffffffffffffffffffffffffffffffffffffff16021790555060408201518160020190816110e491906127a9565b5060608201518160030190816110fa91906127a9565b50608082015181600401908161111091906127a9565b5060a082015181600501908161112691906127a9565b5060c082015181600601908161113c91906127a9565b5060e082015181600701556101008201518160080160006101000a81548173ffffffffffffffffffffffffffffffffffffffff021916908373ffffffffffffffffffffffffffffffffffffffff160217905550505060006002600084815260200190815260200160002060006101000a81548160ff02191690831515021790555060006003600084815260200190815260200160002060006101000a81548160ff02191690831515021790555060006004600084815260200190815260200160002060006101000a81548160ff02191690831515021790555060018080549050611226919061287b565b60056000848152602001908152602001600020819055505050505050505050565b60606000805b6001805490508110156113ee578373ffffffffffffffffffffffffffffffffffffffff1660018281548110611285576112846124f7565b5b906000526020600020906009020160010160009054906101000a900473ffffffffffffffffffffffffffffffffffffffff1673ffffffffffffffffffffffffffffffffffffffff1614801561132357506000151560026000600184815481106112f1576112f06124f7565b5b906000526020600020906009020160000154815260200190815260200160002060009054906101000a900460ff161515145b80156113785750600015156003600060018481548110611346576113456124f7565b5b906000526020600020906009020160000154815260200190815260200160002060009054906101000a900460ff161515145b80156113cd575060001515600460006001848154811061139b5761139a6124f7565b5b906000526020600020906009020160000154815260200190815260200160002060009054906101000a900460ff161515145b156113e15781806113dd90612555565b9250505b808060010191505061124d565b5060008167ffffffffffffffff81111561140b5761140a61216e565b5b60405190808252806020026020018201604052801561144457816020015b611431611d24565b8152602001906001900390816114295790505b5090506000805b6001805490508110156119d2578573ffffffffffffffffffffffffffffffffffffffff1660018281548110611483576114826124f7565b5b906000526020600020906009020160010160009054906101000a900473ffffffffffffffffffffffffffffffffffffffff1673ffffffffffffffffffffffffffffffffffffffff1614801561152157506000151560026000600184815481106114ef576114ee6124f7565b5b906000526020600020906009020160000154815260200190815260200160002060009054906101000a900460ff161515145b80156115765750600015156003600060018481548110611544576115436124f7565b5b906000526020600020906009020160000154815260200190815260200160002060009054906101000a900460ff161515145b80156115cb5750600015156004600060018481548110611599576115986124f7565b5b906000526020600020906009020160000154815260200190815260200160002060009054906101000a900460ff161515145b156119c557600181815481106115e4576115e36124f7565b5b906000526020600020906009020160405180610120016040529081600082015481526020016001820160009054906101000a900473ffffffffffffffffffffffffffffffffffffffff1673ffffffffffffffffffffffffffffffffffffffff1673ffffffffffffffffffffffffffffffffffffffff16815260200160028201805461166e906125cc565b80601f016020809104026020016040519081016040528092919081815260200182805461169a906125cc565b80156116e75780601f106116bc576101008083540402835291602001916116e7565b820191906000526020600020905b8154815290600101906020018083116116ca57829003601f168201915b50505050508152602001600382018054611700906125cc565b80601f016020809104026020016040519081016040528092919081815260200182805461172c906125cc565b80156117795780601f1061174e57610100808354040283529160200191611779565b820191906000526020600020905b81548152906001019060200180831161175c57829003601f168201915b50505050508152602001600482018054611792906125cc565b80601f01602080910402602001604051908101604052809291908181526020018280546117be906125cc565b801561180b5780601f106117e05761010080835404028352916020019161180b565b820191906000526020600020905b8154815290600101906020018083116117ee57829003601f168201915b50505050508152602001600582018054611824906125cc565b80601f0160208091040260200160405190810160405280929190818152602001828054611850906125cc565b801561189d5780601f106118725761010080835404028352916020019161189d565b820191906000526020600020905b81548152906001019060200180831161188057829003601f168201915b505050505081526020016006820180546118b6906125cc565b80601f01602080910402602001604051908101604052809291908181526020018280546118e2906125cc565b801561192f5780601f106119045761010080835404028352916020019161192f565b820191906000526020600020905b81548152906001019060200180831161191257829003601f168201915b50505050508152602001600782015481526020016008820160009054906101000a900473ffffffffffffffffffffffffffffffffffffffff1673ffffffffffffffffffffffffffffffffffffffff1673ffffffffffffffffffffffffffffffffffffffff16815250508383815181106119ab576119aa6124f7565b5b602002602001018190525081806119c190612555565b9250505b808060010191505061144b565b50819350505050919050565b600181815481106119ee57600080fd5b90600052602060002090600902016000915090508060000154908060010160009054906101000a900473ffffffffffffffffffffffffffffffffffffffff1690806002018054611a3d906125cc565b80601f0160208091040260200160405190810160405280929190818152602001828054611a69906125cc565b8015611ab65780601f10611a8b57610100808354040283529160200191611ab6565b820191906000526020600020905b815481529060010190602001808311611a9957829003601f168201915b505050505090806003018054611acb906125cc565b80601f0160208091040260200160405190810160405280929190818152602001828054611af7906125cc565b8015611b445780601f10611b1957610100808354040283529160200191611b44565b820191906000526020600020905b815481529060010190602001808311611b2757829003601f168201915b505050505090806004018054611b59906125cc565b80601f0160208091040260200160405190810160405280929190818152602001828054611b85906125cc565b8015611bd25780601f10611ba757610100808354040283529160200191611bd2565b820191906000526020600020905b815481529060010190602001808311611bb557829003601f168201915b505050505090806005018054611be7906125cc565b80601f0160208091040260200160405190810160405280929190818152602001828054611c13906125cc565b8015611c605780601f10611c3557610100808354040283529160200191611c60565b820191906000526020600020905b815481529060010190602001808311611c4357829003601f168201915b505050505090806006018054611c75906125cc565b80601f0160208091040260200160405190810160405280929190818152602001828054611ca1906125cc565b8015611cee5780601f10611cc357610100808354040283529160200191611cee565b820191906000526020600020905b815481529060010190602001808311611cd157829003601f168201915b5050505050908060070154908060080160009054906101000a900473ffffffffffffffffffffffffffffffffffffffff16905089565b60405180610120016040528060008152602001600073ffffffffffffffffffffffffffffffffffffffff168152602001606081526020016060815260200160608152602001606081526020016060815260200160008152602001600073ffffffffffffffffffffffffffffffffffffffff1681525090565b6000604051905090565b600080fd5b600080fd5b6000819050919050565b611dc381611db0565b8114611dce57600080fd5b50565b600081359050611de081611dba565b92915050565b600060208284031215611dfc57611dfb611da6565b5b6000611e0a84828501611dd1565b91505092915050565b600081519050919050565b600082825260208201905092915050565b6000819050602082019050919050565b611e4881611db0565b82525050565b600073ffffffffffffffffffffffffffffffffffffffff82169050919050565b6000611e7982611e4e565b9050919050565b611e8981611e6e565b82525050565b600081519050919050565b600082825260208201905092915050565b60005b83811015611ec9578082015181840152602081019050611eae565b60008484015250505050565b6000601f19601f8301169050919050565b6000611ef182611e8f565b611efb8185611e9a565b9350611f0b818560208601611eab565b611f1481611ed5565b840191505092915050565b600061012083016000830151611f386000860182611e3f565b506020830151611f4b6020860182611e80565b5060408301518482036040860152611f638282611ee6565b91505060608301518482036060860152611f7d8282611ee6565b91505060808301518482036080860152611f978282611ee6565b91505060a083015184820360a0860152611fb18282611ee6565b91505060c083015184820360c0860152611fcb8282611ee6565b91505060e0830151611fe060e0860182611e3f565b50610100830151611ff5610100860182611e80565b508091505092915050565b600061200c8383611f1f565b905092915050565b6000602082019050919050565b600061202c82611e13565b6120368185611e1e565b93508360208202850161204885611e2f565b8060005b8581101561208457848403895281516120658582612000565b945061207083612014565b925060208a0199505060018101905061204c565b50829750879550505050505092915050565b600060208201905081810360008301526120b08184612021565b905092915050565b600080604083850312156120cf576120ce611da6565b5b60006120dd85828601611dd1565b92505060206120ee85828601611dd1565b9150509250929050565b61210181611e6e565b811461210c57600080fd5b50565b60008135905061211e816120f8565b92915050565b6000806040838503121561213b5761213a611da6565b5b600061214985828601611dd1565b925050602061215a8582860161210f565b9150509250929050565b600080fd5b600080fd5b7f4e487b7100000000000000000000000000000000000000000000000000000000600052604160045260246000fd5b6121a682611ed5565b810181811067ffffffffffffffff821117156121c5576121c461216e565b5b80604052505050565b60006121d8611d9c565b90506121e4828261219d565b919050565b600067ffffffffffffffff8211156122045761220361216e565b5b61220d82611ed5565b9050602081019050919050565b82818337600083830152505050565b600061223c612237846121e9565b6121ce565b90508281526020810184848401111561225857612257612169565b5b61226384828561221a565b509392505050565b600082601f8301126122805761227f612164565b5b8135612290848260208601612229565b91505092915050565b60008060008060008060c087890312156122b6576122b5611da6565b5b60006122c489828a0161210f565b965050602087013567ffffffffffffffff8111156122e5576122e4611dab565b5b6122f189828a0161226b565b955050604087013567ffffffffffffffff81111561231257612311611dab565b5b61231e89828a0161226b565b945050606087013567ffffffffffffffff81111561233f5761233e611dab565b5b61234b89828a0161226b565b935050608087013567ffffffffffffffff81111561236c5761236b611dab565b5b61237889828a0161226b565b92505060a087013567ffffffffffffffff81111561239957612398611dab565b5b6123a589828a0161226b565b9150509295509295509295565b6000602082840312156123c8576123c7611da6565b5b60006123d68482850161210f565b91505092915050565b6123e881611db0565b82525050565b6123f781611e6e565b82525050565b600082825260208201905092915050565b600061241982611e8f565b61242381856123fd565b9350612433818560208601611eab565b61243c81611ed5565b840191505092915050565b60006101208201905061245d600083018c6123df565b61246a602083018b6123ee565b818103604083015261247c818a61240e565b90508181036060830152612490818961240e565b905081810360808301526124a4818861240e565b905081810360a08301526124b8818761240e565b905081810360c08301526124cc818661240e565b90506124db60e08301856123df565b6124e96101008301846123ee565b9a9950505050505050505050565b7f4e487b7100000000000000000000000000000000000000000000000000000000600052603260045260246000fd5b7f4e487b7100000000000000000000000000000000000000000000000000000000600052601160045260246000fd5b600061256082611db0565b91507fffffffffffffffffffffffffffffffffffffffffffffffffffffffffffffffff820361259257612591612526565b5b600182019050919050565b7f4e487b7100000000000000000000000000000000000000000000000000000000600052602260045260246000fd5b600060028204905060018216806125e457607f821691505b6020821081036125f7576125f661259d565b5b50919050565b60008190508160005260206000209050919050565b60006020601f8301049050919050565b600082821b905092915050565b60006008830261265f7fffffffffffffffffffffffffffffffffffffffffffffffffffffffffffffffff82612622565b6126698683612622565b95508019841693508086168417925050509392505050565b6000819050919050565b60006126a66126a161269c84611db0565b612681565b611db0565b9050919050565b6000819050919050565b6126c08361268b565b6126d46126cc826126ad565b84845461262f565b825550505050565b600090565b6126e96126dc565b6126f48184846126b7565b505050565b5b818110156127185761270d6000826126e1565b6001810190506126fa565b5050565b601f82111561275d5761272e816125fd565b61273784612612565b81016020851015612746578190505b61275a61275285612612565b8301826126f9565b50505b505050565b600082821c905092915050565b600061278060001984600802612762565b1980831691505092915050565b6000612799838361276f565b9150826002028217905092915050565b6127b282611e8f565b67ffffffffffffffff8111156127cb576127ca61216e565b5b6127d582546125cc565b6127e082828561271c565b600060209050601f8311600181146128135760008415612801578287015190505b61280b858261278d565b865550612873565b601f198416612821866125fd565b60005b8281101561284957848901518255600182019150602085019450602081019050612824565b868310156128665784890151612862601f89168261276f565b8355505b6001600288020188555050505b505050505050565b600061288682611db0565b915061289183611db0565b92508282039050818111156128a9576128a8612526565b5b9291505056fea2646970667358221220d112188b327d3631480fb7b0305fd5b3d573a837d41dbef996057beff6ece1e664736f6c63430008180033",
  "linkReferences": {},
  "deployedLinkReferences": {}
}