{
  "_format": "hh-sol-artifact-1",
  "contractName": "NFT_Trade",
  "sourceName": "contracts/NFT_Trade.sol",
  "abi": [
    {
      "inputs": [],
      "stateMutability": "nonpayable",
      "type": "constructor"
    },
    {
      "inputs": [
        {
          "internalType": "address",
          "name": "sender",
          "type": "address"
        },
        {
          "internalType": "uint256",
          "name": "tokenId",
          "type": "uint256"
        },
        {
          "internalType": "address",
          "name": "owner",
          "type": "address"
        }
      ],
      "name": "ERC721IncorrectOwner",
      "type": "error"
    },
    {
      "inputs": [
        {
          "internalType": "address",
          "name": "operator",
          "type": "address"
        },
        {
          "internalType": "uint256",
          "name": "tokenId",
          "type": "uint256"
        }
      ],
      "name": "ERC721InsufficientApproval",
      "type": "error"
    },
    {
      "inputs": [
        {
          "internalType": "address",
          "name": "approver",
          "type": "address"
        }
      ],
      "name": "ERC721InvalidApprover",
      "type": "error"
    },
    {
      "inputs": [
        {
          "internalType": "address",
          "name": "operator",
          "type": "address"
        }
      ],
      "name": "ERC721InvalidOperator",
      "type": "error"
    },
    {
      "inputs": [
        {
          "internalType": "address",
          "name": "owner",
          "type": "address"
        }
      ],
      "name": "ERC721InvalidOwner",
      "type": "error"
    },
    {
      "inputs": [
        {
          "internalType": "address",
          "name": "receiver",
          "type": "address"
        }
      ],
      "name": "ERC721InvalidReceiver",
      "type": "error"
    },
    {
      "inputs": [
        {
          "internalType": "address",
          "name": "sender",
          "type": "address"
        }
      ],
      "name": "ERC721InvalidSender",
      "type": "error"
    },
    {
      "inputs": [
        {
          "internalType": "uint256",
          "name": "tokenId",
          "type": "uint256"
        }
      ],
      "name": "ERC721NonexistentToken",
      "type": "error"
    },
    {
      "anonymous": false,
      "inputs": [
        {
          "indexed": true,
          "internalType": "address",
          "name": "owner",
          "type": "address"
        },
        {
          "indexed": true,
          "internalType": "address",
          "name": "approved",
          "type": "address"
        },
        {
          "indexed": true,
          "internalType": "uint256",
          "name": "tokenId",
          "type": "uint256"
        }
      ],
      "name": "Approval",
      "type": "event"
    },
    {
      "anonymous": false,
      "inputs": [
        {
          "indexed": true,
          "internalType": "address",
          "name": "owner",
          "type": "address"
        },
        {
          "indexed": true,
          "internalType": "address",
          "name": "operator",
          "type": "address"
        },
        {
          "indexed": false,
          "internalType": "bool",
          "name": "approved",
          "type": "bool"
        }
      ],
      "name": "ApprovalForAll",
      "type": "event"
    },
    {
      "anonymous": false,
      "inputs": [
        {
          "indexed": false,
          "internalType": "uint256",
          "name": "_fromTokenId",
          "type": "uint256"
        },
        {
          "indexed": false,
          "internalType": "uint256",
          "name": "_toTokenId",
          "type": "uint256"
        }
      ],
      "name": "BatchMetadataUpdate",
      "type": "event"
    },
    {
      "anonymous": false,
      "inputs": [
        {
          "indexed": false,
          "internalType": "uint256",
          "name": "_tokenId",
          "type": "uint256"
        }
      ],
      "name": "MetadataUpdate",
      "type": "event"
    },
    {
      "anonymous": false,
      "inputs": [
        {
          "indexed": true,
          "internalType": "address",
          "name": "from",
          "type": "address"
        },
        {
          "indexed": true,
          "internalType": "address",
          "name": "to",
          "type": "address"
        },
        {
          "indexed": true,
          "internalType": "uint256",
          "name": "tokenId",
          "type": "uint256"
        }
      ],
      "name": "Transfer",
      "type": "event"
    },
    {
      "inputs": [
        {
          "internalType": "address",
          "name": "to",
          "type": "address"
        },
        {
          "internalType": "uint256",
          "name": "tokenId",
          "type": "uint256"
        }
      ],
      "name": "approve",
      "outputs": [],
      "stateMutability": "nonpayable",
      "type": "function"
    },
    {
      "inputs": [
        {
          "internalType": "address",
          "name": "owner",
          "type": "address"
        }
      ],
      "name": "balanceOf",
      "outputs": [
        {
          "internalType": "uint256",
          "name": "",
          "type": "uint256"
        }
      ],
      "stateMutability": "view",
      "type": "function"
    },
    {
      "inputs": [
        {
          "internalType": "address",
          "name": "to",
          "type": "address"
        },
        {
          "internalType": "string",
          "name": "uri",
          "type": "string"
        }
      ],
      "name": "createNFT",
      "outputs": [
        {
          "internalType": "uint256",
          "name": "",
          "type": "uint256"
        }
      ],
      "stateMutability": "nonpayable",
      "type": "function"
    },
    {
      "inputs": [
        {
          "internalType": "uint256",
          "name": "tokenId",
          "type": "uint256"
        }
      ],
      "name": "getApproved",
      "outputs": [
        {
          "internalType": "address",
          "name": "",
          "type": "address"
        }
      ],
      "stateMutability": "view",
      "type": "function"
    },
    {
      "inputs": [
        {
          "internalType": "address",
          "name": "owner",
          "type": "address"
        },
        {
          "internalType": "address",
          "name": "operator",
          "type": "address"
        }
      ],
      "name": "isApprovedForAll",
      "outputs": [
        {
          "internalType": "bool",
          "name": "",
          "type": "bool"
        }
      ],
      "stateMutability": "view",
      "type": "function"
    },
    {
      "inputs": [],
      "name": "name",
      "outputs": [
        {
          "internalType": "string",
          "name": "",
          "type": "string"
        }
      ],
      "stateMutability": "view",
      "type": "function"
    },
    {
      "inputs": [
        {
          "internalType": "uint256",
          "name": "tokenId",
          "type": "uint256"
        }
      ],
      "name": "ownerOf",
      "outputs": [
        {
          "internalType": "address",
          "name": "",
          "type": "address"
        }
      ],
      "stateMutability": "view",
      "type": "function"
    },
    {
      "inputs": [
        {
          "internalType": "address",
          "name": "from",
          "type": "address"
        },
        {
          "internalType": "address",
          "name": "to",
          "type": "address"
        },
        {
          "internalType": "uint256",
          "name": "tokenId",
          "type": "uint256"
        }
      ],
      "name": "safeTransferFrom",
      "outputs": [],
      "stateMutability": "nonpayable",
      "type": "function"
    },
    {
      "inputs": [
        {
          "internalType": "address",
          "name": "from",
          "type": "address"
        },
        {
          "internalType": "address",
          "name": "to",
          "type": "address"
        },
        {
          "internalType": "uint256",
          "name": "tokenId",
          "type": "uint256"
        },
        {
          "internalType": "bytes",
          "name": "data",
          "type": "bytes"
        }
      ],
      "name": "safeTransferFrom",
      "outputs": [],
      "stateMutability": "nonpayable",
      "type": "function"
    },
    {
      "inputs": [
        {
          "internalType": "address",
          "name": "operator",
          "type": "address"
        },
        {
          "internalType": "bool",
          "name": "approved",
          "type": "bool"
        }
      ],
      "name": "setApprovalForAll",
      "outputs": [],
      "stateMutability": "nonpayable",
      "type": "function"
    },
    {
      "inputs": [
        {
          "internalType": "bytes4",
          "name": "interfaceId",
          "type": "bytes4"
        }
      ],
      "name": "supportsInterface",
      "outputs": [
        {
          "internalType": "bool",
          "name": "",
          "type": "bool"
        }
      ],
      "stateMutability": "view",
      "type": "function"
    },
    {
      "inputs": [],
      "name": "symbol",
      "outputs": [
        {
          "internalType": "string",
          "name": "",
          "type": "string"
        }
      ],
      "stateMutability": "view",
      "type": "function"
    },
    {
      "inputs": [
        {
          "internalType": "uint256",
          "name": "tokenId",
          "type": "uint256"
        }
      ],
      "name": "tokenURI",
      "outputs": [
        {
          "internalType": "string",
          "name": "",
          "type": "string"
        }
      ],
      "stateMutability": "view",
      "type": "function"
    },
    {
      "inputs": [
        {
          "internalType": "address",
          "name": "from",
          "type": "address"
        },
        {
          "internalType": "address",
          "name": "to",
          "type": "address"
        },
        {
          "internalType": "uint256",
          "name": "tokenId",
          "type": "uint256"
        }
      ],
      "name": "transferFrom",
      "outputs": [],
      "stateMutability": "nonpayable",
      "type": "function"
    },
    {
      "stateMutability": "payable",
      "type": "receive"
    }
  ],
  "bytecode": "0x608060405260006007553480156200001657600080fd5b506040518060400160405280600581526020017f41737365740000000000000000000000000000000000000000000000000000008152506040518060400160405280600281526020017f4154000000000000000000000000000000000000000000000000000000000000815250816000908162000094919062000329565b508060019081620000a6919062000329565b50505062000410565b600081519050919050565b7f4e487b7100000000000000000000000000000000000000000000000000000000600052604160045260246000fd5b7f4e487b7100000000000000000000000000000000000000000000000000000000600052602260045260246000fd5b600060028204905060018216806200013157607f821691505b602082108103620001475762000146620000e9565b5b50919050565b60008190508160005260206000209050919050565b60006020601f8301049050919050565b600082821b905092915050565b600060088302620001b17fffffffffffffffffffffffffffffffffffffffffffffffffffffffffffffffff8262000172565b620001bd868362000172565b95508019841693508086168417925050509392505050565b6000819050919050565b6000819050919050565b60006200020a62000204620001fe84620001d5565b620001df565b620001d5565b9050919050565b6000819050919050565b6200022683620001e9565b6200023e620002358262000211565b8484546200017f565b825550505050565b600090565b6200025562000246565b620002628184846200021b565b505050565b5b818110156200028a576200027e6000826200024b565b60018101905062000268565b5050565b601f821115620002d957620002a3816200014d565b620002ae8462000162565b81016020851015620002be578190505b620002d6620002cd8562000162565b83018262000267565b50505b505050565b600082821c905092915050565b6000620002fe60001984600802620002de565b1980831691505092915050565b6000620003198383620002eb565b9150826002028217905092915050565b6200033482620000af565b67ffffffffffffffff81111562000350576200034f620000ba565b5b6200035c825462000118565b620003698282856200028e565b600060209050601f831160018114620003a157600084156200038c578287015190505b6200039885826200030b565b86555062000408565b601f198416620003b1866200014d565b60005b82811015620003db57848901518255600182019150602085019450602081019050620003b4565b86831015620003fb5784890151620003f7601f891682620002eb565b8355505b6001600288020188555050505b505050505050565b61247580620004206000396000f3fe6080604052600436106100e15760003560e01c806370a082311161007f578063a561403311610059578063a5614033146102db578063b88d4fde14610318578063c87b56dd14610341578063e985e9c51461037e576100e8565b806370a082311461024a57806395d89b4114610287578063a22cb465146102b2576100e8565b8063095ea7b3116100bb578063095ea7b31461019257806323b872dd146101bb57806342842e0e146101e45780636352211e1461020d576100e8565b806301ffc9a7146100ed57806306fdde031461012a578063081812fc14610155576100e8565b366100e857005b600080fd5b3480156100f957600080fd5b50610114600480360381019061010f91906118cd565b6103bb565b6040516101219190611915565b60405180910390f35b34801561013657600080fd5b5061013f61041c565b60405161014c91906119c0565b60405180910390f35b34801561016157600080fd5b5061017c60048036038101906101779190611a18565b6104ae565b6040516101899190611a86565b60405180910390f35b34801561019e57600080fd5b506101b960048036038101906101b49190611acd565b6104ca565b005b3480156101c757600080fd5b506101e260048036038101906101dd9190611b0d565b6104e0565b005b3480156101f057600080fd5b5061020b60048036038101906102069190611b0d565b6105e2565b005b34801561021957600080fd5b50610234600480360381019061022f9190611a18565b610602565b6040516102419190611a86565b60405180910390f35b34801561025657600080fd5b50610271600480360381019061026c9190611b60565b610614565b60405161027e9190611b9c565b60405180910390f35b34801561029357600080fd5b5061029c6106ce565b6040516102a991906119c0565b60405180910390f35b3480156102be57600080fd5b506102d960048036038101906102d49190611be3565b610760565b005b3480156102e757600080fd5b5061030260048036038101906102fd9190611d58565b610776565b60405161030f9190611b9c565b60405180910390f35b34801561032457600080fd5b5061033f600480360381019061033a9190611e55565b6107b5565b005b34801561034d57600080fd5b5061036860048036038101906103639190611a18565b6107d2565b60405161037591906119c0565b60405180910390f35b34801561038a57600080fd5b506103a560048036038101906103a09190611ed8565b6108e5565b6040516103b29190611915565b60405180910390f35b6000634906490660e01b7bffffffffffffffffffffffffffffffffffffffffffffffffffffffff1916827bffffffffffffffffffffffffffffffffffffffffffffffffffffffff19161480610415575061041482610979565b5b9050919050565b60606000805461042b90611f47565b80601f016020809104026020016040519081016040528092919081815260200182805461045790611f47565b80156104a45780601f10610479576101008083540402835291602001916104a4565b820191906000526020600020905b81548152906001019060200180831161048757829003601f168201915b5050505050905090565b60006104b982610a5b565b506104c382610ae3565b9050919050565b6104dc82826104d7610b20565b610b28565b5050565b600073ffffffffffffffffffffffffffffffffffffffff168273ffffffffffffffffffffffffffffffffffffffff16036105525760006040517f64a0ae920000000000000000000000000000000000000000000000000000000081526004016105499190611a86565b60405180910390fd5b60006105668383610561610b20565b610b3a565b90508373ffffffffffffffffffffffffffffffffffffffff168173ffffffffffffffffffffffffffffffffffffffff16146105dc578382826040517f64283d7b0000000000000000000000000000000000000000000000000000000081526004016105d393929190611f78565b60405180910390fd5b50505050565b6105fd838383604051806020016040528060008152506107b5565b505050565b600061060d82610a5b565b9050919050565b60008073ffffffffffffffffffffffffffffffffffffffff168273ffffffffffffffffffffffffffffffffffffffff16036106875760006040517f89c62b6400000000000000000000000000000000000000000000000000000000815260040161067e9190611a86565b60405180910390fd5b600360008373ffffffffffffffffffffffffffffffffffffffff1673ffffffffffffffffffffffffffffffffffffffff168152602001908152602001600020549050919050565b6060600180546106dd90611f47565b80601f016020809104026020016040519081016040528092919081815260200182805461070990611f47565b80156107565780601f1061072b57610100808354040283529160200191610756565b820191906000526020600020905b81548152906001019060200180831161073957829003601f168201915b5050505050905090565b61077261076b610b20565b8383610d54565b5050565b60006007600081548092919061078b90611fde565b9190505550600060075490506107a18482610ec3565b6107ab8184610fbc565b8091505092915050565b6107c08484846104e0565b6107cc84848484611018565b50505050565b60606107dd82610a5b565b5060006006600084815260200190815260200160002080546107fe90611f47565b80601f016020809104026020016040519081016040528092919081815260200182805461082a90611f47565b80156108775780601f1061084c57610100808354040283529160200191610877565b820191906000526020600020905b81548152906001019060200180831161085a57829003601f168201915b5050505050905060006108886111cf565b9050600081510361089d5781925050506108e0565b6000825111156108d25780826040516020016108ba929190612062565b604051602081830303815290604052925050506108e0565b6108db846111e6565b925050505b919050565b6000600560008473ffffffffffffffffffffffffffffffffffffffff1673ffffffffffffffffffffffffffffffffffffffff16815260200190815260200160002060008373ffffffffffffffffffffffffffffffffffffffff1673ffffffffffffffffffffffffffffffffffffffff16815260200190815260200160002060009054906101000a900460ff16905092915050565b60007f80ac58cd000000000000000000000000000000000000000000000000000000007bffffffffffffffffffffffffffffffffffffffffffffffffffffffff1916827bffffffffffffffffffffffffffffffffffffffffffffffffffffffff19161480610a4457507f5b5e139f000000000000000000000000000000000000000000000000000000007bffffffffffffffffffffffffffffffffffffffffffffffffffffffff1916827bffffffffffffffffffffffffffffffffffffffffffffffffffffffff1916145b80610a545750610a538261124f565b5b9050919050565b600080610a67836112b9565b9050600073ffffffffffffffffffffffffffffffffffffffff168173ffffffffffffffffffffffffffffffffffffffff1603610ada57826040517f7e273289000000000000000000000000000000000000000000000000000000008152600401610ad19190611b9c565b60405180910390fd5b80915050919050565b60006004600083815260200190815260200160002060009054906101000a900473ffffffffffffffffffffffffffffffffffffffff169050919050565b600033905090565b610b3583838360016112f6565b505050565b600080610b46846112b9565b9050600073ffffffffffffffffffffffffffffffffffffffff168373ffffffffffffffffffffffffffffffffffffffff1614610b8857610b878184866114bb565b5b600073ffffffffffffffffffffffffffffffffffffffff168173ffffffffffffffffffffffffffffffffffffffff1614610c1957610bca6000856000806112f6565b6001600360008373ffffffffffffffffffffffffffffffffffffffff1673ffffffffffffffffffffffffffffffffffffffff168152602001908152602001600020600082825403925050819055505b600073ffffffffffffffffffffffffffffffffffffffff168573ffffffffffffffffffffffffffffffffffffffff1614610c9c576001600360008773ffffffffffffffffffffffffffffffffffffffff1673ffffffffffffffffffffffffffffffffffffffff168152602001908152602001600020600082825401925050819055505b846002600086815260200190815260200160002060006101000a81548173ffffffffffffffffffffffffffffffffffffffff021916908373ffffffffffffffffffffffffffffffffffffffff160217905550838573ffffffffffffffffffffffffffffffffffffffff168273ffffffffffffffffffffffffffffffffffffffff167fddf252ad1be2c89b69c2b068fc378daa952ba7f163c4a11628f55a4df523b3ef60405160405180910390a4809150509392505050565b600073ffffffffffffffffffffffffffffffffffffffff168273ffffffffffffffffffffffffffffffffffffffff1603610dc557816040517f5b08ba18000000000000000000000000000000000000000000000000000000008152600401610dbc9190611a86565b60405180910390fd5b80600560008573ffffffffffffffffffffffffffffffffffffffff1673ffffffffffffffffffffffffffffffffffffffff16815260200190815260200160002060008473ffffffffffffffffffffffffffffffffffffffff1673ffffffffffffffffffffffffffffffffffffffff16815260200190815260200160002060006101000a81548160ff0219169083151502179055508173ffffffffffffffffffffffffffffffffffffffff168373ffffffffffffffffffffffffffffffffffffffff167f17307eab39ab6107e8899845ad3d59bd9653f200f220920489ca2b5937696c3183604051610eb69190611915565b60405180910390a3505050565b600073ffffffffffffffffffffffffffffffffffffffff168273ffffffffffffffffffffffffffffffffffffffff1603610f355760006040517f64a0ae92000000000000000000000000000000000000000000000000000000008152600401610f2c9190611a86565b60405180910390fd5b6000610f4383836000610b3a565b9050600073ffffffffffffffffffffffffffffffffffffffff168173ffffffffffffffffffffffffffffffffffffffff1614610fb75760006040517f73c6ac6e000000000000000000000000000000000000000000000000000000008152600401610fae9190611a86565b60405180910390fd5b505050565b80600660008481526020019081526020016000209081610fdc9190612232565b507ff8e1a15aba9398e019f0b49df1a4fde98ee17ae345cb5f6b5e2c27f5033e8ce78260405161100c9190611b9c565b60405180910390a15050565b60008373ffffffffffffffffffffffffffffffffffffffff163b11156111c9578273ffffffffffffffffffffffffffffffffffffffff1663150b7a0261105c610b20565b8685856040518563ffffffff1660e01b815260040161107e9493929190612359565b6020604051808303816000875af19250505080156110ba57506040513d601f19601f820116820180604052508101906110b791906123ba565b60015b61113e573d80600081146110ea576040519150601f19603f3d011682016040523d82523d6000602084013e6110ef565b606091505b50600081510361113657836040517f64a0ae9200000000000000000000000000000000000000000000000000000000815260040161112d9190611a86565b60405180910390fd5b805181602001fd5b63150b7a0260e01b7bffffffffffffffffffffffffffffffffffffffffffffffffffffffff1916817bffffffffffffffffffffffffffffffffffffffffffffffffffffffff1916146111c757836040517f64a0ae920000000000000000000000000000000000000000000000000000000081526004016111be9190611a86565b60405180910390fd5b505b50505050565b606060405180602001604052806000815250905090565b60606111f182610a5b565b5060006111fc6111cf565b9050600081511161121c5760405180602001604052806000815250611247565b806112268461157f565b604051602001611237929190612062565b6040516020818303038152906040525b915050919050565b60007f01ffc9a7000000000000000000000000000000000000000000000000000000007bffffffffffffffffffffffffffffffffffffffffffffffffffffffff1916827bffffffffffffffffffffffffffffffffffffffffffffffffffffffff1916149050919050565b60006002600083815260200190815260200160002060009054906101000a900473ffffffffffffffffffffffffffffffffffffffff169050919050565b808061132f5750600073ffffffffffffffffffffffffffffffffffffffff168273ffffffffffffffffffffffffffffffffffffffff1614155b1561146357600061133f84610a5b565b9050600073ffffffffffffffffffffffffffffffffffffffff168373ffffffffffffffffffffffffffffffffffffffff16141580156113aa57508273ffffffffffffffffffffffffffffffffffffffff168173ffffffffffffffffffffffffffffffffffffffff1614155b80156113bd57506113bb81846108e5565b155b156113ff57826040517fa9fbf51f0000000000000000000000000000000000000000000000000000000081526004016113f69190611a86565b60405180910390fd5b811561146157838573ffffffffffffffffffffffffffffffffffffffff168273ffffffffffffffffffffffffffffffffffffffff167f8c5be1e5ebec7d5bd14f71427d1e84f3dd0314c0f7b2291e5b200ac8c7c3b92560405160405180910390a45b505b836004600085815260200190815260200160002060006101000a81548173ffffffffffffffffffffffffffffffffffffffff021916908373ffffffffffffffffffffffffffffffffffffffff16021790555050505050565b6114c683838361164d565b61157a57600073ffffffffffffffffffffffffffffffffffffffff168373ffffffffffffffffffffffffffffffffffffffff160361153b57806040517f7e2732890000000000000000000000000000000000000000000000000000000081526004016115329190611b9c565b60405180910390fd5b81816040517f177e802f0000000000000000000000000000000000000000000000000000000081526004016115719291906123e7565b60405180910390fd5b505050565b60606000600161158e8461170e565b01905060008167ffffffffffffffff8111156115ad576115ac611c2d565b5b6040519080825280601f01601f1916602001820160405280156115df5781602001600182028036833780820191505090505b509050600082602001820190505b600115611642578080600190039150507f3031323334353637383961626364656600000000000000000000000000000000600a86061a8153600a858161163657611635612410565b5b049450600085036115ed575b819350505050919050565b60008073ffffffffffffffffffffffffffffffffffffffff168373ffffffffffffffffffffffffffffffffffffffff161415801561170557508273ffffffffffffffffffffffffffffffffffffffff168473ffffffffffffffffffffffffffffffffffffffff1614806116c657506116c584846108e5565b5b8061170457508273ffffffffffffffffffffffffffffffffffffffff166116ec83610ae3565b73ffffffffffffffffffffffffffffffffffffffff16145b5b90509392505050565b600080600090507a184f03e93ff9f4daa797ed6e38ed64bf6a1f010000000000000000831061176c577a184f03e93ff9f4daa797ed6e38ed64bf6a1f010000000000000000838161176257611761612410565b5b0492506040810190505b6d04ee2d6d415b85acef810000000083106117a9576d04ee2d6d415b85acef8100000000838161179f5761179e612410565b5b0492506020810190505b662386f26fc1000083106117d857662386f26fc1000083816117ce576117cd612410565b5b0492506010810190505b6305f5e1008310611801576305f5e10083816117f7576117f6612410565b5b0492506008810190505b612710831061182657612710838161181c5761181b612410565b5b0492506004810190505b60648310611849576064838161183f5761183e612410565b5b0492506002810190505b600a8310611858576001810190505b80915050919050565b6000604051905090565b600080fd5b600080fd5b60007fffffffff0000000000000000000000000000000000000000000000000000000082169050919050565b6118aa81611875565b81146118b557600080fd5b50565b6000813590506118c7816118a1565b92915050565b6000602082840312156118e3576118e261186b565b5b60006118f1848285016118b8565b91505092915050565b60008115159050919050565b61190f816118fa565b82525050565b600060208201905061192a6000830184611906565b92915050565b600081519050919050565b600082825260208201905092915050565b60005b8381101561196a57808201518184015260208101905061194f565b60008484015250505050565b6000601f19601f8301169050919050565b600061199282611930565b61199c818561193b565b93506119ac81856020860161194c565b6119b581611976565b840191505092915050565b600060208201905081810360008301526119da8184611987565b905092915050565b6000819050919050565b6119f5816119e2565b8114611a0057600080fd5b50565b600081359050611a12816119ec565b92915050565b600060208284031215611a2e57611a2d61186b565b5b6000611a3c84828501611a03565b91505092915050565b600073ffffffffffffffffffffffffffffffffffffffff82169050919050565b6000611a7082611a45565b9050919050565b611a8081611a65565b82525050565b6000602082019050611a9b6000830184611a77565b92915050565b611aaa81611a65565b8114611ab557600080fd5b50565b600081359050611ac781611aa1565b92915050565b60008060408385031215611ae457611ae361186b565b5b6000611af285828601611ab8565b9250506020611b0385828601611a03565b9150509250929050565b600080600060608486031215611b2657611b2561186b565b5b6000611b3486828701611ab8565b9350506020611b4586828701611ab8565b9250506040611b5686828701611a03565b9150509250925092565b600060208284031215611b7657611b7561186b565b5b6000611b8484828501611ab8565b91505092915050565b611b96816119e2565b82525050565b6000602082019050611bb16000830184611b8d565b92915050565b611bc0816118fa565b8114611bcb57600080fd5b50565b600081359050611bdd81611bb7565b92915050565b60008060408385031215611bfa57611bf961186b565b5b6000611c0885828601611ab8565b9250506020611c1985828601611bce565b9150509250929050565b600080fd5b600080fd5b7f4e487b7100000000000000000000000000000000000000000000000000000000600052604160045260246000fd5b611c6582611976565b810181811067ffffffffffffffff82111715611c8457611c83611c2d565b5b80604052505050565b6000611c97611861565b9050611ca38282611c5c565b919050565b600067ffffffffffffffff821115611cc357611cc2611c2d565b5b611ccc82611976565b9050602081019050919050565b82818337600083830152505050565b6000611cfb611cf684611ca8565b611c8d565b905082815260208101848484011115611d1757611d16611c28565b5b611d22848285611cd9565b509392505050565b600082601f830112611d3f57611d3e611c23565b5b8135611d4f848260208601611ce8565b91505092915050565b60008060408385031215611d6f57611d6e61186b565b5b6000611d7d85828601611ab8565b925050602083013567ffffffffffffffff811115611d9e57611d9d611870565b5b611daa85828601611d2a565b9150509250929050565b600067ffffffffffffffff821115611dcf57611dce611c2d565b5b611dd882611976565b9050602081019050919050565b6000611df8611df384611db4565b611c8d565b905082815260208101848484011115611e1457611e13611c28565b5b611e1f848285611cd9565b509392505050565b600082601f830112611e3c57611e3b611c23565b5b8135611e4c848260208601611de5565b91505092915050565b60008060008060808587031215611e6f57611e6e61186b565b5b6000611e7d87828801611ab8565b9450506020611e8e87828801611ab8565b9350506040611e9f87828801611a03565b925050606085013567ffffffffffffffff811115611ec057611ebf611870565b5b611ecc87828801611e27565b91505092959194509250565b60008060408385031215611eef57611eee61186b565b5b6000611efd85828601611ab8565b9250506020611f0e85828601611ab8565b9150509250929050565b7f4e487b7100000000000000000000000000000000000000000000000000000000600052602260045260246000fd5b60006002820490506001821680611f5f57607f821691505b602082108103611f7257611f71611f18565b5b50919050565b6000606082019050611f8d6000830186611a77565b611f9a6020830185611b8d565b611fa76040830184611a77565b949350505050565b7f4e487b7100000000000000000000000000000000000000000000000000000000600052601160045260246000fd5b6000611fe9826119e2565b91507fffffffffffffffffffffffffffffffffffffffffffffffffffffffffffffffff820361201b5761201a611faf565b5b600182019050919050565b600081905092915050565b600061203c82611930565b6120468185612026565b935061205681856020860161194c565b80840191505092915050565b600061206e8285612031565b915061207a8284612031565b91508190509392505050565b60008190508160005260206000209050919050565b60006020601f8301049050919050565b600082821b905092915050565b6000600883026120e87fffffffffffffffffffffffffffffffffffffffffffffffffffffffffffffffff826120ab565b6120f286836120ab565b95508019841693508086168417925050509392505050565b6000819050919050565b600061212f61212a612125846119e2565b61210a565b6119e2565b9050919050565b6000819050919050565b61214983612114565b61215d61215582612136565b8484546120b8565b825550505050565b600090565b612172612165565b61217d818484612140565b505050565b5b818110156121a15761219660008261216a565b600181019050612183565b5050565b601f8211156121e6576121b781612086565b6121c08461209b565b810160208510156121cf578190505b6121e36121db8561209b565b830182612182565b50505b505050565b600082821c905092915050565b6000612209600019846008026121eb565b1980831691505092915050565b600061222283836121f8565b9150826002028217905092915050565b61223b82611930565b67ffffffffffffffff81111561225457612253611c2d565b5b61225e8254611f47565b6122698282856121a5565b600060209050601f83116001811461229c576000841561228a578287015190505b6122948582612216565b8655506122fc565b601f1984166122aa86612086565b60005b828110156122d2578489015182556001820191506020850194506020810190506122ad565b868310156122ef57848901516122eb601f8916826121f8565b8355505b6001600288020188555050505b505050505050565b600081519050919050565b600082825260208201905092915050565b600061232b82612304565b612335818561230f565b935061234581856020860161194c565b61234e81611976565b840191505092915050565b600060808201905061236e6000830187611a77565b61237b6020830186611a77565b6123886040830185611b8d565b818103606083015261239a8184612320565b905095945050505050565b6000815190506123b4816118a1565b92915050565b6000602082840312156123d0576123cf61186b565b5b60006123de848285016123a5565b91505092915050565b60006040820190506123fc6000830185611a77565b6124096020830184611b8d565b9392505050565b7f4e487b7100000000000000000000000000000000000000000000000000000000600052601260045260246000fdfea26469706673582212204d20dfe7f894a0806057bc7a8f6508dff93eaba49ae14d0194278fc3e74f78a564736f6c63430008180033",
  "linkReferences": {},
  "deployedLinkReferences": {}
}