{
  "_format": "hh-sol-artifact-1",
  "contractName": "NFT_Trade",
  "sourceName": "contracts/NFT_Trade.sol",
  "abi": [
    {
      "inputs": [],
      "stateMutability": "nonpayable",
      "type": "constructor"
    },
    {
      "inputs": [
        {
          "internalType": "address",
          "name": "sender",
          "type": "address"
        },
        {
          "internalType": "uint256",
          "name": "tokenId",
          "type": "uint256"
        },
        {
          "internalType": "address",
          "name": "owner",
          "type": "address"
        }
      ],
      "name": "ERC721IncorrectOwner",
      "type": "error"
    },
    {
      "inputs": [
        {
          "internalType": "address",
          "name": "operator",
          "type": "address"
        },
        {
          "internalType": "uint256",
          "name": "tokenId",
          "type": "uint256"
        }
      ],
      "name": "ERC721InsufficientApproval",
      "type": "error"
    },
    {
      "inputs": [
        {
          "internalType": "address",
          "name": "approver",
          "type": "address"
        }
      ],
      "name": "ERC721InvalidApprover",
      "type": "error"
    },
    {
      "inputs": [
        {
          "internalType": "address",
          "name": "operator",
          "type": "address"
        }
      ],
      "name": "ERC721InvalidOperator",
      "type": "error"
    },
    {
      "inputs": [
        {
          "internalType": "address",
          "name": "owner",
          "type": "address"
        }
      ],
      "name": "ERC721InvalidOwner",
      "type": "error"
    },
    {
      "inputs": [
        {
          "internalType": "address",
          "name": "receiver",
          "type": "address"
        }
      ],
      "name": "ERC721InvalidReceiver",
      "type": "error"
    },
    {
      "inputs": [
        {
          "internalType": "address",
          "name": "sender",
          "type": "address"
        }
      ],
      "name": "ERC721InvalidSender",
      "type": "error"
    },
    {
      "inputs": [
        {
          "internalType": "uint256",
          "name": "tokenId",
          "type": "uint256"
        }
      ],
      "name": "ERC721NonexistentToken",
      "type": "error"
    },
    {
      "anonymous": false,
      "inputs": [
        {
          "indexed": true,
          "internalType": "address",
          "name": "owner",
          "type": "address"
        },
        {
          "indexed": true,
          "internalType": "address",
          "name": "approved",
          "type": "address"
        },
        {
          "indexed": true,
          "internalType": "uint256",
          "name": "tokenId",
          "type": "uint256"
        }
      ],
      "name": "Approval",
      "type": "event"
    },
    {
      "anonymous": false,
      "inputs": [
        {
          "indexed": true,
          "internalType": "address",
          "name": "owner",
          "type": "address"
        },
        {
          "indexed": true,
          "internalType": "address",
          "name": "operator",
          "type": "address"
        },
        {
          "indexed": false,
          "internalType": "bool",
          "name": "approved",
          "type": "bool"
        }
      ],
      "name": "ApprovalForAll",
      "type": "event"
    },
    {
      "anonymous": false,
      "inputs": [
        {
          "indexed": false,
          "internalType": "uint256",
          "name": "_fromTokenId",
          "type": "uint256"
        },
        {
          "indexed": false,
          "internalType": "uint256",
          "name": "_toTokenId",
          "type": "uint256"
        }
      ],
      "name": "BatchMetadataUpdate",
      "type": "event"
    },
    {
      "anonymous": false,
      "inputs": [
        {
          "indexed": false,
          "internalType": "string",
          "name": "message",
          "type": "string"
        },
        {
          "indexed": false,
          "internalType": "uint256",
          "name": "tokenId",
          "type": "uint256"
        },
        {
          "indexed": false,
          "internalType": "address",
          "name": "user",
          "type": "address"
        }
      ],
      "name": "Debug",
      "type": "event"
    },
    {
      "anonymous": false,
      "inputs": [
        {
          "indexed": false,
          "internalType": "uint256",
          "name": "_tokenId",
          "type": "uint256"
        }
      ],
      "name": "MetadataUpdate",
      "type": "event"
    },
    {
      "anonymous": false,
      "inputs": [
        {
          "indexed": true,
          "internalType": "uint256",
          "name": "tokenId",
          "type": "uint256"
        },
        {
          "indexed": true,
          "internalType": "address",
          "name": "buyer",
          "type": "address"
        },
        {
          "indexed": false,
          "internalType": "uint256",
          "name": "price",
          "type": "uint256"
        }
      ],
      "name": "NFTBought",
      "type": "event"
    },
    {
      "anonymous": false,
      "inputs": [
        {
          "indexed": true,
          "internalType": "uint256",
          "name": "tokenId",
          "type": "uint256"
        },
        {
          "indexed": false,
          "internalType": "string",
          "name": "uri",
          "type": "string"
        }
      ],
      "name": "NFTCreated",
      "type": "event"
    },
    {
      "anonymous": false,
      "inputs": [
        {
          "indexed": true,
          "internalType": "uint256",
          "name": "tokenId",
          "type": "uint256"
        },
        {
          "indexed": false,
          "internalType": "uint256",
          "name": "price",
          "type": "uint256"
        },
        {
          "indexed": true,
          "internalType": "address",
          "name": "seller",
          "type": "address"
        }
      ],
      "name": "NFTListed",
      "type": "event"
    },
    {
      "anonymous": false,
      "inputs": [
        {
          "indexed": true,
          "internalType": "uint256",
          "name": "tokenId",
          "type": "uint256"
        },
        {
          "indexed": true,
          "internalType": "address",
          "name": "owner",
          "type": "address"
        }
      ],
      "name": "NFTUnlisted",
      "type": "event"
    },
    {
      "anonymous": false,
      "inputs": [
        {
          "indexed": true,
          "internalType": "address",
          "name": "from",
          "type": "address"
        },
        {
          "indexed": true,
          "internalType": "address",
          "name": "to",
          "type": "address"
        },
        {
          "indexed": true,
          "internalType": "uint256",
          "name": "tokenId",
          "type": "uint256"
        }
      ],
      "name": "Transfer",
      "type": "event"
    },
    {
      "inputs": [
        {
          "internalType": "uint256",
          "name": "",
          "type": "uint256"
        }
      ],
      "name": "Id_to_Idx",
      "outputs": [
        {
          "internalType": "uint256",
          "name": "",
          "type": "uint256"
        }
      ],
      "stateMutability": "view",
      "type": "function"
    },
    {
      "inputs": [
        {
          "internalType": "address",
          "name": "to",
          "type": "address"
        },
        {
          "internalType": "uint256",
          "name": "tokenId",
          "type": "uint256"
        }
      ],
      "name": "approve",
      "outputs": [],
      "stateMutability": "nonpayable",
      "type": "function"
    },
    {
      "inputs": [
        {
          "internalType": "address",
          "name": "owner",
          "type": "address"
        }
      ],
      "name": "balanceOf",
      "outputs": [
        {
          "internalType": "uint256",
          "name": "",
          "type": "uint256"
        }
      ],
      "stateMutability": "view",
      "type": "function"
    },
    {
      "inputs": [
        {
          "internalType": "uint256",
          "name": "tokenId",
          "type": "uint256"
        }
      ],
      "name": "buyNFT",
      "outputs": [],
      "stateMutability": "payable",
      "type": "function"
    },
    {
      "inputs": [
        {
          "internalType": "uint256",
          "name": "tokenId",
          "type": "uint256"
        }
      ],
      "name": "checkListing",
      "outputs": [
        {
          "internalType": "bool",
          "name": "",
          "type": "bool"
        }
      ],
      "stateMutability": "view",
      "type": "function"
    },
    {
      "inputs": [
        {
          "internalType": "string",
          "name": "uri",
          "type": "string"
        }
      ],
      "name": "createNFT",
      "outputs": [
        {
          "internalType": "uint256",
          "name": "",
          "type": "uint256"
        }
      ],
      "stateMutability": "nonpayable",
      "type": "function"
    },
    {
      "inputs": [
        {
          "internalType": "address",
          "name": "to",
          "type": "address"
        },
        {
          "internalType": "string",
          "name": "uri",
          "type": "string"
        },
        {
          "internalType": "address",
          "name": "seller",
          "type": "address"
        },
        {
          "internalType": "uint256",
          "name": "price",
          "type": "uint256"
        }
      ],
      "name": "createNFTandList",
      "outputs": [
        {
          "internalType": "uint256",
          "name": "",
          "type": "uint256"
        }
      ],
      "stateMutability": "nonpayable",
      "type": "function"
    },
    {
      "inputs": [],
      "name": "displayNFTS",
      "outputs": [
        {
          "components": [
            {
              "internalType": "uint256",
              "name": "_Id",
              "type": "uint256"
            },
            {
              "internalType": "uint256",
              "name": "price",
              "type": "uint256"
            },
            {
              "internalType": "address",
              "name": "seller",
              "type": "address"
            }
          ],
          "internalType": "struct NFT_Trade.ListedNFT[]",
          "name": "",
          "type": "tuple[]"
        }
      ],
      "stateMutability": "view",
      "type": "function"
    },
    {
      "inputs": [
        {
          "internalType": "uint256",
          "name": "tokenId",
          "type": "uint256"
        }
      ],
      "name": "getApproved",
      "outputs": [
        {
          "internalType": "address",
          "name": "",
          "type": "address"
        }
      ],
      "stateMutability": "view",
      "type": "function"
    },
    {
      "inputs": [
        {
          "internalType": "address",
          "name": "owner",
          "type": "address"
        },
        {
          "internalType": "address",
          "name": "operator",
          "type": "address"
        }
      ],
      "name": "isApprovedForAll",
      "outputs": [
        {
          "internalType": "bool",
          "name": "",
          "type": "bool"
        }
      ],
      "stateMutability": "view",
      "type": "function"
    },
    {
      "inputs": [
        {
          "internalType": "uint256",
          "name": "",
          "type": "uint256"
        }
      ],
      "name": "isListed",
      "outputs": [
        {
          "internalType": "bool",
          "name": "",
          "type": "bool"
        }
      ],
      "stateMutability": "view",
      "type": "function"
    },
    {
      "inputs": [
        {
          "internalType": "uint256",
          "name": "tokenId",
          "type": "uint256"
        },
        {
          "internalType": "uint256",
          "name": "price",
          "type": "uint256"
        }
      ],
      "name": "listNFT",
      "outputs": [],
      "stateMutability": "nonpayable",
      "type": "function"
    },
    {
      "inputs": [
        {
          "internalType": "uint256",
          "name": "",
          "type": "uint256"
        }
      ],
      "name": "listedproperties",
      "outputs": [
        {
          "internalType": "uint256",
          "name": "_Id",
          "type": "uint256"
        },
        {
          "internalType": "uint256",
          "name": "price",
          "type": "uint256"
        },
        {
          "internalType": "address",
          "name": "seller",
          "type": "address"
        }
      ],
      "stateMutability": "view",
      "type": "function"
    },
    {
      "inputs": [],
      "name": "name",
      "outputs": [
        {
          "internalType": "string",
          "name": "",
          "type": "string"
        }
      ],
      "stateMutability": "view",
      "type": "function"
    },
    {
      "inputs": [
        {
          "internalType": "uint256",
          "name": "tokenId",
          "type": "uint256"
        }
      ],
      "name": "ownerOf",
      "outputs": [
        {
          "internalType": "address",
          "name": "",
          "type": "address"
        }
      ],
      "stateMutability": "view",
      "type": "function"
    },
    {
      "inputs": [
        {
          "internalType": "address",
          "name": "from",
          "type": "address"
        },
        {
          "internalType": "address",
          "name": "to",
          "type": "address"
        },
        {
          "internalType": "uint256",
          "name": "tokenId",
          "type": "uint256"
        }
      ],
      "name": "safeTransferFrom",
      "outputs": [],
      "stateMutability": "nonpayable",
      "type": "function"
    },
    {
      "inputs": [
        {
          "internalType": "address",
          "name": "from",
          "type": "address"
        },
        {
          "internalType": "address",
          "name": "to",
          "type": "address"
        },
        {
          "internalType": "uint256",
          "name": "tokenId",
          "type": "uint256"
        },
        {
          "internalType": "bytes",
          "name": "data",
          "type": "bytes"
        }
      ],
      "name": "safeTransferFrom",
      "outputs": [],
      "stateMutability": "nonpayable",
      "type": "function"
    },
    {
      "inputs": [
        {
          "internalType": "address",
          "name": "operator",
          "type": "address"
        },
        {
          "internalType": "bool",
          "name": "approved",
          "type": "bool"
        }
      ],
      "name": "setApprovalForAll",
      "outputs": [],
      "stateMutability": "nonpayable",
      "type": "function"
    },
    {
      "inputs": [
        {
          "internalType": "bytes4",
          "name": "interfaceId",
          "type": "bytes4"
        }
      ],
      "name": "supportsInterface",
      "outputs": [
        {
          "internalType": "bool",
          "name": "",
          "type": "bool"
        }
      ],
      "stateMutability": "view",
      "type": "function"
    },
    {
      "inputs": [],
      "name": "symbol",
      "outputs": [
        {
          "internalType": "string",
          "name": "",
          "type": "string"
        }
      ],
      "stateMutability": "view",
      "type": "function"
    },
    {
      "inputs": [
        {
          "internalType": "uint256",
          "name": "tokenId",
          "type": "uint256"
        }
      ],
      "name": "tokenURI",
      "outputs": [
        {
          "internalType": "string",
          "name": "",
          "type": "string"
        }
      ],
      "stateMutability": "view",
      "type": "function"
    },
    {
      "inputs": [
        {
          "internalType": "address",
          "name": "from",
          "type": "address"
        },
        {
          "internalType": "address",
          "name": "to",
          "type": "address"
        },
        {
          "internalType": "uint256",
          "name": "tokenId",
          "type": "uint256"
        }
      ],
      "name": "transferFrom",
      "outputs": [],
      "stateMutability": "nonpayable",
      "type": "function"
    },
    {
      "inputs": [
        {
          "internalType": "uint256",
          "name": "tokenId",
          "type": "uint256"
        }
      ],
      "name": "unList",
      "outputs": [],
      "stateMutability": "nonpayable",
      "type": "function"
    },
    {
      "stateMutability": "payable",
      "type": "receive"
    }
  ],
  "bytecode": "0x608060405260006007553480156200001657600080fd5b506040518060400160405280600581526020017f41737365740000000000000000000000000000000000000000000000000000008152506040518060400160405280600281526020017f4154000000000000000000000000000000000000000000000000000000000000815250816000908162000094919062000329565b508060019081620000a6919062000329565b50505062000410565b600081519050919050565b7f4e487b7100000000000000000000000000000000000000000000000000000000600052604160045260246000fd5b7f4e487b7100000000000000000000000000000000000000000000000000000000600052602260045260246000fd5b600060028204905060018216806200013157607f821691505b602082108103620001475762000146620000e9565b5b50919050565b60008190508160005260206000209050919050565b60006020601f8301049050919050565b600082821b905092915050565b600060088302620001b17fffffffffffffffffffffffffffffffffffffffffffffffffffffffffffffffff8262000172565b620001bd868362000172565b95508019841693508086168417925050509392505050565b6000819050919050565b6000819050919050565b60006200020a62000204620001fe84620001d5565b620001df565b620001d5565b9050919050565b6000819050919050565b6200022683620001e9565b6200023e620002358262000211565b8484546200017f565b825550505050565b600090565b6200025562000246565b620002628184846200021b565b505050565b5b818110156200028a576200027e6000826200024b565b60018101905062000268565b5050565b601f821115620002d957620002a3816200014d565b620002ae8462000162565b81016020851015620002be578190505b620002d6620002cd8562000162565b83018262000267565b50505b505050565b600082821c905092915050565b6000620002fe60001984600802620002de565b1980831691505092915050565b6000620003198383620002eb565b9150826002028217905092915050565b6200033482620000af565b67ffffffffffffffff81111562000350576200034f620000ba565b5b6200035c825462000118565b620003698282856200028e565b600060209050601f831160018114620003a157600084156200038c578287015190505b6200039885826200030b565b86555062000408565b601f198416620003b1866200014d565b60005b82811015620003db57848901518255600182019150602085019450602081019050620003b4565b86831015620003fb5784890151620003f7601f891682620002eb565b8355505b6001600288020188555050505b505050505050565b613d4580620004206000396000f3fe6080604052600436106101445760003560e01c80635443b28a116100b6578063a22cb4651161006f578063a22cb465146104a4578063b88d4fde146104cd578063c87b56dd146104f6578063da2ed03e14610533578063e985e9c514610570578063fcce4883146105ad5761014b565b80635443b28a1461035c5780636352211e1461039957806370a08231146103d65780637d7e6a811461041357806394383f141461045057806395d89b41146104795761014b565b80631c6d365f116101085780631c6d365f146102475780631c93fa071461028657806323b872dd146102b15780633d3131da146102da57806342842e0e1461031757806351ed8288146103405761014b565b806301ffc9a71461015057806306fdde031461018d578063081812fc146101b8578063095ea7b3146101f55780630ff41c581461021e5761014b565b3661014b57005b600080fd5b34801561015c57600080fd5b506101776004803603810190610172919061287e565b6105ea565b60405161018491906128c6565b60405180910390f35b34801561019957600080fd5b506101a261064b565b6040516101af9190612971565b60405180910390f35b3480156101c457600080fd5b506101df60048036038101906101da91906129c9565b6106dd565b6040516101ec9190612a37565b60405180910390f35b34801561020157600080fd5b5061021c60048036038101906102179190612a7e565b6106f9565b005b34801561022a57600080fd5b50610245600480360381019061024091906129c9565b61070f565b005b34801561025357600080fd5b5061026e600480360381019061026991906129c9565b61099b565b60405161027d93929190612acd565b60405180910390f35b34801561029257600080fd5b5061029b6109f5565b6040516102a89190612c13565b60405180910390f35b3480156102bd57600080fd5b506102d860048036038101906102d39190612c35565b610c0b565b005b3480156102e657600080fd5b5061030160048036038101906102fc91906129c9565b610d0d565b60405161030e9190612c88565b60405180910390f35b34801561032357600080fd5b5061033e60048036038101906103399190612c35565b610d25565b005b61035a600480360381019061035591906129c9565b610d45565b005b34801561036857600080fd5b50610383600480360381019061037e91906129c9565b611155565b60405161039091906128c6565b60405180910390f35b3480156103a557600080fd5b506103c060048036038101906103bb91906129c9565b61117f565b6040516103cd9190612a37565b60405180910390f35b3480156103e257600080fd5b506103fd60048036038101906103f89190612ca3565b611191565b60405161040a9190612c88565b60405180910390f35b34801561041f57600080fd5b5061043a60048036038101906104359190612e05565b61124b565b6040516104479190612c88565b60405180910390f35b34801561045c57600080fd5b5061047760048036038101906104729190612e88565b611432565b005b34801561048557600080fd5b5061048e6115f1565b60405161049b9190612971565b60405180910390f35b3480156104b057600080fd5b506104cb60048036038101906104c69190612ef4565b611683565b005b3480156104d957600080fd5b506104f460048036038101906104ef9190612fd5565b611699565b005b34801561050257600080fd5b5061051d600480360381019061051891906129c9565b6116b6565b60405161052a9190612971565b60405180910390f35b34801561053f57600080fd5b5061055a60048036038101906105559190613058565b6117c9565b6040516105679190612c88565b60405180910390f35b34801561057c57600080fd5b50610597600480360381019061059291906130a1565b61183f565b6040516105a491906128c6565b60405180910390f35b3480156105b957600080fd5b506105d460048036038101906105cf91906129c9565b6118d3565b6040516105e191906128c6565b60405180910390f35b6000634906490660e01b7bffffffffffffffffffffffffffffffffffffffffffffffffffffffff1916827bffffffffffffffffffffffffffffffffffffffffffffffffffffffff191614806106445750610643826118f3565b5b9050919050565b60606000805461065a90613110565b80601f016020809104026020016040519081016040528092919081815260200182805461068690613110565b80156106d35780601f106106a8576101008083540402835291602001916106d3565b820191906000526020600020905b8154815290600101906020018083116106b657829003601f168201915b5050505050905090565b60006106e8826119d5565b506106f282611a5d565b9050919050565b61070b8282610706611a9a565b611aa2565b5050565b600a600082815260200190815260200160002060009054906101000a900460ff1661076f576040517f08c379a00000000000000000000000000000000000000000000000000000000081526004016107669061318d565b60405180910390fd5b3073ffffffffffffffffffffffffffffffffffffffff1661078f8261117f565b73ffffffffffffffffffffffffffffffffffffffff16146107e5576040517f08c379a00000000000000000000000000000000000000000000000000000000081526004016107dc906131f9565b60405180910390fd5b3373ffffffffffffffffffffffffffffffffffffffff16600860096000848152602001908152602001600020548154811061082357610822613219565b5b906000526020600020906003020160020160009054906101000a900473ffffffffffffffffffffffffffffffffffffffff1673ffffffffffffffffffffffffffffffffffffffff16146108ab576040517f08c379a00000000000000000000000000000000000000000000000000000000081526004016108a290613294565b60405180910390fd5b7f8af0d0767d4ae6d4d13237cb68f8cf87c8bd1962628f5dbd6c696c6e9f185f2681336040516108dc929190613300565b60405180910390a16000600a600083815260200190815260200160002060006101000a81548160ff02191690831515021790555061091b303383610c0b565b7f8af0d0767d4ae6d4d13237cb68f8cf87c8bd1962628f5dbd6c696c6e9f185f26813360405161094c929190613388565b60405180910390a13373ffffffffffffffffffffffffffffffffffffffff16817fb765e971c123cbdac007f49987b1aac638149f995ba62034fc509604cac5f01e60405160405180910390a350565b600881815481106109ab57600080fd5b90600052602060002090600302016000915090508060000154908060010154908060020160009054906101000a900473ffffffffffffffffffffffffffffffffffffffff16905083565b60606000805b600880549050811015610a755760011515600a600060088481548110610a2457610a23613219565b5b906000526020600020906003020160000154815260200190815260200160002060009054906101000a900460ff16151503610a68578180610a64906133f3565b9250505b80806001019150506109fb565b5060008167ffffffffffffffff811115610a9257610a91612cda565b5b604051908082528060200260200182016040528015610acb57816020015b610ab86127db565b815260200190600190039081610ab05790505b5090506000805b600880549050811015610c015760011515600a600060088481548110610afb57610afa613219565b5b906000526020600020906003020160000154815260200190815260200160002060009054906101000a900460ff16151503610bf45760088181548110610b4457610b43613219565b5b906000526020600020906003020160405180606001604052908160008201548152602001600182015481526020016002820160009054906101000a900473ffffffffffffffffffffffffffffffffffffffff1673ffffffffffffffffffffffffffffffffffffffff1673ffffffffffffffffffffffffffffffffffffffff1681525050838381518110610bda57610bd9613219565b5b60200260200101819052508180610bf0906133f3565b9250505b8080600101915050610ad2565b5081935050505090565b600073ffffffffffffffffffffffffffffffffffffffff168273ffffffffffffffffffffffffffffffffffffffff1603610c7d5760006040517f64a0ae92000000000000000000000000000000000000000000000000000000008152600401610c749190612a37565b60405180910390fd5b6000610c918383610c8c611a9a565b611ab4565b90508373ffffffffffffffffffffffffffffffffffffffff168173ffffffffffffffffffffffffffffffffffffffff1614610d07578382826040517f64283d7b000000000000000000000000000000000000000000000000000000008152600401610cfe9392919061343b565b60405180910390fd5b50505050565b60096020528060005260406000206000915090505481565b610d4083838360405180602001604052806000815250611699565b505050565b600060096000838152602001908152602001600020549050600060088281548110610d7357610d72613219565b5b906000526020600020906003020160405180606001604052908160008201548152602001600182015481526020016002820160009054906101000a900473ffffffffffffffffffffffffffffffffffffffff1673ffffffffffffffffffffffffffffffffffffffff1673ffffffffffffffffffffffffffffffffffffffff1681525050905060011515600a600085815260200190815260200160002060009054906101000a900460ff16151514610e5f576040517f08c379a0000000000000000000000000000000000000000000000000000000008152600401610e56906134be565b60405180910390fd5b3373ffffffffffffffffffffffffffffffffffffffff16816040015173ffffffffffffffffffffffffffffffffffffffff1603610ed1576040517f08c379a0000000000000000000000000000000000000000000000000000000008152600401610ec890613550565b60405180910390fd5b8060200151341015610f18576040517f08c379a0000000000000000000000000000000000000000000000000000000008152600401610f0f906135bc565b60405180910390fd5b3073ffffffffffffffffffffffffffffffffffffffff16610f38846106dd565b73ffffffffffffffffffffffffffffffffffffffff161480610f645750610f6381604001513061183f565b5b610fa3576040517f08c379a0000000000000000000000000000000000000000000000000000000008152600401610f9a9061364e565b60405180910390fd5b7f8af0d0767d4ae6d4d13237cb68f8cf87c8bd1962628f5dbd6c696c6e9f185f268333604051610fd49291906136ba565b60405180910390a16000816040015173ffffffffffffffffffffffffffffffffffffffff163460405161100690613727565b60006040518083038185875af1925050503d8060008114611043576040519150601f19603f3d011682016040523d82523d6000602084013e611048565b606091505b505090508061108c576040517f08c379a000000000000000000000000000000000000000000000000000000000815260040161108390613788565b60405180910390fd5b7f8af0d0767d4ae6d4d13237cb68f8cf87c8bd1962628f5dbd6c696c6e9f185f2684336040516110bd9291906137f4565b60405180910390a16110d0303386610c0b565b6000600a600086815260200190815260200160002060006101000a81548160ff0219169083151502179055503373ffffffffffffffffffffffffffffffffffffffff16847f26701af1547d690b8c46ed5f0fbb8d5b115492b3b898f3dfc2e87b26cfcc1b1484602001516040516111479190612c88565b60405180910390a350505050565b6000600a600083815260200190815260200160002060009054906101000a900460ff169050919050565b600061118a826119d5565b9050919050565b60008073ffffffffffffffffffffffffffffffffffffffff168273ffffffffffffffffffffffffffffffffffffffff16036112045760006040517f89c62b640000000000000000000000000000000000000000000000000000000081526004016111fb9190612a37565b60405180910390fd5b600360008373ffffffffffffffffffffffffffffffffffffffff1673ffffffffffffffffffffffffffffffffffffffff168152602001908152602001600020549050919050565b600060076000815480929190611260906133f3565b9190505550600060075490506112768682611cce565b6112808186611dc7565b600083116112c3576040517f08c379a00000000000000000000000000000000000000000000000000000000081526004016112ba906138a2565b60405180910390fd5b600060405180606001604052808381526020018581526020018673ffffffffffffffffffffffffffffffffffffffff1681525090506008819080600181540180825580915050600190039060005260206000209060030201600090919091909150600082015181600001556020820151816001015560408201518160020160006101000a81548173ffffffffffffffffffffffffffffffffffffffff021916908373ffffffffffffffffffffffffffffffffffffffff1602179055505050600160088054905061139391906138c2565b60096000848152602001908152602001600020819055506001600a600084815260200190815260200160002060006101000a81548160ff0219169083151502179055508473ffffffffffffffffffffffffffffffffffffffff16827fd2ab19646d6f9fdd37206f962b4ebaab8a4a23ad87f7695e7e1736803cb8bf748660405161141d9190612c88565b60405180910390a38192505050949350505050565b60008111611475576040517f08c379a000000000000000000000000000000000000000000000000000000000815260040161146c906138a2565b60405180910390fd5b61147f30836106f9565b61148a333084610c0b565b600060405180606001604052808481526020018381526020013373ffffffffffffffffffffffffffffffffffffffff1681525090506008819080600181540180825580915050600190039060005260206000209060030201600090919091909150600082015181600001556020820151816001015560408201518160020160006101000a81548173ffffffffffffffffffffffffffffffffffffffff021916908373ffffffffffffffffffffffffffffffffffffffff1602179055505050600160088054905061155a91906138c2565b60096000858152602001908152602001600020819055506001600a600085815260200190815260200160002060006101000a81548160ff0219169083151502179055503373ffffffffffffffffffffffffffffffffffffffff16837fd2ab19646d6f9fdd37206f962b4ebaab8a4a23ad87f7695e7e1736803cb8bf74846040516115e49190612c88565b60405180910390a3505050565b60606001805461160090613110565b80601f016020809104026020016040519081016040528092919081815260200182805461162c90613110565b80156116795780601f1061164e57610100808354040283529160200191611679565b820191906000526020600020905b81548152906001019060200180831161165c57829003601f168201915b5050505050905090565b61169561168e611a9a565b8383611e23565b5050565b6116a4848484610c0b565b6116b084848484611f92565b50505050565b60606116c1826119d5565b5060006006600084815260200190815260200160002080546116e290613110565b80601f016020809104026020016040519081016040528092919081815260200182805461170e90613110565b801561175b5780601f106117305761010080835404028352916020019161175b565b820191906000526020600020905b81548152906001019060200180831161173e57829003601f168201915b50505050509050600061176c612149565b905060008151036117815781925050506117c4565b6000825111156117b657808260405160200161179e929190613932565b604051602081830303815290604052925050506117c4565b6117bf84612160565b925050505b919050565b6000600760008154809291906117de906133f3565b9190505550600060075490506117f43382611cce565b6117fe8184611dc7565b807fe883eeefa7f620d513eac93479fc9f54ce03f9f4a72c0d818311a9d19556e8798460405161182e9190612971565b60405180910390a280915050919050565b6000600560008473ffffffffffffffffffffffffffffffffffffffff1673ffffffffffffffffffffffffffffffffffffffff16815260200190815260200160002060008373ffffffffffffffffffffffffffffffffffffffff1673ffffffffffffffffffffffffffffffffffffffff16815260200190815260200160002060009054906101000a900460ff16905092915050565b600a6020528060005260406000206000915054906101000a900460ff1681565b60007f80ac58cd000000000000000000000000000000000000000000000000000000007bffffffffffffffffffffffffffffffffffffffffffffffffffffffff1916827bffffffffffffffffffffffffffffffffffffffffffffffffffffffff191614806119be57507f5b5e139f000000000000000000000000000000000000000000000000000000007bffffffffffffffffffffffffffffffffffffffffffffffffffffffff1916827bffffffffffffffffffffffffffffffffffffffffffffffffffffffff1916145b806119ce57506119cd826121c9565b5b9050919050565b6000806119e183612233565b9050600073ffffffffffffffffffffffffffffffffffffffff168173ffffffffffffffffffffffffffffffffffffffff1603611a5457826040517f7e273289000000000000000000000000000000000000000000000000000000008152600401611a4b9190612c88565b60405180910390fd5b80915050919050565b60006004600083815260200190815260200160002060009054906101000a900473ffffffffffffffffffffffffffffffffffffffff169050919050565b600033905090565b611aaf8383836001612270565b505050565b600080611ac084612233565b9050600073ffffffffffffffffffffffffffffffffffffffff168373ffffffffffffffffffffffffffffffffffffffff1614611b0257611b01818486612435565b5b600073ffffffffffffffffffffffffffffffffffffffff168173ffffffffffffffffffffffffffffffffffffffff1614611b9357611b44600085600080612270565b6001600360008373ffffffffffffffffffffffffffffffffffffffff1673ffffffffffffffffffffffffffffffffffffffff168152602001908152602001600020600082825403925050819055505b600073ffffffffffffffffffffffffffffffffffffffff168573ffffffffffffffffffffffffffffffffffffffff1614611c16576001600360008773ffffffffffffffffffffffffffffffffffffffff1673ffffffffffffffffffffffffffffffffffffffff168152602001908152602001600020600082825401925050819055505b846002600086815260200190815260200160002060006101000a81548173ffffffffffffffffffffffffffffffffffffffff021916908373ffffffffffffffffffffffffffffffffffffffff160217905550838573ffffffffffffffffffffffffffffffffffffffff168273ffffffffffffffffffffffffffffffffffffffff167fddf252ad1be2c89b69c2b068fc378daa952ba7f163c4a11628f55a4df523b3ef60405160405180910390a4809150509392505050565b600073ffffffffffffffffffffffffffffffffffffffff168273ffffffffffffffffffffffffffffffffffffffff1603611d405760006040517f64a0ae92000000000000000000000000000000000000000000000000000000008152600401611d379190612a37565b60405180910390fd5b6000611d4e83836000611ab4565b9050600073ffffffffffffffffffffffffffffffffffffffff168173ffffffffffffffffffffffffffffffffffffffff1614611dc25760006040517f73c6ac6e000000000000000000000000000000000000000000000000000000008152600401611db99190612a37565b60405180910390fd5b505050565b80600660008481526020019081526020016000209081611de79190613b02565b507ff8e1a15aba9398e019f0b49df1a4fde98ee17ae345cb5f6b5e2c27f5033e8ce782604051611e179190612c88565b60405180910390a15050565b600073ffffffffffffffffffffffffffffffffffffffff168273ffffffffffffffffffffffffffffffffffffffff1603611e9457816040517f5b08ba18000000000000000000000000000000000000000000000000000000008152600401611e8b9190612a37565b60405180910390fd5b80600560008573ffffffffffffffffffffffffffffffffffffffff1673ffffffffffffffffffffffffffffffffffffffff16815260200190815260200160002060008473ffffffffffffffffffffffffffffffffffffffff1673ffffffffffffffffffffffffffffffffffffffff16815260200190815260200160002060006101000a81548160ff0219169083151502179055508173ffffffffffffffffffffffffffffffffffffffff168373ffffffffffffffffffffffffffffffffffffffff167f17307eab39ab6107e8899845ad3d59bd9653f200f220920489ca2b5937696c3183604051611f8591906128c6565b60405180910390a3505050565b60008373ffffffffffffffffffffffffffffffffffffffff163b1115612143578273ffffffffffffffffffffffffffffffffffffffff1663150b7a02611fd6611a9a565b8685856040518563ffffffff1660e01b8152600401611ff89493929190613c29565b6020604051808303816000875af192505050801561203457506040513d601f19601f820116820180604052508101906120319190613c8a565b60015b6120b8573d8060008114612064576040519150601f19603f3d011682016040523d82523d6000602084013e612069565b606091505b5060008151036120b057836040517f64a0ae920000000000000000000000000000000000000000000000000000000081526004016120a79190612a37565b60405180910390fd5b805181602001fd5b63150b7a0260e01b7bffffffffffffffffffffffffffffffffffffffffffffffffffffffff1916817bffffffffffffffffffffffffffffffffffffffffffffffffffffffff19161461214157836040517f64a0ae920000000000000000000000000000000000000000000000000000000081526004016121389190612a37565b60405180910390fd5b505b50505050565b606060405180602001604052806000815250905090565b606061216b826119d5565b506000612176612149565b9050600081511161219657604051806020016040528060008152506121c1565b806121a0846124f9565b6040516020016121b1929190613932565b6040516020818303038152906040525b915050919050565b60007f01ffc9a7000000000000000000000000000000000000000000000000000000007bffffffffffffffffffffffffffffffffffffffffffffffffffffffff1916827bffffffffffffffffffffffffffffffffffffffffffffffffffffffff1916149050919050565b60006002600083815260200190815260200160002060009054906101000a900473ffffffffffffffffffffffffffffffffffffffff169050919050565b80806122a95750600073ffffffffffffffffffffffffffffffffffffffff168273ffffffffffffffffffffffffffffffffffffffff1614155b156123dd5760006122b9846119d5565b9050600073ffffffffffffffffffffffffffffffffffffffff168373ffffffffffffffffffffffffffffffffffffffff161415801561232457508273ffffffffffffffffffffffffffffffffffffffff168173ffffffffffffffffffffffffffffffffffffffff1614155b80156123375750612335818461183f565b155b1561237957826040517fa9fbf51f0000000000000000000000000000000000000000000000000000000081526004016123709190612a37565b60405180910390fd5b81156123db57838573ffffffffffffffffffffffffffffffffffffffff168273ffffffffffffffffffffffffffffffffffffffff167f8c5be1e5ebec7d5bd14f71427d1e84f3dd0314c0f7b2291e5b200ac8c7c3b92560405160405180910390a45b505b836004600085815260200190815260200160002060006101000a81548173ffffffffffffffffffffffffffffffffffffffff021916908373ffffffffffffffffffffffffffffffffffffffff16021790555050505050565b6124408383836125c7565b6124f457600073ffffffffffffffffffffffffffffffffffffffff168373ffffffffffffffffffffffffffffffffffffffff16036124b557806040517f7e2732890000000000000000000000000000000000000000000000000000000081526004016124ac9190612c88565b60405180910390fd5b81816040517f177e802f0000000000000000000000000000000000000000000000000000000081526004016124eb929190613cb7565b60405180910390fd5b505050565b60606000600161250884612688565b01905060008167ffffffffffffffff81111561252757612526612cda565b5b6040519080825280601f01601f1916602001820160405280156125595781602001600182028036833780820191505090505b509050600082602001820190505b6001156125bc578080600190039150507f3031323334353637383961626364656600000000000000000000000000000000600a86061a8153600a85816125b0576125af613ce0565b5b04945060008503612567575b819350505050919050565b60008073ffffffffffffffffffffffffffffffffffffffff168373ffffffffffffffffffffffffffffffffffffffff161415801561267f57508273ffffffffffffffffffffffffffffffffffffffff168473ffffffffffffffffffffffffffffffffffffffff161480612640575061263f848461183f565b5b8061267e57508273ffffffffffffffffffffffffffffffffffffffff1661266683611a5d565b73ffffffffffffffffffffffffffffffffffffffff16145b5b90509392505050565b600080600090507a184f03e93ff9f4daa797ed6e38ed64bf6a1f01000000000000000083106126e6577a184f03e93ff9f4daa797ed6e38ed64bf6a1f01000000000000000083816126dc576126db613ce0565b5b0492506040810190505b6d04ee2d6d415b85acef81000000008310612723576d04ee2d6d415b85acef8100000000838161271957612718613ce0565b5b0492506020810190505b662386f26fc10000831061275257662386f26fc10000838161274857612747613ce0565b5b0492506010810190505b6305f5e100831061277b576305f5e100838161277157612770613ce0565b5b0492506008810190505b61271083106127a057612710838161279657612795613ce0565b5b0492506004810190505b606483106127c357606483816127b9576127b8613ce0565b5b0492506002810190505b600a83106127d2576001810190505b80915050919050565b60405180606001604052806000815260200160008152602001600073ffffffffffffffffffffffffffffffffffffffff1681525090565b6000604051905090565b600080fd5b600080fd5b60007fffffffff0000000000000000000000000000000000000000000000000000000082169050919050565b61285b81612826565b811461286657600080fd5b50565b60008135905061287881612852565b92915050565b6000602082840312156128945761289361281c565b5b60006128a284828501612869565b91505092915050565b60008115159050919050565b6128c0816128ab565b82525050565b60006020820190506128db60008301846128b7565b92915050565b600081519050919050565b600082825260208201905092915050565b60005b8381101561291b578082015181840152602081019050612900565b60008484015250505050565b6000601f19601f8301169050919050565b6000612943826128e1565b61294d81856128ec565b935061295d8185602086016128fd565b61296681612927565b840191505092915050565b6000602082019050818103600083015261298b8184612938565b905092915050565b6000819050919050565b6129a681612993565b81146129b157600080fd5b50565b6000813590506129c38161299d565b92915050565b6000602082840312156129df576129de61281c565b5b60006129ed848285016129b4565b91505092915050565b600073ffffffffffffffffffffffffffffffffffffffff82169050919050565b6000612a21826129f6565b9050919050565b612a3181612a16565b82525050565b6000602082019050612a4c6000830184612a28565b92915050565b612a5b81612a16565b8114612a6657600080fd5b50565b600081359050612a7881612a52565b92915050565b60008060408385031215612a9557612a9461281c565b5b6000612aa385828601612a69565b9250506020612ab4858286016129b4565b9150509250929050565b612ac781612993565b82525050565b6000606082019050612ae26000830186612abe565b612aef6020830185612abe565b612afc6040830184612a28565b949350505050565b600081519050919050565b600082825260208201905092915050565b6000819050602082019050919050565b612b3981612993565b82525050565b612b4881612a16565b82525050565b606082016000820151612b646000850182612b30565b506020820151612b776020850182612b30565b506040820151612b8a6040850182612b3f565b50505050565b6000612b9c8383612b4e565b60608301905092915050565b6000602082019050919050565b6000612bc082612b04565b612bca8185612b0f565b9350612bd583612b20565b8060005b83811015612c06578151612bed8882612b90565b9750612bf883612ba8565b925050600181019050612bd9565b5085935050505092915050565b60006020820190508181036000830152612c2d8184612bb5565b905092915050565b600080600060608486031215612c4e57612c4d61281c565b5b6000612c5c86828701612a69565b9350506020612c6d86828701612a69565b9250506040612c7e868287016129b4565b9150509250925092565b6000602082019050612c9d6000830184612abe565b92915050565b600060208284031215612cb957612cb861281c565b5b6000612cc784828501612a69565b91505092915050565b600080fd5b600080fd5b7f4e487b7100000000000000000000000000000000000000000000000000000000600052604160045260246000fd5b612d1282612927565b810181811067ffffffffffffffff82111715612d3157612d30612cda565b5b80604052505050565b6000612d44612812565b9050612d508282612d09565b919050565b600067ffffffffffffffff821115612d7057612d6f612cda565b5b612d7982612927565b9050602081019050919050565b82818337600083830152505050565b6000612da8612da384612d55565b612d3a565b905082815260208101848484011115612dc457612dc3612cd5565b5b612dcf848285612d86565b509392505050565b600082601f830112612dec57612deb612cd0565b5b8135612dfc848260208601612d95565b91505092915050565b60008060008060808587031215612e1f57612e1e61281c565b5b6000612e2d87828801612a69565b945050602085013567ffffffffffffffff811115612e4e57612e4d612821565b5b612e5a87828801612dd7565b9350506040612e6b87828801612a69565b9250506060612e7c878288016129b4565b91505092959194509250565b60008060408385031215612e9f57612e9e61281c565b5b6000612ead858286016129b4565b9250506020612ebe858286016129b4565b9150509250929050565b612ed1816128ab565b8114612edc57600080fd5b50565b600081359050612eee81612ec8565b92915050565b60008060408385031215612f0b57612f0a61281c565b5b6000612f1985828601612a69565b9250506020612f2a85828601612edf565b9150509250929050565b600067ffffffffffffffff821115612f4f57612f4e612cda565b5b612f5882612927565b9050602081019050919050565b6000612f78612f7384612f34565b612d3a565b905082815260208101848484011115612f9457612f93612cd5565b5b612f9f848285612d86565b509392505050565b600082601f830112612fbc57612fbb612cd0565b5b8135612fcc848260208601612f65565b91505092915050565b60008060008060808587031215612fef57612fee61281c565b5b6000612ffd87828801612a69565b945050602061300e87828801612a69565b935050604061301f878288016129b4565b925050606085013567ffffffffffffffff8111156130405761303f612821565b5b61304c87828801612fa7565b91505092959194509250565b60006020828403121561306e5761306d61281c565b5b600082013567ffffffffffffffff81111561308c5761308b612821565b5b61309884828501612dd7565b91505092915050565b600080604083850312156130b8576130b761281c565b5b60006130c685828601612a69565b92505060206130d785828601612a69565b9150509250929050565b7f4e487b7100000000000000000000000000000000000000000000000000000000600052602260045260246000fd5b6000600282049050600182168061312857607f821691505b60208210810361313b5761313a6130e1565b5b50919050565b7f4e4654206973206e6f74206c6973746564000000000000000000000000000000600082015250565b60006131776011836128ec565b915061318282613141565b602082019050919050565b600060208201905081810360008301526131a68161316a565b9050919050565b7f436f6e747261637420646f6573206e6f74206f776e2074686973204e46540000600082015250565b60006131e3601e836128ec565b91506131ee826131ad565b602082019050919050565b60006020820190508181036000830152613212816131d6565b9050919050565b7f4e487b7100000000000000000000000000000000000000000000000000000000600052603260045260246000fd5b7f43616c6c6572206973206e6f74207468652073656c6c65720000000000000000600082015250565b600061327e6018836128ec565b915061328982613248565b602082019050919050565b600060208201905081810360008301526132ad81613271565b9050919050565b7f4265666f726520556e6c697374696e6700000000000000000000000000000000600082015250565b60006132ea6010836128ec565b91506132f5826132b4565b602082019050919050565b60006060820190508181036000830152613319816132dd565b90506133286020830185612abe565b6133356040830184612a28565b9392505050565b7f416674657220556e6c697374696e670000000000000000000000000000000000600082015250565b6000613372600f836128ec565b915061337d8261333c565b602082019050919050565b600060608201905081810360008301526133a181613365565b90506133b06020830185612abe565b6133bd6040830184612a28565b9392505050565b7f4e487b7100000000000000000000000000000000000000000000000000000000600052601160045260246000fd5b60006133fe82612993565b91507fffffffffffffffffffffffffffffffffffffffffffffffffffffffffffffffff82036134305761342f6133c4565b5b600182019050919050565b60006060820190506134506000830186612a28565b61345d6020830185612abe565b61346a6040830184612a28565b949350505050565b7f50726f7065727479206973206e6f74206c697374656400000000000000000000600082015250565b60006134a86016836128ec565b91506134b382613472565b602082019050919050565b600060208201905081810360008301526134d78161349b565b9050919050565b7f596f752063616e6e6f742062757920796f7572206f776e206c6973746564207060008201527f726f706572747900000000000000000000000000000000000000000000000000602082015250565b600061353a6027836128ec565b9150613545826134de565b604082019050919050565b600060208201905081810360008301526135698161352d565b9050919050565b7f416d6f756e74206e6f7420656e6f756768000000000000000000000000000000600082015250565b60006135a66011836128ec565b91506135b182613570565b602082019050919050565b600060208201905081810360008301526135d581613599565b9050919050565b7f436f6e7472616374206973206e6f7420617070726f76656420746f207472616e60008201527f736665722074686973204e465400000000000000000000000000000000000000602082015250565b6000613638602d836128ec565b9150613643826135dc565b604082019050919050565b600060208201905081810360008301526136678161362b565b9050919050565b7f4265666f7265205061796d656e74000000000000000000000000000000000000600082015250565b60006136a4600e836128ec565b91506136af8261366e565b602082019050919050565b600060608201905081810360008301526136d381613697565b90506136e26020830185612abe565b6136ef6040830184612a28565b9392505050565b600081905092915050565b50565b60006137116000836136f6565b915061371c82613701565b600082019050919050565b600061373282613704565b9150819050919050565b7f5472616e73616374696f6e206661696c65642100000000000000000000000000600082015250565b60006137726013836128ec565b915061377d8261373c565b602082019050919050565b600060208201905081810360008301526137a181613765565b9050919050565b7f4166746572205061796d656e7400000000000000000000000000000000000000600082015250565b60006137de600d836128ec565b91506137e9826137a8565b602082019050919050565b6000606082019050818103600083015261380d816137d1565b905061381c6020830185612abe565b6138296040830184612a28565b9392505050565b7f4e4654732070726963652073686f756c6420626520677265617465722074686160008201527f6e20300000000000000000000000000000000000000000000000000000000000602082015250565b600061388c6023836128ec565b915061389782613830565b604082019050919050565b600060208201905081810360008301526138bb8161387f565b9050919050565b60006138cd82612993565b91506138d883612993565b92508282039050818111156138f0576138ef6133c4565b5b92915050565b600081905092915050565b600061390c826128e1565b61391681856138f6565b93506139268185602086016128fd565b80840191505092915050565b600061393e8285613901565b915061394a8284613901565b91508190509392505050565b60008190508160005260206000209050919050565b60006020601f8301049050919050565b600082821b905092915050565b6000600883026139b87fffffffffffffffffffffffffffffffffffffffffffffffffffffffffffffffff8261397b565b6139c2868361397b565b95508019841693508086168417925050509392505050565b6000819050919050565b60006139ff6139fa6139f584612993565b6139da565b612993565b9050919050565b6000819050919050565b613a19836139e4565b613a2d613a2582613a06565b848454613988565b825550505050565b600090565b613a42613a35565b613a4d818484613a10565b505050565b5b81811015613a7157613a66600082613a3a565b600181019050613a53565b5050565b601f821115613ab657613a8781613956565b613a908461396b565b81016020851015613a9f578190505b613ab3613aab8561396b565b830182613a52565b50505b505050565b600082821c905092915050565b6000613ad960001984600802613abb565b1980831691505092915050565b6000613af28383613ac8565b9150826002028217905092915050565b613b0b826128e1565b67ffffffffffffffff811115613b2457613b23612cda565b5b613b2e8254613110565b613b39828285613a75565b600060209050601f831160018114613b6c5760008415613b5a578287015190505b613b648582613ae6565b865550613bcc565b601f198416613b7a86613956565b60005b82811015613ba257848901518255600182019150602085019450602081019050613b7d565b86831015613bbf5784890151613bbb601f891682613ac8565b8355505b6001600288020188555050505b505050505050565b600081519050919050565b600082825260208201905092915050565b6000613bfb82613bd4565b613c058185613bdf565b9350613c158185602086016128fd565b613c1e81612927565b840191505092915050565b6000608082019050613c3e6000830187612a28565b613c4b6020830186612a28565b613c586040830185612abe565b8181036060830152613c6a8184613bf0565b905095945050505050565b600081519050613c8481612852565b92915050565b600060208284031215613ca057613c9f61281c565b5b6000613cae84828501613c75565b91505092915050565b6000604082019050613ccc6000830185612a28565b613cd96020830184612abe565b9392505050565b7f4e487b7100000000000000000000000000000000000000000000000000000000600052601260045260246000fdfea2646970667358221220c8a75ef4fc1e6d672efe9956faf7f588df72620d35b656666a051093711d644864736f6c63430008180033",
  "linkReferences": {},
  "deployedLinkReferences": {}
}