{
  "_format": "hh-sol-artifact-1",
  "contractName": "NFT_Trade",
  "sourceName": "contracts/NFT_Trade.sol",
  "abi": [
    {
      "inputs": [],
      "stateMutability": "nonpayable",
      "type": "constructor"
    },
    {
      "inputs": [
        {
          "internalType": "address",
          "name": "sender",
          "type": "address"
        },
        {
          "internalType": "uint256",
          "name": "tokenId",
          "type": "uint256"
        },
        {
          "internalType": "address",
          "name": "owner",
          "type": "address"
        }
      ],
      "name": "ERC721IncorrectOwner",
      "type": "error"
    },
    {
      "inputs": [
        {
          "internalType": "address",
          "name": "operator",
          "type": "address"
        },
        {
          "internalType": "uint256",
          "name": "tokenId",
          "type": "uint256"
        }
      ],
      "name": "ERC721InsufficientApproval",
      "type": "error"
    },
    {
      "inputs": [
        {
          "internalType": "address",
          "name": "approver",
          "type": "address"
        }
      ],
      "name": "ERC721InvalidApprover",
      "type": "error"
    },
    {
      "inputs": [
        {
          "internalType": "address",
          "name": "operator",
          "type": "address"
        }
      ],
      "name": "ERC721InvalidOperator",
      "type": "error"
    },
    {
      "inputs": [
        {
          "internalType": "address",
          "name": "owner",
          "type": "address"
        }
      ],
      "name": "ERC721InvalidOwner",
      "type": "error"
    },
    {
      "inputs": [
        {
          "internalType": "address",
          "name": "receiver",
          "type": "address"
        }
      ],
      "name": "ERC721InvalidReceiver",
      "type": "error"
    },
    {
      "inputs": [
        {
          "internalType": "address",
          "name": "sender",
          "type": "address"
        }
      ],
      "name": "ERC721InvalidSender",
      "type": "error"
    },
    {
      "inputs": [
        {
          "internalType": "uint256",
          "name": "tokenId",
          "type": "uint256"
        }
      ],
      "name": "ERC721NonexistentToken",
      "type": "error"
    },
    {
      "anonymous": false,
      "inputs": [
        {
          "indexed": true,
          "internalType": "address",
          "name": "owner",
          "type": "address"
        },
        {
          "indexed": true,
          "internalType": "address",
          "name": "approved",
          "type": "address"
        },
        {
          "indexed": true,
          "internalType": "uint256",
          "name": "tokenId",
          "type": "uint256"
        }
      ],
      "name": "Approval",
      "type": "event"
    },
    {
      "anonymous": false,
      "inputs": [
        {
          "indexed": true,
          "internalType": "address",
          "name": "owner",
          "type": "address"
        },
        {
          "indexed": true,
          "internalType": "address",
          "name": "operator",
          "type": "address"
        },
        {
          "indexed": false,
          "internalType": "bool",
          "name": "approved",
          "type": "bool"
        }
      ],
      "name": "ApprovalForAll",
      "type": "event"
    },
    {
      "anonymous": false,
      "inputs": [
        {
          "indexed": false,
          "internalType": "uint256",
          "name": "_fromTokenId",
          "type": "uint256"
        },
        {
          "indexed": false,
          "internalType": "uint256",
          "name": "_toTokenId",
          "type": "uint256"
        }
      ],
      "name": "BatchMetadataUpdate",
      "type": "event"
    },
    {
      "anonymous": false,
      "inputs": [
        {
          "indexed": false,
          "internalType": "uint256",
          "name": "_tokenId",
          "type": "uint256"
        }
      ],
      "name": "MetadataUpdate",
      "type": "event"
    },
    {
      "anonymous": false,
      "inputs": [
        {
          "indexed": true,
          "internalType": "address",
          "name": "from",
          "type": "address"
        },
        {
          "indexed": true,
          "internalType": "address",
          "name": "to",
          "type": "address"
        },
        {
          "indexed": true,
          "internalType": "uint256",
          "name": "tokenId",
          "type": "uint256"
        }
      ],
      "name": "Transfer",
      "type": "event"
    },
    {
      "inputs": [
        {
          "internalType": "uint256",
          "name": "",
          "type": "uint256"
        }
      ],
      "name": "Id_to_Idx",
      "outputs": [
        {
          "internalType": "uint256",
          "name": "",
          "type": "uint256"
        }
      ],
      "stateMutability": "view",
      "type": "function"
    },
    {
      "inputs": [
        {
          "internalType": "address",
          "name": "to",
          "type": "address"
        },
        {
          "internalType": "uint256",
          "name": "tokenId",
          "type": "uint256"
        }
      ],
      "name": "approve",
      "outputs": [],
      "stateMutability": "nonpayable",
      "type": "function"
    },
    {
      "inputs": [
        {
          "internalType": "address",
          "name": "owner",
          "type": "address"
        }
      ],
      "name": "balanceOf",
      "outputs": [
        {
          "internalType": "uint256",
          "name": "",
          "type": "uint256"
        }
      ],
      "stateMutability": "view",
      "type": "function"
    },
    {
      "inputs": [
        {
          "internalType": "uint256",
          "name": "tokenId",
          "type": "uint256"
        }
      ],
      "name": "buyNFT",
      "outputs": [],
      "stateMutability": "payable",
      "type": "function"
    },
    {
      "inputs": [
        {
          "internalType": "uint256",
          "name": "tokenId",
          "type": "uint256"
        }
      ],
      "name": "checkListing",
      "outputs": [
        {
          "internalType": "bool",
          "name": "",
          "type": "bool"
        }
      ],
      "stateMutability": "view",
      "type": "function"
    },
    {
      "inputs": [
        {
          "internalType": "string",
          "name": "uri",
          "type": "string"
        }
      ],
      "name": "createNFT",
      "outputs": [
        {
          "internalType": "uint256",
          "name": "",
          "type": "uint256"
        }
      ],
      "stateMutability": "nonpayable",
      "type": "function"
    },
    {
      "inputs": [
        {
          "internalType": "address",
          "name": "to",
          "type": "address"
        },
        {
          "internalType": "string",
          "name": "uri",
          "type": "string"
        },
        {
          "internalType": "address",
          "name": "seller",
          "type": "address"
        },
        {
          "internalType": "uint256",
          "name": "price",
          "type": "uint256"
        }
      ],
      "name": "createNFTandList",
      "outputs": [
        {
          "internalType": "uint256",
          "name": "",
          "type": "uint256"
        }
      ],
      "stateMutability": "nonpayable",
      "type": "function"
    },
    {
      "inputs": [],
      "name": "displayNFTS",
      "outputs": [
        {
          "components": [
            {
              "internalType": "uint256",
              "name": "_Id",
              "type": "uint256"
            },
            {
              "internalType": "uint256",
              "name": "price",
              "type": "uint256"
            },
            {
              "internalType": "address",
              "name": "seller",
              "type": "address"
            }
          ],
          "internalType": "struct NFT_Trade.ListedNFT[]",
          "name": "",
          "type": "tuple[]"
        }
      ],
      "stateMutability": "view",
      "type": "function"
    },
    {
      "inputs": [
        {
          "internalType": "uint256",
          "name": "tokenId",
          "type": "uint256"
        }
      ],
      "name": "getApproved",
      "outputs": [
        {
          "internalType": "address",
          "name": "",
          "type": "address"
        }
      ],
      "stateMutability": "view",
      "type": "function"
    },
    {
      "inputs": [
        {
          "internalType": "address",
          "name": "owner",
          "type": "address"
        },
        {
          "internalType": "address",
          "name": "operator",
          "type": "address"
        }
      ],
      "name": "isApprovedForAll",
      "outputs": [
        {
          "internalType": "bool",
          "name": "",
          "type": "bool"
        }
      ],
      "stateMutability": "view",
      "type": "function"
    },
    {
      "inputs": [
        {
          "internalType": "uint256",
          "name": "",
          "type": "uint256"
        }
      ],
      "name": "isListed",
      "outputs": [
        {
          "internalType": "bool",
          "name": "",
          "type": "bool"
        }
      ],
      "stateMutability": "view",
      "type": "function"
    },
    {
      "inputs": [
        {
          "internalType": "uint256",
          "name": "tokenId",
          "type": "uint256"
        },
        {
          "internalType": "uint256",
          "name": "price",
          "type": "uint256"
        }
      ],
      "name": "listNFT",
      "outputs": [],
      "stateMutability": "nonpayable",
      "type": "function"
    },
    {
      "inputs": [
        {
          "internalType": "uint256",
          "name": "",
          "type": "uint256"
        }
      ],
      "name": "listedproperties",
      "outputs": [
        {
          "internalType": "uint256",
          "name": "_Id",
          "type": "uint256"
        },
        {
          "internalType": "uint256",
          "name": "price",
          "type": "uint256"
        },
        {
          "internalType": "address",
          "name": "seller",
          "type": "address"
        }
      ],
      "stateMutability": "view",
      "type": "function"
    },
    {
      "inputs": [],
      "name": "name",
      "outputs": [
        {
          "internalType": "string",
          "name": "",
          "type": "string"
        }
      ],
      "stateMutability": "view",
      "type": "function"
    },
    {
      "inputs": [
        {
          "internalType": "uint256",
          "name": "tokenId",
          "type": "uint256"
        }
      ],
      "name": "ownerOf",
      "outputs": [
        {
          "internalType": "address",
          "name": "",
          "type": "address"
        }
      ],
      "stateMutability": "view",
      "type": "function"
    },
    {
      "inputs": [
        {
          "internalType": "address",
          "name": "from",
          "type": "address"
        },
        {
          "internalType": "address",
          "name": "to",
          "type": "address"
        },
        {
          "internalType": "uint256",
          "name": "tokenId",
          "type": "uint256"
        }
      ],
      "name": "safeTransferFrom",
      "outputs": [],
      "stateMutability": "nonpayable",
      "type": "function"
    },
    {
      "inputs": [
        {
          "internalType": "address",
          "name": "from",
          "type": "address"
        },
        {
          "internalType": "address",
          "name": "to",
          "type": "address"
        },
        {
          "internalType": "uint256",
          "name": "tokenId",
          "type": "uint256"
        },
        {
          "internalType": "bytes",
          "name": "data",
          "type": "bytes"
        }
      ],
      "name": "safeTransferFrom",
      "outputs": [],
      "stateMutability": "nonpayable",
      "type": "function"
    },
    {
      "inputs": [
        {
          "internalType": "address",
          "name": "operator",
          "type": "address"
        },
        {
          "internalType": "bool",
          "name": "approved",
          "type": "bool"
        }
      ],
      "name": "setApprovalForAll",
      "outputs": [],
      "stateMutability": "nonpayable",
      "type": "function"
    },
    {
      "inputs": [
        {
          "internalType": "bytes4",
          "name": "interfaceId",
          "type": "bytes4"
        }
      ],
      "name": "supportsInterface",
      "outputs": [
        {
          "internalType": "bool",
          "name": "",
          "type": "bool"
        }
      ],
      "stateMutability": "view",
      "type": "function"
    },
    {
      "inputs": [],
      "name": "symbol",
      "outputs": [
        {
          "internalType": "string",
          "name": "",
          "type": "string"
        }
      ],
      "stateMutability": "view",
      "type": "function"
    },
    {
      "inputs": [
        {
          "internalType": "uint256",
          "name": "tokenId",
          "type": "uint256"
        }
      ],
      "name": "tokenURI",
      "outputs": [
        {
          "internalType": "string",
          "name": "",
          "type": "string"
        }
      ],
      "stateMutability": "view",
      "type": "function"
    },
    {
      "inputs": [
        {
          "internalType": "address",
          "name": "from",
          "type": "address"
        },
        {
          "internalType": "address",
          "name": "to",
          "type": "address"
        },
        {
          "internalType": "uint256",
          "name": "tokenId",
          "type": "uint256"
        }
      ],
      "name": "transferFrom",
      "outputs": [],
      "stateMutability": "nonpayable",
      "type": "function"
    },
    {
      "inputs": [
        {
          "internalType": "uint256",
          "name": "tokenId",
          "type": "uint256"
        }
      ],
      "name": "unList",
      "outputs": [],
      "stateMutability": "nonpayable",
      "type": "function"
    }
  ],
  "bytecode": "0x608060405260006007553480156200001657600080fd5b506040518060400160405280600581526020017f41737365740000000000000000000000000000000000000000000000000000008152506040518060400160405280600281526020017f4154000000000000000000000000000000000000000000000000000000000000815250816000908162000094919062000329565b508060019081620000a6919062000329565b50505062000410565b600081519050919050565b7f4e487b7100000000000000000000000000000000000000000000000000000000600052604160045260246000fd5b7f4e487b7100000000000000000000000000000000000000000000000000000000600052602260045260246000fd5b600060028204905060018216806200013157607f821691505b602082108103620001475762000146620000e9565b5b50919050565b60008190508160005260206000209050919050565b60006020601f8301049050919050565b600082821b905092915050565b600060088302620001b17fffffffffffffffffffffffffffffffffffffffffffffffffffffffffffffffff8262000172565b620001bd868362000172565b95508019841693508086168417925050509392505050565b6000819050919050565b6000819050919050565b60006200020a62000204620001fe84620001d5565b620001df565b620001d5565b9050919050565b6000819050919050565b6200022683620001e9565b6200023e620002358262000211565b8484546200017f565b825550505050565b600090565b6200025562000246565b620002628184846200021b565b505050565b5b818110156200028a576200027e6000826200024b565b60018101905062000268565b5050565b601f821115620002d957620002a3816200014d565b620002ae8462000162565b81016020851015620002be578190505b620002d6620002cd8562000162565b83018262000267565b50505b505050565b600082821c905092915050565b6000620002fe60001984600802620002de565b1980831691505092915050565b6000620003198383620002eb565b9150826002028217905092915050565b6200033482620000af565b67ffffffffffffffff81111562000350576200034f620000ba565b5b6200035c825462000118565b620003698282856200028e565b600060209050601f831160018114620003a157600084156200038c578287015190505b6200039885826200030b565b86555062000408565b601f198416620003b1866200014d565b60005b82811015620003db57848901518255600182019150602085019450602081019050620003b4565b86831015620003fb5784890151620003f7601f891682620002eb565b8355505b6001600288020188555050505b505050505050565b6134b980620004206000396000f3fe6080604052600436106101405760003560e01c80635443b28a116100b6578063a22cb4651161006f578063a22cb46514610499578063b88d4fde146104c2578063c87b56dd146104eb578063da2ed03e14610528578063e985e9c514610565578063fcce4883146105a257610140565b80635443b28a146103515780636352211e1461038e57806370a08231146103cb5780637d7e6a811461040857806394383f141461044557806395d89b411461046e57610140565b80631c6d365f116101085780631c6d365f1461023c5780631c93fa071461027b57806323b872dd146102a65780633d3131da146102cf57806342842e0e1461030c57806351ed82881461033557610140565b806301ffc9a71461014557806306fdde0314610182578063081812fc146101ad578063095ea7b3146101ea5780630ff41c5814610213575b600080fd5b34801561015157600080fd5b5061016c600480360381019061016791906123e8565b6105df565b6040516101799190612430565b60405180910390f35b34801561018e57600080fd5b50610197610640565b6040516101a491906124db565b60405180910390f35b3480156101b957600080fd5b506101d460048036038101906101cf9190612533565b6106d2565b6040516101e191906125a1565b60405180910390f35b3480156101f657600080fd5b50610211600480360381019061020c91906125e8565b6106ee565b005b34801561021f57600080fd5b5061023a60048036038101906102359190612533565b610704565b005b34801561024857600080fd5b50610263600480360381019061025e9190612533565b61073e565b60405161027293929190612637565b60405180910390f35b34801561028757600080fd5b50610290610798565b60405161029d919061277d565b60405180910390f35b3480156102b257600080fd5b506102cd60048036038101906102c8919061279f565b6109ae565b005b3480156102db57600080fd5b506102f660048036038101906102f19190612533565b610ab0565b60405161030391906127f2565b60405180910390f35b34801561031857600080fd5b50610333600480360381019061032e919061279f565b610ac8565b005b61034f600480360381019061034a9190612533565b610ae8565b005b34801561035d57600080fd5b5061037860048036038101906103739190612533565b610d88565b6040516103859190612430565b60405180910390f35b34801561039a57600080fd5b506103b560048036038101906103b09190612533565b610dc9565b6040516103c291906125a1565b60405180910390f35b3480156103d757600080fd5b506103f260048036038101906103ed919061280d565b610ddb565b6040516103ff91906127f2565b60405180910390f35b34801561041457600080fd5b5061042f600480360381019061042a919061296f565b610e95565b60405161043c91906127f2565b60405180910390f35b34801561045157600080fd5b5061046c600480360381019061046791906129f2565b61102d565b005b34801561047a57600080fd5b50610483611193565b60405161049091906124db565b60405180910390f35b3480156104a557600080fd5b506104c060048036038101906104bb9190612a5e565b611225565b005b3480156104ce57600080fd5b506104e960048036038101906104e49190612b3f565b61123b565b005b3480156104f757600080fd5b50610512600480360381019061050d9190612533565b611258565b60405161051f91906124db565b60405180910390f35b34801561053457600080fd5b5061054f600480360381019061054a9190612bc2565b61136b565b60405161055c91906127f2565b60405180910390f35b34801561057157600080fd5b5061058c60048036038101906105879190612c0b565b6113a9565b6040516105999190612430565b60405180910390f35b3480156105ae57600080fd5b506105c960048036038101906105c49190612533565b61143d565b6040516105d69190612430565b60405180910390f35b6000634906490660e01b7bffffffffffffffffffffffffffffffffffffffffffffffffffffffff1916827bffffffffffffffffffffffffffffffffffffffffffffffffffffffff1916148061063957506106388261145d565b5b9050919050565b60606000805461064f90612c7a565b80601f016020809104026020016040519081016040528092919081815260200182805461067b90612c7a565b80156106c85780601f1061069d576101008083540402835291602001916106c8565b820191906000526020600020905b8154815290600101906020018083116106ab57829003601f168201915b5050505050905090565b60006106dd8261153f565b506106e7826115c7565b9050919050565b61070082826106fb611604565b61160c565b5050565b6000600a600083815260200190815260200160002060006101000a81548160ff02191690831515021790555061073b3033836109ae565b50565b6008818154811061074e57600080fd5b90600052602060002090600302016000915090508060000154908060010154908060020160009054906101000a900473ffffffffffffffffffffffffffffffffffffffff16905083565b60606000805b6008805490508110156108185760011515600a6000600884815481106107c7576107c6612cab565b5b906000526020600020906003020160000154815260200190815260200160002060009054906101000a900460ff1615150361080b57818061080790612d09565b9250505b808060010191505061079e565b5060008167ffffffffffffffff81111561083557610834612844565b5b60405190808252806020026020018201604052801561086e57816020015b61085b612345565b8152602001906001900390816108535790505b5090506000805b6008805490508110156109a45760011515600a60006008848154811061089e5761089d612cab565b5b906000526020600020906003020160000154815260200190815260200160002060009054906101000a900460ff1615150361099757600881815481106108e7576108e6612cab565b5b906000526020600020906003020160405180606001604052908160008201548152602001600182015481526020016002820160009054906101000a900473ffffffffffffffffffffffffffffffffffffffff1673ffffffffffffffffffffffffffffffffffffffff1673ffffffffffffffffffffffffffffffffffffffff168152505083838151811061097d5761097c612cab565b5b6020026020010181905250818061099390612d09565b9250505b8080600101915050610875565b5081935050505090565b600073ffffffffffffffffffffffffffffffffffffffff168273ffffffffffffffffffffffffffffffffffffffff1603610a205760006040517f64a0ae92000000000000000000000000000000000000000000000000000000008152600401610a1791906125a1565b60405180910390fd5b6000610a348383610a2f611604565b61161e565b90508373ffffffffffffffffffffffffffffffffffffffff168173ffffffffffffffffffffffffffffffffffffffff1614610aaa578382826040517f64283d7b000000000000000000000000000000000000000000000000000000008152600401610aa193929190612d51565b60405180910390fd5b50505050565b60096020528060005260406000206000915090505481565b610ae38383836040518060200160405280600081525061123b565b505050565b600060096000838152602001908152602001600020549050600060088281548110610b1657610b15612cab565b5b906000526020600020906003020160405180606001604052908160008201548152602001600182015481526020016002820160009054906101000a900473ffffffffffffffffffffffffffffffffffffffff1673ffffffffffffffffffffffffffffffffffffffff1673ffffffffffffffffffffffffffffffffffffffff168152505090506000816020015111610be2576040517f08c379a0000000000000000000000000000000000000000000000000000000008152600401610bd990612dd4565b60405180910390fd5b3373ffffffffffffffffffffffffffffffffffffffff16816040015173ffffffffffffffffffffffffffffffffffffffff1603610c54576040517f08c379a0000000000000000000000000000000000000000000000000000000008152600401610c4b90612e66565b60405180910390fd5b8060200151341015610c9b576040517f08c379a0000000000000000000000000000000000000000000000000000000008152600401610c9290612ed2565b60405180910390fd5b6000816040015173ffffffffffffffffffffffffffffffffffffffff1634604051610cc590612f23565b60006040518083038185875af1925050503d8060008114610d02576040519150601f19603f3d011682016040523d82523d6000602084013e610d07565b606091505b5050905080610d4b576040517f08c379a0000000000000000000000000000000000000000000000000000000008152600401610d4290612f84565b60405180910390fd5b610d563033866109ae565b6000600a600086815260200190815260200160002060006101000a81548160ff02191690831515021790555050505050565b600060011515600a600084815260200190815260200160002060009054906101000a900460ff16151503610dbf5760019050610dc4565b600090505b919050565b6000610dd48261153f565b9050919050565b60008073ffffffffffffffffffffffffffffffffffffffff168273ffffffffffffffffffffffffffffffffffffffff1603610e4e5760006040517f89c62b64000000000000000000000000000000000000000000000000000000008152600401610e4591906125a1565b60405180910390fd5b600360008373ffffffffffffffffffffffffffffffffffffffff1673ffffffffffffffffffffffffffffffffffffffff168152602001908152602001600020549050919050565b600060076000815480929190610eaa90612d09565b919050555060006007549050610ec08682611838565b610eca8186611931565b60008311610f0d576040517f08c379a0000000000000000000000000000000000000000000000000000000008152600401610f0490613016565b60405180910390fd5b600060405180606001604052808381526020018581526020018673ffffffffffffffffffffffffffffffffffffffff1681525090506008819080600181540180825580915050600190039060005260206000209060030201600090919091909150600082015181600001556020820151816001015560408201518160020160006101000a81548173ffffffffffffffffffffffffffffffffffffffff021916908373ffffffffffffffffffffffffffffffffffffffff16021790555050506001600880549050610fdd9190613036565b60096000848152602001908152602001600020819055506001600a600084815260200190815260200160002060006101000a81548160ff0219169083151502179055508192505050949350505050565b60008111611070576040517f08c379a000000000000000000000000000000000000000000000000000000000815260040161106790613016565b60405180910390fd5b61107b3330846109ae565b600060405180606001604052808481526020018381526020013373ffffffffffffffffffffffffffffffffffffffff1681525090506008819080600181540180825580915050600190039060005260206000209060030201600090919091909150600082015181600001556020820151816001015560408201518160020160006101000a81548173ffffffffffffffffffffffffffffffffffffffff021916908373ffffffffffffffffffffffffffffffffffffffff1602179055505050600160088054905061114b9190613036565b60096000858152602001908152602001600020819055506001600a600085815260200190815260200160002060006101000a81548160ff021916908315150217905550505050565b6060600180546111a290612c7a565b80601f01602080910402602001604051908101604052809291908181526020018280546111ce90612c7a565b801561121b5780601f106111f05761010080835404028352916020019161121b565b820191906000526020600020905b8154815290600101906020018083116111fe57829003601f168201915b5050505050905090565b611237611230611604565b838361198d565b5050565b6112468484846109ae565b61125284848484611afc565b50505050565b60606112638261153f565b50600060066000848152602001908152602001600020805461128490612c7a565b80601f01602080910402602001604051908101604052809291908181526020018280546112b090612c7a565b80156112fd5780601f106112d2576101008083540402835291602001916112fd565b820191906000526020600020905b8154815290600101906020018083116112e057829003601f168201915b50505050509050600061130e611cb3565b90506000815103611323578192505050611366565b6000825111156113585780826040516020016113409291906130a6565b60405160208183030381529060405292505050611366565b61136184611cca565b925050505b919050565b60006007600081548092919061138090612d09565b9190505550600060075490506113963382611838565b6113a08184611931565b80915050919050565b6000600560008473ffffffffffffffffffffffffffffffffffffffff1673ffffffffffffffffffffffffffffffffffffffff16815260200190815260200160002060008373ffffffffffffffffffffffffffffffffffffffff1673ffffffffffffffffffffffffffffffffffffffff16815260200190815260200160002060009054906101000a900460ff16905092915050565b600a6020528060005260406000206000915054906101000a900460ff1681565b60007f80ac58cd000000000000000000000000000000000000000000000000000000007bffffffffffffffffffffffffffffffffffffffffffffffffffffffff1916827bffffffffffffffffffffffffffffffffffffffffffffffffffffffff1916148061152857507f5b5e139f000000000000000000000000000000000000000000000000000000007bffffffffffffffffffffffffffffffffffffffffffffffffffffffff1916827bffffffffffffffffffffffffffffffffffffffffffffffffffffffff1916145b80611538575061153782611d33565b5b9050919050565b60008061154b83611d9d565b9050600073ffffffffffffffffffffffffffffffffffffffff168173ffffffffffffffffffffffffffffffffffffffff16036115be57826040517f7e2732890000000000000000000000000000000000000000000000000000000081526004016115b591906127f2565b60405180910390fd5b80915050919050565b60006004600083815260200190815260200160002060009054906101000a900473ffffffffffffffffffffffffffffffffffffffff169050919050565b600033905090565b6116198383836001611dda565b505050565b60008061162a84611d9d565b9050600073ffffffffffffffffffffffffffffffffffffffff168373ffffffffffffffffffffffffffffffffffffffff161461166c5761166b818486611f9f565b5b600073ffffffffffffffffffffffffffffffffffffffff168173ffffffffffffffffffffffffffffffffffffffff16146116fd576116ae600085600080611dda565b6001600360008373ffffffffffffffffffffffffffffffffffffffff1673ffffffffffffffffffffffffffffffffffffffff168152602001908152602001600020600082825403925050819055505b600073ffffffffffffffffffffffffffffffffffffffff168573ffffffffffffffffffffffffffffffffffffffff1614611780576001600360008773ffffffffffffffffffffffffffffffffffffffff1673ffffffffffffffffffffffffffffffffffffffff168152602001908152602001600020600082825401925050819055505b846002600086815260200190815260200160002060006101000a81548173ffffffffffffffffffffffffffffffffffffffff021916908373ffffffffffffffffffffffffffffffffffffffff160217905550838573ffffffffffffffffffffffffffffffffffffffff168273ffffffffffffffffffffffffffffffffffffffff167fddf252ad1be2c89b69c2b068fc378daa952ba7f163c4a11628f55a4df523b3ef60405160405180910390a4809150509392505050565b600073ffffffffffffffffffffffffffffffffffffffff168273ffffffffffffffffffffffffffffffffffffffff16036118aa5760006040517f64a0ae920000000000000000000000000000000000000000000000000000000081526004016118a191906125a1565b60405180910390fd5b60006118b88383600061161e565b9050600073ffffffffffffffffffffffffffffffffffffffff168173ffffffffffffffffffffffffffffffffffffffff161461192c5760006040517f73c6ac6e00000000000000000000000000000000000000000000000000000000815260040161192391906125a1565b60405180910390fd5b505050565b806006600084815260200190815260200160002090816119519190613276565b507ff8e1a15aba9398e019f0b49df1a4fde98ee17ae345cb5f6b5e2c27f5033e8ce78260405161198191906127f2565b60405180910390a15050565b600073ffffffffffffffffffffffffffffffffffffffff168273ffffffffffffffffffffffffffffffffffffffff16036119fe57816040517f5b08ba180000000000000000000000000000000000000000000000000000000081526004016119f591906125a1565b60405180910390fd5b80600560008573ffffffffffffffffffffffffffffffffffffffff1673ffffffffffffffffffffffffffffffffffffffff16815260200190815260200160002060008473ffffffffffffffffffffffffffffffffffffffff1673ffffffffffffffffffffffffffffffffffffffff16815260200190815260200160002060006101000a81548160ff0219169083151502179055508173ffffffffffffffffffffffffffffffffffffffff168373ffffffffffffffffffffffffffffffffffffffff167f17307eab39ab6107e8899845ad3d59bd9653f200f220920489ca2b5937696c3183604051611aef9190612430565b60405180910390a3505050565b60008373ffffffffffffffffffffffffffffffffffffffff163b1115611cad578273ffffffffffffffffffffffffffffffffffffffff1663150b7a02611b40611604565b8685856040518563ffffffff1660e01b8152600401611b62949392919061339d565b6020604051808303816000875af1925050508015611b9e57506040513d601f19601f82011682018060405250810190611b9b91906133fe565b60015b611c22573d8060008114611bce576040519150601f19603f3d011682016040523d82523d6000602084013e611bd3565b606091505b506000815103611c1a57836040517f64a0ae92000000000000000000000000000000000000000000000000000000008152600401611c1191906125a1565b60405180910390fd5b805181602001fd5b63150b7a0260e01b7bffffffffffffffffffffffffffffffffffffffffffffffffffffffff1916817bffffffffffffffffffffffffffffffffffffffffffffffffffffffff191614611cab57836040517f64a0ae92000000000000000000000000000000000000000000000000000000008152600401611ca291906125a1565b60405180910390fd5b505b50505050565b606060405180602001604052806000815250905090565b6060611cd58261153f565b506000611ce0611cb3565b90506000815111611d005760405180602001604052806000815250611d2b565b80611d0a84612063565b604051602001611d1b9291906130a6565b6040516020818303038152906040525b915050919050565b60007f01ffc9a7000000000000000000000000000000000000000000000000000000007bffffffffffffffffffffffffffffffffffffffffffffffffffffffff1916827bffffffffffffffffffffffffffffffffffffffffffffffffffffffff1916149050919050565b60006002600083815260200190815260200160002060009054906101000a900473ffffffffffffffffffffffffffffffffffffffff169050919050565b8080611e135750600073ffffffffffffffffffffffffffffffffffffffff168273ffffffffffffffffffffffffffffffffffffffff1614155b15611f47576000611e238461153f565b9050600073ffffffffffffffffffffffffffffffffffffffff168373ffffffffffffffffffffffffffffffffffffffff1614158015611e8e57508273ffffffffffffffffffffffffffffffffffffffff168173ffffffffffffffffffffffffffffffffffffffff1614155b8015611ea15750611e9f81846113a9565b155b15611ee357826040517fa9fbf51f000000000000000000000000000000000000000000000000000000008152600401611eda91906125a1565b60405180910390fd5b8115611f4557838573ffffffffffffffffffffffffffffffffffffffff168273ffffffffffffffffffffffffffffffffffffffff167f8c5be1e5ebec7d5bd14f71427d1e84f3dd0314c0f7b2291e5b200ac8c7c3b92560405160405180910390a45b505b836004600085815260200190815260200160002060006101000a81548173ffffffffffffffffffffffffffffffffffffffff021916908373ffffffffffffffffffffffffffffffffffffffff16021790555050505050565b611faa838383612131565b61205e57600073ffffffffffffffffffffffffffffffffffffffff168373ffffffffffffffffffffffffffffffffffffffff160361201f57806040517f7e27328900000000000000000000000000000000000000000000000000000000815260040161201691906127f2565b60405180910390fd5b81816040517f177e802f00000000000000000000000000000000000000000000000000000000815260040161205592919061342b565b60405180910390fd5b505050565b606060006001612072846121f2565b01905060008167ffffffffffffffff81111561209157612090612844565b5b6040519080825280601f01601f1916602001820160405280156120c35781602001600182028036833780820191505090505b509050600082602001820190505b600115612126578080600190039150507f3031323334353637383961626364656600000000000000000000000000000000600a86061a8153600a858161211a57612119613454565b5b049450600085036120d1575b819350505050919050565b60008073ffffffffffffffffffffffffffffffffffffffff168373ffffffffffffffffffffffffffffffffffffffff16141580156121e957508273ffffffffffffffffffffffffffffffffffffffff168473ffffffffffffffffffffffffffffffffffffffff1614806121aa57506121a984846113a9565b5b806121e857508273ffffffffffffffffffffffffffffffffffffffff166121d0836115c7565b73ffffffffffffffffffffffffffffffffffffffff16145b5b90509392505050565b600080600090507a184f03e93ff9f4daa797ed6e38ed64bf6a1f0100000000000000008310612250577a184f03e93ff9f4daa797ed6e38ed64bf6a1f010000000000000000838161224657612245613454565b5b0492506040810190505b6d04ee2d6d415b85acef8100000000831061228d576d04ee2d6d415b85acef8100000000838161228357612282613454565b5b0492506020810190505b662386f26fc1000083106122bc57662386f26fc1000083816122b2576122b1613454565b5b0492506010810190505b6305f5e10083106122e5576305f5e10083816122db576122da613454565b5b0492506008810190505b612710831061230a576127108381612300576122ff613454565b5b0492506004810190505b6064831061232d576064838161232357612322613454565b5b0492506002810190505b600a831061233c576001810190505b80915050919050565b60405180606001604052806000815260200160008152602001600073ffffffffffffffffffffffffffffffffffffffff1681525090565b6000604051905090565b600080fd5b600080fd5b60007fffffffff0000000000000000000000000000000000000000000000000000000082169050919050565b6123c581612390565b81146123d057600080fd5b50565b6000813590506123e2816123bc565b92915050565b6000602082840312156123fe576123fd612386565b5b600061240c848285016123d3565b91505092915050565b60008115159050919050565b61242a81612415565b82525050565b60006020820190506124456000830184612421565b92915050565b600081519050919050565b600082825260208201905092915050565b60005b8381101561248557808201518184015260208101905061246a565b60008484015250505050565b6000601f19601f8301169050919050565b60006124ad8261244b565b6124b78185612456565b93506124c7818560208601612467565b6124d081612491565b840191505092915050565b600060208201905081810360008301526124f581846124a2565b905092915050565b6000819050919050565b612510816124fd565b811461251b57600080fd5b50565b60008135905061252d81612507565b92915050565b60006020828403121561254957612548612386565b5b60006125578482850161251e565b91505092915050565b600073ffffffffffffffffffffffffffffffffffffffff82169050919050565b600061258b82612560565b9050919050565b61259b81612580565b82525050565b60006020820190506125b66000830184612592565b92915050565b6125c581612580565b81146125d057600080fd5b50565b6000813590506125e2816125bc565b92915050565b600080604083850312156125ff576125fe612386565b5b600061260d858286016125d3565b925050602061261e8582860161251e565b9150509250929050565b612631816124fd565b82525050565b600060608201905061264c6000830186612628565b6126596020830185612628565b6126666040830184612592565b949350505050565b600081519050919050565b600082825260208201905092915050565b6000819050602082019050919050565b6126a3816124fd565b82525050565b6126b281612580565b82525050565b6060820160008201516126ce600085018261269a565b5060208201516126e1602085018261269a565b5060408201516126f460408501826126a9565b50505050565b600061270683836126b8565b60608301905092915050565b6000602082019050919050565b600061272a8261266e565b6127348185612679565b935061273f8361268a565b8060005b8381101561277057815161275788826126fa565b975061276283612712565b925050600181019050612743565b5085935050505092915050565b60006020820190508181036000830152612797818461271f565b905092915050565b6000806000606084860312156127b8576127b7612386565b5b60006127c6868287016125d3565b93505060206127d7868287016125d3565b92505060406127e88682870161251e565b9150509250925092565b60006020820190506128076000830184612628565b92915050565b60006020828403121561282357612822612386565b5b6000612831848285016125d3565b91505092915050565b600080fd5b600080fd5b7f4e487b7100000000000000000000000000000000000000000000000000000000600052604160045260246000fd5b61287c82612491565b810181811067ffffffffffffffff8211171561289b5761289a612844565b5b80604052505050565b60006128ae61237c565b90506128ba8282612873565b919050565b600067ffffffffffffffff8211156128da576128d9612844565b5b6128e382612491565b9050602081019050919050565b82818337600083830152505050565b600061291261290d846128bf565b6128a4565b90508281526020810184848401111561292e5761292d61283f565b5b6129398482856128f0565b509392505050565b600082601f8301126129565761295561283a565b5b81356129668482602086016128ff565b91505092915050565b6000806000806080858703121561298957612988612386565b5b6000612997878288016125d3565b945050602085013567ffffffffffffffff8111156129b8576129b761238b565b5b6129c487828801612941565b93505060406129d5878288016125d3565b92505060606129e68782880161251e565b91505092959194509250565b60008060408385031215612a0957612a08612386565b5b6000612a178582860161251e565b9250506020612a288582860161251e565b9150509250929050565b612a3b81612415565b8114612a4657600080fd5b50565b600081359050612a5881612a32565b92915050565b60008060408385031215612a7557612a74612386565b5b6000612a83858286016125d3565b9250506020612a9485828601612a49565b9150509250929050565b600067ffffffffffffffff821115612ab957612ab8612844565b5b612ac282612491565b9050602081019050919050565b6000612ae2612add84612a9e565b6128a4565b905082815260208101848484011115612afe57612afd61283f565b5b612b098482856128f0565b509392505050565b600082601f830112612b2657612b2561283a565b5b8135612b36848260208601612acf565b91505092915050565b60008060008060808587031215612b5957612b58612386565b5b6000612b67878288016125d3565b9450506020612b78878288016125d3565b9350506040612b898782880161251e565b925050606085013567ffffffffffffffff811115612baa57612ba961238b565b5b612bb687828801612b11565b91505092959194509250565b600060208284031215612bd857612bd7612386565b5b600082013567ffffffffffffffff811115612bf657612bf561238b565b5b612c0284828501612941565b91505092915050565b60008060408385031215612c2257612c21612386565b5b6000612c30858286016125d3565b9250506020612c41858286016125d3565b9150509250929050565b7f4e487b7100000000000000000000000000000000000000000000000000000000600052602260045260246000fd5b60006002820490506001821680612c9257607f821691505b602082108103612ca557612ca4612c4b565b5b50919050565b7f4e487b7100000000000000000000000000000000000000000000000000000000600052603260045260246000fd5b7f4e487b7100000000000000000000000000000000000000000000000000000000600052601160045260246000fd5b6000612d14826124fd565b91507fffffffffffffffffffffffffffffffffffffffffffffffffffffffffffffffff8203612d4657612d45612cda565b5b600182019050919050565b6000606082019050612d666000830186612592565b612d736020830185612628565b612d806040830184612592565b949350505050565b7f50726f7065727479206973206e6f74206c697374656400000000000000000000600082015250565b6000612dbe601683612456565b9150612dc982612d88565b602082019050919050565b60006020820190508181036000830152612ded81612db1565b9050919050565b7f596f752063616e6e6f742062757920796f7572206f776e206c6973746564207060008201527f726f706572747900000000000000000000000000000000000000000000000000602082015250565b6000612e50602783612456565b9150612e5b82612df4565b604082019050919050565b60006020820190508181036000830152612e7f81612e43565b9050919050565b7f416d6f756e74206e6f7420656e6f756768000000000000000000000000000000600082015250565b6000612ebc601183612456565b9150612ec782612e86565b602082019050919050565b60006020820190508181036000830152612eeb81612eaf565b9050919050565b600081905092915050565b50565b6000612f0d600083612ef2565b9150612f1882612efd565b600082019050919050565b6000612f2e82612f00565b9150819050919050565b7f5472616e73616374696f6e206661696c65642100000000000000000000000000600082015250565b6000612f6e601383612456565b9150612f7982612f38565b602082019050919050565b60006020820190508181036000830152612f9d81612f61565b9050919050565b7f4e4654732070726963652073686f756c6420626520677265617465722074686160008201527f6e20300000000000000000000000000000000000000000000000000000000000602082015250565b6000613000602383612456565b915061300b82612fa4565b604082019050919050565b6000602082019050818103600083015261302f81612ff3565b9050919050565b6000613041826124fd565b915061304c836124fd565b925082820390508181111561306457613063612cda565b5b92915050565b600081905092915050565b60006130808261244b565b61308a818561306a565b935061309a818560208601612467565b80840191505092915050565b60006130b28285613075565b91506130be8284613075565b91508190509392505050565b60008190508160005260206000209050919050565b60006020601f8301049050919050565b600082821b905092915050565b60006008830261312c7fffffffffffffffffffffffffffffffffffffffffffffffffffffffffffffffff826130ef565b61313686836130ef565b95508019841693508086168417925050509392505050565b6000819050919050565b600061317361316e613169846124fd565b61314e565b6124fd565b9050919050565b6000819050919050565b61318d83613158565b6131a16131998261317a565b8484546130fc565b825550505050565b600090565b6131b66131a9565b6131c1818484613184565b505050565b5b818110156131e5576131da6000826131ae565b6001810190506131c7565b5050565b601f82111561322a576131fb816130ca565b613204846130df565b81016020851015613213578190505b61322761321f856130df565b8301826131c6565b50505b505050565b600082821c905092915050565b600061324d6000198460080261322f565b1980831691505092915050565b6000613266838361323c565b9150826002028217905092915050565b61327f8261244b565b67ffffffffffffffff81111561329857613297612844565b5b6132a28254612c7a565b6132ad8282856131e9565b600060209050601f8311600181146132e057600084156132ce578287015190505b6132d8858261325a565b865550613340565b601f1984166132ee866130ca565b60005b82811015613316578489015182556001820191506020850194506020810190506132f1565b86831015613333578489015161332f601f89168261323c565b8355505b6001600288020188555050505b505050505050565b600081519050919050565b600082825260208201905092915050565b600061336f82613348565b6133798185613353565b9350613389818560208601612467565b61339281612491565b840191505092915050565b60006080820190506133b26000830187612592565b6133bf6020830186612592565b6133cc6040830185612628565b81810360608301526133de8184613364565b905095945050505050565b6000815190506133f8816123bc565b92915050565b60006020828403121561341457613413612386565b5b6000613422848285016133e9565b91505092915050565b60006040820190506134406000830185612592565b61344d6020830184612628565b9392505050565b7f4e487b7100000000000000000000000000000000000000000000000000000000600052601260045260246000fdfea264697066735822122002fb49980ce4043afe8f9e55a46b8b3afa0ca8b9dd722d1305564ce8bd12d87764736f6c63430008180033",
  "linkReferences": {},
  "deployedLinkReferences": {}
}