{
  "_format": "hh-sol-artifact-1",
  "contractName": "NFT_Trade",
  "sourceName": "contracts/NFT_Trade.sol",
  "abi": [
    {
      "inputs": [],
      "stateMutability": "nonpayable",
      "type": "constructor"
    },
    {
      "inputs": [
        {
          "internalType": "address",
          "name": "sender",
          "type": "address"
        },
        {
          "internalType": "uint256",
          "name": "tokenId",
          "type": "uint256"
        },
        {
          "internalType": "address",
          "name": "owner",
          "type": "address"
        }
      ],
      "name": "ERC721IncorrectOwner",
      "type": "error"
    },
    {
      "inputs": [
        {
          "internalType": "address",
          "name": "operator",
          "type": "address"
        },
        {
          "internalType": "uint256",
          "name": "tokenId",
          "type": "uint256"
        }
      ],
      "name": "ERC721InsufficientApproval",
      "type": "error"
    },
    {
      "inputs": [
        {
          "internalType": "address",
          "name": "approver",
          "type": "address"
        }
      ],
      "name": "ERC721InvalidApprover",
      "type": "error"
    },
    {
      "inputs": [
        {
          "internalType": "address",
          "name": "operator",
          "type": "address"
        }
      ],
      "name": "ERC721InvalidOperator",
      "type": "error"
    },
    {
      "inputs": [
        {
          "internalType": "address",
          "name": "owner",
          "type": "address"
        }
      ],
      "name": "ERC721InvalidOwner",
      "type": "error"
    },
    {
      "inputs": [
        {
          "internalType": "address",
          "name": "receiver",
          "type": "address"
        }
      ],
      "name": "ERC721InvalidReceiver",
      "type": "error"
    },
    {
      "inputs": [
        {
          "internalType": "address",
          "name": "sender",
          "type": "address"
        }
      ],
      "name": "ERC721InvalidSender",
      "type": "error"
    },
    {
      "inputs": [
        {
          "internalType": "uint256",
          "name": "tokenId",
          "type": "uint256"
        }
      ],
      "name": "ERC721NonexistentToken",
      "type": "error"
    },
    {
      "anonymous": false,
      "inputs": [
        {
          "indexed": true,
          "internalType": "address",
          "name": "owner",
          "type": "address"
        },
        {
          "indexed": true,
          "internalType": "address",
          "name": "approved",
          "type": "address"
        },
        {
          "indexed": true,
          "internalType": "uint256",
          "name": "tokenId",
          "type": "uint256"
        }
      ],
      "name": "Approval",
      "type": "event"
    },
    {
      "anonymous": false,
      "inputs": [
        {
          "indexed": true,
          "internalType": "address",
          "name": "owner",
          "type": "address"
        },
        {
          "indexed": true,
          "internalType": "address",
          "name": "operator",
          "type": "address"
        },
        {
          "indexed": false,
          "internalType": "bool",
          "name": "approved",
          "type": "bool"
        }
      ],
      "name": "ApprovalForAll",
      "type": "event"
    },
    {
      "anonymous": false,
      "inputs": [
        {
          "indexed": false,
          "internalType": "uint256",
          "name": "_fromTokenId",
          "type": "uint256"
        },
        {
          "indexed": false,
          "internalType": "uint256",
          "name": "_toTokenId",
          "type": "uint256"
        }
      ],
      "name": "BatchMetadataUpdate",
      "type": "event"
    },
    {
      "anonymous": false,
      "inputs": [
        {
          "indexed": false,
          "internalType": "uint256",
          "name": "_tokenId",
          "type": "uint256"
        }
      ],
      "name": "MetadataUpdate",
      "type": "event"
    },
    {
      "anonymous": false,
      "inputs": [
        {
          "indexed": true,
          "internalType": "address",
          "name": "from",
          "type": "address"
        },
        {
          "indexed": true,
          "internalType": "address",
          "name": "to",
          "type": "address"
        },
        {
          "indexed": true,
          "internalType": "uint256",
          "name": "tokenId",
          "type": "uint256"
        }
      ],
      "name": "Transfer",
      "type": "event"
    },
    {
      "inputs": [
        {
          "internalType": "address",
          "name": "propertyOwner",
          "type": "address"
        },
        {
          "internalType": "string",
          "name": "owner_name",
          "type": "string"
        },
        {
          "internalType": "string",
          "name": "owner_Id",
          "type": "string"
        },
        {
          "internalType": "string",
          "name": "propertyName",
          "type": "string"
        },
        {
          "internalType": "string",
          "name": "propertyAddress",
          "type": "string"
        },
        {
          "internalType": "string",
          "name": "propertyImage",
          "type": "string"
        }
      ],
      "name": "addProperty",
      "outputs": [],
      "stateMutability": "nonpayable",
      "type": "function"
    },
    {
      "inputs": [
        {
          "internalType": "address",
          "name": "to",
          "type": "address"
        },
        {
          "internalType": "uint256",
          "name": "tokenId",
          "type": "uint256"
        }
      ],
      "name": "approve",
      "outputs": [],
      "stateMutability": "nonpayable",
      "type": "function"
    },
    {
      "inputs": [
        {
          "internalType": "address",
          "name": "owner",
          "type": "address"
        }
      ],
      "name": "balanceOf",
      "outputs": [
        {
          "internalType": "uint256",
          "name": "",
          "type": "uint256"
        }
      ],
      "stateMutability": "view",
      "type": "function"
    },
    {
      "inputs": [
        {
          "internalType": "uint256",
          "name": "tokenId",
          "type": "uint256"
        }
      ],
      "name": "buyNFT",
      "outputs": [],
      "stateMutability": "payable",
      "type": "function"
    },
    {
      "inputs": [
        {
          "internalType": "uint256",
          "name": "propId",
          "type": "uint256"
        },
        {
          "internalType": "address",
          "name": "newOwner",
          "type": "address"
        }
      ],
      "name": "changeOwner",
      "outputs": [],
      "stateMutability": "nonpayable",
      "type": "function"
    },
    {
      "inputs": [
        {
          "internalType": "uint256",
          "name": "propertyID_As_URI",
          "type": "uint256"
        }
      ],
      "name": "createNFT",
      "outputs": [
        {
          "internalType": "uint256",
          "name": "",
          "type": "uint256"
        }
      ],
      "stateMutability": "nonpayable",
      "type": "function"
    },
    {
      "inputs": [
        {
          "internalType": "address",
          "name": "property_owner",
          "type": "address"
        }
      ],
      "name": "display",
      "outputs": [
        {
          "components": [
            {
              "internalType": "uint256",
              "name": "_ID",
              "type": "uint256"
            },
            {
              "internalType": "address",
              "name": "owner",
              "type": "address"
            },
            {
              "internalType": "string",
              "name": "owner_name",
              "type": "string"
            },
            {
              "internalType": "string",
              "name": "owner_Id",
              "type": "string"
            },
            {
              "internalType": "string",
              "name": "Name",
              "type": "string"
            },
            {
              "internalType": "string",
              "name": "Address",
              "type": "string"
            },
            {
              "internalType": "string",
              "name": "ImageUrl",
              "type": "string"
            }
          ],
          "internalType": "struct RegisterProperty.Property[]",
          "name": "",
          "type": "tuple[]"
        }
      ],
      "stateMutability": "view",
      "type": "function"
    },
    {
      "inputs": [
        {
          "internalType": "uint256",
          "name": "tokenId",
          "type": "uint256"
        }
      ],
      "name": "getApproved",
      "outputs": [
        {
          "internalType": "address",
          "name": "",
          "type": "address"
        }
      ],
      "stateMutability": "view",
      "type": "function"
    },
    {
      "inputs": [
        {
          "internalType": "address",
          "name": "owner",
          "type": "address"
        },
        {
          "internalType": "address",
          "name": "operator",
          "type": "address"
        }
      ],
      "name": "isApprovedForAll",
      "outputs": [
        {
          "internalType": "bool",
          "name": "",
          "type": "bool"
        }
      ],
      "stateMutability": "view",
      "type": "function"
    },
    {
      "inputs": [
        {
          "internalType": "uint256",
          "name": "tokenId",
          "type": "uint256"
        },
        {
          "internalType": "uint256",
          "name": "price",
          "type": "uint256"
        }
      ],
      "name": "listNFT",
      "outputs": [],
      "stateMutability": "nonpayable",
      "type": "function"
    },
    {
      "inputs": [
        {
          "internalType": "uint256",
          "name": "",
          "type": "uint256"
        }
      ],
      "name": "marketPlace",
      "outputs": [
        {
          "internalType": "uint256",
          "name": "price",
          "type": "uint256"
        },
        {
          "internalType": "address",
          "name": "seller",
          "type": "address"
        }
      ],
      "stateMutability": "view",
      "type": "function"
    },
    {
      "inputs": [],
      "name": "name",
      "outputs": [
        {
          "internalType": "string",
          "name": "",
          "type": "string"
        }
      ],
      "stateMutability": "view",
      "type": "function"
    },
    {
      "inputs": [
        {
          "internalType": "uint256",
          "name": "tokenId",
          "type": "uint256"
        }
      ],
      "name": "ownerOf",
      "outputs": [
        {
          "internalType": "address",
          "name": "",
          "type": "address"
        }
      ],
      "stateMutability": "view",
      "type": "function"
    },
    {
      "inputs": [
        {
          "internalType": "uint256",
          "name": "",
          "type": "uint256"
        }
      ],
      "name": "properties",
      "outputs": [
        {
          "internalType": "uint256",
          "name": "_ID",
          "type": "uint256"
        },
        {
          "internalType": "address",
          "name": "owner",
          "type": "address"
        },
        {
          "internalType": "string",
          "name": "owner_name",
          "type": "string"
        },
        {
          "internalType": "string",
          "name": "owner_Id",
          "type": "string"
        },
        {
          "internalType": "string",
          "name": "Name",
          "type": "string"
        },
        {
          "internalType": "string",
          "name": "Address",
          "type": "string"
        },
        {
          "internalType": "string",
          "name": "ImageUrl",
          "type": "string"
        }
      ],
      "stateMutability": "view",
      "type": "function"
    },
    {
      "inputs": [
        {
          "internalType": "address",
          "name": "from",
          "type": "address"
        },
        {
          "internalType": "address",
          "name": "to",
          "type": "address"
        },
        {
          "internalType": "uint256",
          "name": "tokenId",
          "type": "uint256"
        }
      ],
      "name": "safeTransferFrom",
      "outputs": [],
      "stateMutability": "nonpayable",
      "type": "function"
    },
    {
      "inputs": [
        {
          "internalType": "address",
          "name": "from",
          "type": "address"
        },
        {
          "internalType": "address",
          "name": "to",
          "type": "address"
        },
        {
          "internalType": "uint256",
          "name": "tokenId",
          "type": "uint256"
        },
        {
          "internalType": "bytes",
          "name": "data",
          "type": "bytes"
        }
      ],
      "name": "safeTransferFrom",
      "outputs": [],
      "stateMutability": "nonpayable",
      "type": "function"
    },
    {
      "inputs": [
        {
          "internalType": "address",
          "name": "operator",
          "type": "address"
        },
        {
          "internalType": "bool",
          "name": "approved",
          "type": "bool"
        }
      ],
      "name": "setApprovalForAll",
      "outputs": [],
      "stateMutability": "nonpayable",
      "type": "function"
    },
    {
      "inputs": [
        {
          "internalType": "bytes4",
          "name": "interfaceId",
          "type": "bytes4"
        }
      ],
      "name": "supportsInterface",
      "outputs": [
        {
          "internalType": "bool",
          "name": "",
          "type": "bool"
        }
      ],
      "stateMutability": "view",
      "type": "function"
    },
    {
      "inputs": [],
      "name": "symbol",
      "outputs": [
        {
          "internalType": "string",
          "name": "",
          "type": "string"
        }
      ],
      "stateMutability": "view",
      "type": "function"
    },
    {
      "inputs": [
        {
          "internalType": "uint256",
          "name": "tokenId",
          "type": "uint256"
        }
      ],
      "name": "tokenURI",
      "outputs": [
        {
          "internalType": "string",
          "name": "",
          "type": "string"
        }
      ],
      "stateMutability": "view",
      "type": "function"
    },
    {
      "inputs": [
        {
          "internalType": "address",
          "name": "from",
          "type": "address"
        },
        {
          "internalType": "address",
          "name": "to",
          "type": "address"
        },
        {
          "internalType": "uint256",
          "name": "tokenId",
          "type": "uint256"
        }
      ],
      "name": "transferFrom",
      "outputs": [],
      "stateMutability": "nonpayable",
      "type": "function"
    }
  ],
  "bytecode": "0x608060405260006007556000600a553480156200001b57600080fd5b506040518060400160405280600581526020017f41737365740000000000000000000000000000000000000000000000000000008152506040518060400160405280600281526020017f415400000000000000000000000000000000000000000000000000000000000081525081600090816200009991906200032e565b508060019081620000ab91906200032e565b50505062000415565b600081519050919050565b7f4e487b7100000000000000000000000000000000000000000000000000000000600052604160045260246000fd5b7f4e487b7100000000000000000000000000000000000000000000000000000000600052602260045260246000fd5b600060028204905060018216806200013657607f821691505b6020821081036200014c576200014b620000ee565b5b50919050565b60008190508160005260206000209050919050565b60006020601f8301049050919050565b600082821b905092915050565b600060088302620001b67fffffffffffffffffffffffffffffffffffffffffffffffffffffffffffffffff8262000177565b620001c2868362000177565b95508019841693508086168417925050509392505050565b6000819050919050565b6000819050919050565b60006200020f620002096200020384620001da565b620001e4565b620001da565b9050919050565b6000819050919050565b6200022b83620001ee565b620002436200023a8262000216565b84845462000184565b825550505050565b600090565b6200025a6200024b565b6200026781848462000220565b505050565b5b818110156200028f576200028360008262000250565b6001810190506200026d565b5050565b601f821115620002de57620002a88162000152565b620002b38462000167565b81016020851015620002c3578190505b620002db620002d28562000167565b8301826200026c565b50505b505050565b600082821c905092915050565b60006200030360001984600802620002e3565b1980831691505092915050565b60006200031e8383620002f0565b9150826002028217905092915050565b6200033982620000b4565b67ffffffffffffffff811115620003555762000354620000bf565b5b6200036182546200011d565b6200036e82828562000293565b600060209050601f831160018114620003a6576000841562000391578287015190505b6200039d858262000310565b8655506200040d565b601f198416620003b68662000152565b60005b82811015620003e057848901518255600182019150602085019450602081019050620003b9565b86831015620004005784890151620003fc601f891682620002f0565b8355505b6001600288020188555050505b505050505050565b613b8980620004256000396000f3fe60806040526004361061012a5760003560e01c806394383f14116100ab578063c87b56dd1161006f578063c87b56dd146103f1578063e078cdba1461042e578063e985e9c514610457578063eb39113f14610494578063f36b331f146104d1578063f7b108081461050f5761012a565b806394383f141461030e57806395d89b41146103375780639649215514610362578063a22cb4651461039f578063b88d4fde146103c85761012a565b806342842e0e116100f257806342842e0e1461022657806351ed82881461024f5780636352211e1461026b57806370a08231146102a8578063784796f7146102e55761012a565b806301ffc9a71461012f57806306fdde031461016c578063081812fc14610197578063095ea7b3146101d457806323b872dd146101fd575b600080fd5b34801561013b57600080fd5b50610156600480360381019061015191906128d4565b610552565b604051610163919061291c565b60405180910390f35b34801561017857600080fd5b506101816105b3565b60405161018e91906129c7565b60405180910390f35b3480156101a357600080fd5b506101be60048036038101906101b99190612a1f565b610645565b6040516101cb9190612a8d565b60405180910390f35b3480156101e057600080fd5b506101fb60048036038101906101f69190612ad4565b610661565b005b34801561020957600080fd5b50610224600480360381019061021f9190612b14565b610677565b005b34801561023257600080fd5b5061024d60048036038101906102489190612b14565b610779565b005b61026960048036038101906102649190612a1f565b610799565b005b34801561027757600080fd5b50610292600480360381019061028d9190612a1f565b610a20565b60405161029f9190612a8d565b60405180910390f35b3480156102b457600080fd5b506102cf60048036038101906102ca9190612b67565b610a32565b6040516102dc9190612ba3565b60405180910390f35b3480156102f157600080fd5b5061030c60048036038101906103079190612bbe565b610aec565b005b34801561031a57600080fd5b5061033560048036038101906103309190612bfe565b610b6d565b005b34801561034357600080fd5b5061034c610c5b565b60405161035991906129c7565b60405180910390f35b34801561036e57600080fd5b5061038960048036038101906103849190612a1f565b610ced565b6040516103969190612ba3565b60405180910390f35b3480156103ab57600080fd5b506103c660048036038101906103c19190612c6a565b610d33565b005b3480156103d457600080fd5b506103ef60048036038101906103ea9190612ddf565b610d49565b005b3480156103fd57600080fd5b5061041860048036038101906104139190612a1f565b610d66565b60405161042591906129c7565b60405180910390f35b34801561043a57600080fd5b5061045560048036038101906104509190612f03565b610e79565b005b34801561046357600080fd5b5061047e6004803603810190610479919061301c565b611005565b60405161048b919061291c565b60405180910390f35b3480156104a057600080fd5b506104bb60048036038101906104b69190612b67565b611099565b6040516104c8919061323e565b60405180910390f35b3480156104dd57600080fd5b506104f860048036038101906104f39190612a1f565b6115cf565b604051610506929190613260565b60405180910390f35b34801561051b57600080fd5b5061053660048036038101906105319190612a1f565b611613565b6040516105499796959493929190613289565b60405180910390f35b6000634906490660e01b7bffffffffffffffffffffffffffffffffffffffffffffffffffffffff1916827bffffffffffffffffffffffffffffffffffffffffffffffffffffffff191614806105ac57506105ab8261192d565b5b9050919050565b6060600080546105c29061334a565b80601f01602080910402602001604051908101604052809291908181526020018280546105ee9061334a565b801561063b5780601f106106105761010080835404028352916020019161063b565b820191906000526020600020905b81548152906001019060200180831161061e57829003601f168201915b5050505050905090565b600061065082611a0f565b5061065a82611a97565b9050919050565b610673828261066e611ad4565b611adc565b5050565b600073ffffffffffffffffffffffffffffffffffffffff168273ffffffffffffffffffffffffffffffffffffffff16036106e95760006040517f64a0ae920000000000000000000000000000000000000000000000000000000081526004016106e09190612a8d565b60405180910390fd5b60006106fd83836106f8611ad4565b611aee565b90508373ffffffffffffffffffffffffffffffffffffffff168173ffffffffffffffffffffffffffffffffffffffff1614610773578382826040517f64283d7b00000000000000000000000000000000000000000000000000000000815260040161076a9392919061337b565b60405180910390fd5b50505050565b61079483838360405180602001604052806000815250610d49565b505050565b6000600b6000838152602001908152602001600020604051806040016040529081600082015481526020016001820160009054906101000a900473ffffffffffffffffffffffffffffffffffffffff1673ffffffffffffffffffffffffffffffffffffffff1673ffffffffffffffffffffffffffffffffffffffff168152505090506000816000015111610862576040517f08c379a0000000000000000000000000000000000000000000000000000000008152600401610859906133fe565b60405180910390fd5b3373ffffffffffffffffffffffffffffffffffffffff16816020015173ffffffffffffffffffffffffffffffffffffffff16036108d4576040517f08c379a00000000000000000000000000000000000000000000000000000000081526004016108cb90613490565b60405180910390fd5b806000015134101561091b576040517f08c379a0000000000000000000000000000000000000000000000000000000008152600401610912906134fc565b60405180910390fd5b6000816020015173ffffffffffffffffffffffffffffffffffffffff16346040516109459061354d565b60006040518083038185875af1925050503d8060008114610982576040519150601f19603f3d011682016040523d82523d6000602084013e610987565b606091505b50509050806109cb576040517f08c379a00000000000000000000000000000000000000000000000000000000081526004016109c2906135ae565b60405180910390fd5b600b60008481526020019081526020016000206000808201600090556001820160006101000a81549073ffffffffffffffffffffffffffffffffffffffff02191690555050610a1b303385610677565b505050565b6000610a2b82611a0f565b9050919050565b60008073ffffffffffffffffffffffffffffffffffffffff168273ffffffffffffffffffffffffffffffffffffffff1603610aa55760006040517f89c62b64000000000000000000000000000000000000000000000000000000008152600401610a9c9190612a8d565b60405180910390fd5b600360008373ffffffffffffffffffffffffffffffffffffffff1673ffffffffffffffffffffffffffffffffffffffff168152602001908152602001600020549050919050565b6000600960008481526020019081526020016000205490508160088281548110610b1957610b186135ce565b5b906000526020600020906007020160010160006101000a81548173ffffffffffffffffffffffffffffffffffffffff021916908373ffffffffffffffffffffffffffffffffffffffff160217905550505050565b60008111610bb0576040517f08c379a0000000000000000000000000000000000000000000000000000000008152600401610ba79061366f565b60405180910390fd5b610bba3083610661565b610bc5333084610677565b60405180604001604052808281526020013373ffffffffffffffffffffffffffffffffffffffff16815250600b60008481526020019081526020016000206000820151816000015560208201518160010160006101000a81548173ffffffffffffffffffffffffffffffffffffffff021916908373ffffffffffffffffffffffffffffffffffffffff1602179055509050505050565b606060018054610c6a9061334a565b80601f0160208091040260200160405190810160405280929190818152602001828054610c969061334a565b8015610ce35780601f10610cb857610100808354040283529160200191610ce3565b820191906000526020600020905b815481529060010190602001808311610cc657829003601f168201915b5050505050905090565b6000600a6000815480929190610d02906136be565b91905055506000600a549050610d183382611d08565b610d2a81610d2585611e01565b611ecf565b80915050919050565b610d45610d3e611ad4565b8383611f2b565b5050565b610d54848484610677565b610d608484848461209a565b50505050565b6060610d7182611a0f565b506000600660008481526020019081526020016000208054610d929061334a565b80601f0160208091040260200160405190810160405280929190818152602001828054610dbe9061334a565b8015610e0b5780601f10610de057610100808354040283529160200191610e0b565b820191906000526020600020905b815481529060010190602001808311610dee57829003601f168201915b505050505090506000610e1c612251565b90506000815103610e31578192505050610e74565b600082511115610e66578082604051602001610e4e929190613742565b60405160208183030381529060405292505050610e74565b610e6f84612268565b925050505b919050565b60076000815480929190610e8c906136be565b91905055506000600754905060006040518060e001604052808381526020018973ffffffffffffffffffffffffffffffffffffffff16815260200188815260200187815260200186815260200185815260200184815250905060088190806001815401808255809150506001900390600052602060002090600702016000909190919091506000820151816000015560208201518160010160006101000a81548173ffffffffffffffffffffffffffffffffffffffff021916908373ffffffffffffffffffffffffffffffffffffffff1602179055506040820151816002019081610f779190613912565b506060820151816003019081610f8d9190613912565b506080820151816004019081610fa39190613912565b5060a0820151816005019081610fb99190613912565b5060c0820151816006019081610fcf9190613912565b5050506001600880549050610fe491906139e4565b60096000848152602001908152602001600020819055505050505050505050565b6000600560008473ffffffffffffffffffffffffffffffffffffffff1673ffffffffffffffffffffffffffffffffffffffff16815260200190815260200160002060008373ffffffffffffffffffffffffffffffffffffffff1673ffffffffffffffffffffffffffffffffffffffff16815260200190815260200160002060009054906101000a900460ff16905092915050565b60606000805b600880549050811015611140578373ffffffffffffffffffffffffffffffffffffffff16600882815481106110d7576110d66135ce565b5b906000526020600020906007020160010160009054906101000a900473ffffffffffffffffffffffffffffffffffffffff1673ffffffffffffffffffffffffffffffffffffffff160361113357818061112f906136be565b9250505b808060010191505061109f565b5060008167ffffffffffffffff81111561115d5761115c612cb4565b5b60405190808252806020026020018201604052801561119657816020015b611183612815565b81526020019060019003908161117b5790505b5090506000805b6008805490508110156115c3578573ffffffffffffffffffffffffffffffffffffffff16600882815481106111d5576111d46135ce565b5b906000526020600020906007020160010160009054906101000a900473ffffffffffffffffffffffffffffffffffffffff1673ffffffffffffffffffffffffffffffffffffffff16036115b65760088181548110611236576112356135ce565b5b90600052602060002090600702016040518060e0016040529081600082015481526020016001820160009054906101000a900473ffffffffffffffffffffffffffffffffffffffff1673ffffffffffffffffffffffffffffffffffffffff1673ffffffffffffffffffffffffffffffffffffffff1681526020016002820180546112bf9061334a565b80601f01602080910402602001604051908101604052809291908181526020018280546112eb9061334a565b80156113385780601f1061130d57610100808354040283529160200191611338565b820191906000526020600020905b81548152906001019060200180831161131b57829003601f168201915b505050505081526020016003820180546113519061334a565b80601f016020809104026020016040519081016040528092919081815260200182805461137d9061334a565b80156113ca5780601f1061139f576101008083540402835291602001916113ca565b820191906000526020600020905b8154815290600101906020018083116113ad57829003601f168201915b505050505081526020016004820180546113e39061334a565b80601f016020809104026020016040519081016040528092919081815260200182805461140f9061334a565b801561145c5780601f106114315761010080835404028352916020019161145c565b820191906000526020600020905b81548152906001019060200180831161143f57829003601f168201915b505050505081526020016005820180546114759061334a565b80601f01602080910402602001604051908101604052809291908181526020018280546114a19061334a565b80156114ee5780601f106114c3576101008083540402835291602001916114ee565b820191906000526020600020905b8154815290600101906020018083116114d157829003601f168201915b505050505081526020016006820180546115079061334a565b80601f01602080910402602001604051908101604052809291908181526020018280546115339061334a565b80156115805780601f1061155557610100808354040283529160200191611580565b820191906000526020600020905b81548152906001019060200180831161156357829003601f168201915b50505050508152505083838151811061159c5761159b6135ce565b5b602002602001018190525081806115b2906136be565b9250505b808060010191505061119d565b50819350505050919050565b600b6020528060005260406000206000915090508060000154908060010160009054906101000a900473ffffffffffffffffffffffffffffffffffffffff16905082565b6008818154811061162357600080fd5b90600052602060002090600702016000915090508060000154908060010160009054906101000a900473ffffffffffffffffffffffffffffffffffffffff16908060020180546116729061334a565b80601f016020809104026020016040519081016040528092919081815260200182805461169e9061334a565b80156116eb5780601f106116c0576101008083540402835291602001916116eb565b820191906000526020600020905b8154815290600101906020018083116116ce57829003601f168201915b5050505050908060030180546117009061334a565b80601f016020809104026020016040519081016040528092919081815260200182805461172c9061334a565b80156117795780601f1061174e57610100808354040283529160200191611779565b820191906000526020600020905b81548152906001019060200180831161175c57829003601f168201915b50505050509080600401805461178e9061334a565b80601f01602080910402602001604051908101604052809291908181526020018280546117ba9061334a565b80156118075780601f106117dc57610100808354040283529160200191611807565b820191906000526020600020905b8154815290600101906020018083116117ea57829003601f168201915b50505050509080600501805461181c9061334a565b80601f01602080910402602001604051908101604052809291908181526020018280546118489061334a565b80156118955780601f1061186a57610100808354040283529160200191611895565b820191906000526020600020905b81548152906001019060200180831161187857829003601f168201915b5050505050908060060180546118aa9061334a565b80601f01602080910402602001604051908101604052809291908181526020018280546118d69061334a565b80156119235780601f106118f857610100808354040283529160200191611923565b820191906000526020600020905b81548152906001019060200180831161190657829003601f168201915b5050505050905087565b60007f80ac58cd000000000000000000000000000000000000000000000000000000007bffffffffffffffffffffffffffffffffffffffffffffffffffffffff1916827bffffffffffffffffffffffffffffffffffffffffffffffffffffffff191614806119f857507f5b5e139f000000000000000000000000000000000000000000000000000000007bffffffffffffffffffffffffffffffffffffffffffffffffffffffff1916827bffffffffffffffffffffffffffffffffffffffffffffffffffffffff1916145b80611a085750611a07826122d1565b5b9050919050565b600080611a1b8361233b565b9050600073ffffffffffffffffffffffffffffffffffffffff168173ffffffffffffffffffffffffffffffffffffffff1603611a8e57826040517f7e273289000000000000000000000000000000000000000000000000000000008152600401611a859190612ba3565b60405180910390fd5b80915050919050565b60006004600083815260200190815260200160002060009054906101000a900473ffffffffffffffffffffffffffffffffffffffff169050919050565b600033905090565b611ae98383836001612378565b505050565b600080611afa8461233b565b9050600073ffffffffffffffffffffffffffffffffffffffff168373ffffffffffffffffffffffffffffffffffffffff1614611b3c57611b3b81848661253d565b5b600073ffffffffffffffffffffffffffffffffffffffff168173ffffffffffffffffffffffffffffffffffffffff1614611bcd57611b7e600085600080612378565b6001600360008373ffffffffffffffffffffffffffffffffffffffff1673ffffffffffffffffffffffffffffffffffffffff168152602001908152602001600020600082825403925050819055505b600073ffffffffffffffffffffffffffffffffffffffff168573ffffffffffffffffffffffffffffffffffffffff1614611c50576001600360008773ffffffffffffffffffffffffffffffffffffffff1673ffffffffffffffffffffffffffffffffffffffff168152602001908152602001600020600082825401925050819055505b846002600086815260200190815260200160002060006101000a81548173ffffffffffffffffffffffffffffffffffffffff021916908373ffffffffffffffffffffffffffffffffffffffff160217905550838573ffffffffffffffffffffffffffffffffffffffff168273ffffffffffffffffffffffffffffffffffffffff167fddf252ad1be2c89b69c2b068fc378daa952ba7f163c4a11628f55a4df523b3ef60405160405180910390a4809150509392505050565b600073ffffffffffffffffffffffffffffffffffffffff168273ffffffffffffffffffffffffffffffffffffffff1603611d7a5760006040517f64a0ae92000000000000000000000000000000000000000000000000000000008152600401611d719190612a8d565b60405180910390fd5b6000611d8883836000611aee565b9050600073ffffffffffffffffffffffffffffffffffffffff168173ffffffffffffffffffffffffffffffffffffffff1614611dfc5760006040517f73c6ac6e000000000000000000000000000000000000000000000000000000008152600401611df39190612a8d565b60405180910390fd5b505050565b606060006001611e1084612601565b01905060008167ffffffffffffffff811115611e2f57611e2e612cb4565b5b6040519080825280601f01601f191660200182016040528015611e615781602001600182028036833780820191505090505b509050600082602001820190505b600115611ec4578080600190039150507f3031323334353637383961626364656600000000000000000000000000000000600a86061a8153600a8581611eb857611eb7613a18565b5b04945060008503611e6f575b819350505050919050565b80600660008481526020019081526020016000209081611eef9190613912565b507ff8e1a15aba9398e019f0b49df1a4fde98ee17ae345cb5f6b5e2c27f5033e8ce782604051611f1f9190612ba3565b60405180910390a15050565b600073ffffffffffffffffffffffffffffffffffffffff168273ffffffffffffffffffffffffffffffffffffffff1603611f9c57816040517f5b08ba18000000000000000000000000000000000000000000000000000000008152600401611f939190612a8d565b60405180910390fd5b80600560008573ffffffffffffffffffffffffffffffffffffffff1673ffffffffffffffffffffffffffffffffffffffff16815260200190815260200160002060008473ffffffffffffffffffffffffffffffffffffffff1673ffffffffffffffffffffffffffffffffffffffff16815260200190815260200160002060006101000a81548160ff0219169083151502179055508173ffffffffffffffffffffffffffffffffffffffff168373ffffffffffffffffffffffffffffffffffffffff167f17307eab39ab6107e8899845ad3d59bd9653f200f220920489ca2b5937696c318360405161208d919061291c565b60405180910390a3505050565b60008373ffffffffffffffffffffffffffffffffffffffff163b111561224b578273ffffffffffffffffffffffffffffffffffffffff1663150b7a026120de611ad4565b8685856040518563ffffffff1660e01b81526004016121009493929190613a9c565b6020604051808303816000875af192505050801561213c57506040513d601f19601f820116820180604052508101906121399190613afd565b60015b6121c0573d806000811461216c576040519150601f19603f3d011682016040523d82523d6000602084013e612171565b606091505b5060008151036121b857836040517f64a0ae920000000000000000000000000000000000000000000000000000000081526004016121af9190612a8d565b60405180910390fd5b805181602001fd5b63150b7a0260e01b7bffffffffffffffffffffffffffffffffffffffffffffffffffffffff1916817bffffffffffffffffffffffffffffffffffffffffffffffffffffffff19161461224957836040517f64a0ae920000000000000000000000000000000000000000000000000000000081526004016122409190612a8d565b60405180910390fd5b505b50505050565b606060405180602001604052806000815250905090565b606061227382611a0f565b50600061227e612251565b9050600081511161229e57604051806020016040528060008152506122c9565b806122a884611e01565b6040516020016122b9929190613742565b6040516020818303038152906040525b915050919050565b60007f01ffc9a7000000000000000000000000000000000000000000000000000000007bffffffffffffffffffffffffffffffffffffffffffffffffffffffff1916827bffffffffffffffffffffffffffffffffffffffffffffffffffffffff1916149050919050565b60006002600083815260200190815260200160002060009054906101000a900473ffffffffffffffffffffffffffffffffffffffff169050919050565b80806123b15750600073ffffffffffffffffffffffffffffffffffffffff168273ffffffffffffffffffffffffffffffffffffffff1614155b156124e55760006123c184611a0f565b9050600073ffffffffffffffffffffffffffffffffffffffff168373ffffffffffffffffffffffffffffffffffffffff161415801561242c57508273ffffffffffffffffffffffffffffffffffffffff168173ffffffffffffffffffffffffffffffffffffffff1614155b801561243f575061243d8184611005565b155b1561248157826040517fa9fbf51f0000000000000000000000000000000000000000000000000000000081526004016124789190612a8d565b60405180910390fd5b81156124e357838573ffffffffffffffffffffffffffffffffffffffff168273ffffffffffffffffffffffffffffffffffffffff167f8c5be1e5ebec7d5bd14f71427d1e84f3dd0314c0f7b2291e5b200ac8c7c3b92560405160405180910390a45b505b836004600085815260200190815260200160002060006101000a81548173ffffffffffffffffffffffffffffffffffffffff021916908373ffffffffffffffffffffffffffffffffffffffff16021790555050505050565b612548838383612754565b6125fc57600073ffffffffffffffffffffffffffffffffffffffff168373ffffffffffffffffffffffffffffffffffffffff16036125bd57806040517f7e2732890000000000000000000000000000000000000000000000000000000081526004016125b49190612ba3565b60405180910390fd5b81816040517f177e802f0000000000000000000000000000000000000000000000000000000081526004016125f3929190613b2a565b60405180910390fd5b505050565b600080600090507a184f03e93ff9f4daa797ed6e38ed64bf6a1f010000000000000000831061265f577a184f03e93ff9f4daa797ed6e38ed64bf6a1f010000000000000000838161265557612654613a18565b5b0492506040810190505b6d04ee2d6d415b85acef8100000000831061269c576d04ee2d6d415b85acef8100000000838161269257612691613a18565b5b0492506020810190505b662386f26fc1000083106126cb57662386f26fc1000083816126c1576126c0613a18565b5b0492506010810190505b6305f5e10083106126f4576305f5e10083816126ea576126e9613a18565b5b0492506008810190505b612710831061271957612710838161270f5761270e613a18565b5b0492506004810190505b6064831061273c576064838161273257612731613a18565b5b0492506002810190505b600a831061274b576001810190505b80915050919050565b60008073ffffffffffffffffffffffffffffffffffffffff168373ffffffffffffffffffffffffffffffffffffffff161415801561280c57508273ffffffffffffffffffffffffffffffffffffffff168473ffffffffffffffffffffffffffffffffffffffff1614806127cd57506127cc8484611005565b5b8061280b57508273ffffffffffffffffffffffffffffffffffffffff166127f383611a97565b73ffffffffffffffffffffffffffffffffffffffff16145b5b90509392505050565b6040518060e0016040528060008152602001600073ffffffffffffffffffffffffffffffffffffffff16815260200160608152602001606081526020016060815260200160608152602001606081525090565b6000604051905090565b600080fd5b600080fd5b60007fffffffff0000000000000000000000000000000000000000000000000000000082169050919050565b6128b18161287c565b81146128bc57600080fd5b50565b6000813590506128ce816128a8565b92915050565b6000602082840312156128ea576128e9612872565b5b60006128f8848285016128bf565b91505092915050565b60008115159050919050565b61291681612901565b82525050565b6000602082019050612931600083018461290d565b92915050565b600081519050919050565b600082825260208201905092915050565b60005b83811015612971578082015181840152602081019050612956565b60008484015250505050565b6000601f19601f8301169050919050565b600061299982612937565b6129a38185612942565b93506129b3818560208601612953565b6129bc8161297d565b840191505092915050565b600060208201905081810360008301526129e1818461298e565b905092915050565b6000819050919050565b6129fc816129e9565b8114612a0757600080fd5b50565b600081359050612a19816129f3565b92915050565b600060208284031215612a3557612a34612872565b5b6000612a4384828501612a0a565b91505092915050565b600073ffffffffffffffffffffffffffffffffffffffff82169050919050565b6000612a7782612a4c565b9050919050565b612a8781612a6c565b82525050565b6000602082019050612aa26000830184612a7e565b92915050565b612ab181612a6c565b8114612abc57600080fd5b50565b600081359050612ace81612aa8565b92915050565b60008060408385031215612aeb57612aea612872565b5b6000612af985828601612abf565b9250506020612b0a85828601612a0a565b9150509250929050565b600080600060608486031215612b2d57612b2c612872565b5b6000612b3b86828701612abf565b9350506020612b4c86828701612abf565b9250506040612b5d86828701612a0a565b9150509250925092565b600060208284031215612b7d57612b7c612872565b5b6000612b8b84828501612abf565b91505092915050565b612b9d816129e9565b82525050565b6000602082019050612bb86000830184612b94565b92915050565b60008060408385031215612bd557612bd4612872565b5b6000612be385828601612a0a565b9250506020612bf485828601612abf565b9150509250929050565b60008060408385031215612c1557612c14612872565b5b6000612c2385828601612a0a565b9250506020612c3485828601612a0a565b9150509250929050565b612c4781612901565b8114612c5257600080fd5b50565b600081359050612c6481612c3e565b92915050565b60008060408385031215612c8157612c80612872565b5b6000612c8f85828601612abf565b9250506020612ca085828601612c55565b9150509250929050565b600080fd5b600080fd5b7f4e487b7100000000000000000000000000000000000000000000000000000000600052604160045260246000fd5b612cec8261297d565b810181811067ffffffffffffffff82111715612d0b57612d0a612cb4565b5b80604052505050565b6000612d1e612868565b9050612d2a8282612ce3565b919050565b600067ffffffffffffffff821115612d4a57612d49612cb4565b5b612d538261297d565b9050602081019050919050565b82818337600083830152505050565b6000612d82612d7d84612d2f565b612d14565b905082815260208101848484011115612d9e57612d9d612caf565b5b612da9848285612d60565b509392505050565b600082601f830112612dc657612dc5612caa565b5b8135612dd6848260208601612d6f565b91505092915050565b60008060008060808587031215612df957612df8612872565b5b6000612e0787828801612abf565b9450506020612e1887828801612abf565b9350506040612e2987828801612a0a565b925050606085013567ffffffffffffffff811115612e4a57612e49612877565b5b612e5687828801612db1565b91505092959194509250565b600067ffffffffffffffff821115612e7d57612e7c612cb4565b5b612e868261297d565b9050602081019050919050565b6000612ea6612ea184612e62565b612d14565b905082815260208101848484011115612ec257612ec1612caf565b5b612ecd848285612d60565b509392505050565b600082601f830112612eea57612ee9612caa565b5b8135612efa848260208601612e93565b91505092915050565b60008060008060008060c08789031215612f2057612f1f612872565b5b6000612f2e89828a01612abf565b965050602087013567ffffffffffffffff811115612f4f57612f4e612877565b5b612f5b89828a01612ed5565b955050604087013567ffffffffffffffff811115612f7c57612f7b612877565b5b612f8889828a01612ed5565b945050606087013567ffffffffffffffff811115612fa957612fa8612877565b5b612fb589828a01612ed5565b935050608087013567ffffffffffffffff811115612fd657612fd5612877565b5b612fe289828a01612ed5565b92505060a087013567ffffffffffffffff81111561300357613002612877565b5b61300f89828a01612ed5565b9150509295509295509295565b6000806040838503121561303357613032612872565b5b600061304185828601612abf565b925050602061305285828601612abf565b9150509250929050565b600081519050919050565b600082825260208201905092915050565b6000819050602082019050919050565b613091816129e9565b82525050565b6130a081612a6c565b82525050565b600082825260208201905092915050565b60006130c282612937565b6130cc81856130a6565b93506130dc818560208601612953565b6130e58161297d565b840191505092915050565b600060e0830160008301516131086000860182613088565b50602083015161311b6020860182613097565b506040830151848203604086015261313382826130b7565b9150506060830151848203606086015261314d82826130b7565b9150506080830151848203608086015261316782826130b7565b91505060a083015184820360a086015261318182826130b7565b91505060c083015184820360c086015261319b82826130b7565b9150508091505092915050565b60006131b483836130f0565b905092915050565b6000602082019050919050565b60006131d48261305c565b6131de8185613067565b9350836020820285016131f085613078565b8060005b8581101561322c578484038952815161320d85826131a8565b9450613218836131bc565b925060208a019950506001810190506131f4565b50829750879550505050505092915050565b6000602082019050818103600083015261325881846131c9565b905092915050565b60006040820190506132756000830185612b94565b6132826020830184612a7e565b9392505050565b600060e08201905061329e600083018a612b94565b6132ab6020830189612a7e565b81810360408301526132bd818861298e565b905081810360608301526132d1818761298e565b905081810360808301526132e5818661298e565b905081810360a08301526132f9818561298e565b905081810360c083015261330d818461298e565b905098975050505050505050565b7f4e487b7100000000000000000000000000000000000000000000000000000000600052602260045260246000fd5b6000600282049050600182168061336257607f821691505b6020821081036133755761337461331b565b5b50919050565b60006060820190506133906000830186612a7e565b61339d6020830185612b94565b6133aa6040830184612a7e565b949350505050565b7f50726f7065727479206973206e6f74206c697374656400000000000000000000600082015250565b60006133e8601683612942565b91506133f3826133b2565b602082019050919050565b60006020820190508181036000830152613417816133db565b9050919050565b7f596f752063616e6e6f742062757920796f7572206f776e206c6973746564207060008201527f726f706572747900000000000000000000000000000000000000000000000000602082015250565b600061347a602783612942565b91506134858261341e565b604082019050919050565b600060208201905081810360008301526134a98161346d565b9050919050565b7f416d6f756e74206e6f7420656e6f756768000000000000000000000000000000600082015250565b60006134e6601183612942565b91506134f1826134b0565b602082019050919050565b60006020820190508181036000830152613515816134d9565b9050919050565b600081905092915050565b50565b600061353760008361351c565b915061354282613527565b600082019050919050565b60006135588261352a565b9150819050919050565b7f5472616e73616374696f6e206661696c65642100000000000000000000000000600082015250565b6000613598601383612942565b91506135a382613562565b602082019050919050565b600060208201905081810360008301526135c78161358b565b9050919050565b7f4e487b7100000000000000000000000000000000000000000000000000000000600052603260045260246000fd5b7f4e4654732070726963652073686f756c6420626520677265617465722074686160008201527f6e20300000000000000000000000000000000000000000000000000000000000602082015250565b6000613659602383612942565b9150613664826135fd565b604082019050919050565b600060208201905081810360008301526136888161364c565b9050919050565b7f4e487b7100000000000000000000000000000000000000000000000000000000600052601160045260246000fd5b60006136c9826129e9565b91507fffffffffffffffffffffffffffffffffffffffffffffffffffffffffffffffff82036136fb576136fa61368f565b5b600182019050919050565b600081905092915050565b600061371c82612937565b6137268185613706565b9350613736818560208601612953565b80840191505092915050565b600061374e8285613711565b915061375a8284613711565b91508190509392505050565b60008190508160005260206000209050919050565b60006020601f8301049050919050565b600082821b905092915050565b6000600883026137c87fffffffffffffffffffffffffffffffffffffffffffffffffffffffffffffffff8261378b565b6137d2868361378b565b95508019841693508086168417925050509392505050565b6000819050919050565b600061380f61380a613805846129e9565b6137ea565b6129e9565b9050919050565b6000819050919050565b613829836137f4565b61383d61383582613816565b848454613798565b825550505050565b600090565b613852613845565b61385d818484613820565b505050565b5b818110156138815761387660008261384a565b600181019050613863565b5050565b601f8211156138c65761389781613766565b6138a08461377b565b810160208510156138af578190505b6138c36138bb8561377b565b830182613862565b50505b505050565b600082821c905092915050565b60006138e9600019846008026138cb565b1980831691505092915050565b600061390283836138d8565b9150826002028217905092915050565b61391b82612937565b67ffffffffffffffff81111561393457613933612cb4565b5b61393e825461334a565b613949828285613885565b600060209050601f83116001811461397c576000841561396a578287015190505b61397485826138f6565b8655506139dc565b601f19841661398a86613766565b60005b828110156139b25784890151825560018201915060208501945060208101905061398d565b868310156139cf57848901516139cb601f8916826138d8565b8355505b6001600288020188555050505b505050505050565b60006139ef826129e9565b91506139fa836129e9565b9250828203905081811115613a1257613a1161368f565b5b92915050565b7f4e487b7100000000000000000000000000000000000000000000000000000000600052601260045260246000fd5b600081519050919050565b600082825260208201905092915050565b6000613a6e82613a47565b613a788185613a52565b9350613a88818560208601612953565b613a918161297d565b840191505092915050565b6000608082019050613ab16000830187612a7e565b613abe6020830186612a7e565b613acb6040830185612b94565b8181036060830152613add8184613a63565b905095945050505050565b600081519050613af7816128a8565b92915050565b600060208284031215613b1357613b12612872565b5b6000613b2184828501613ae8565b91505092915050565b6000604082019050613b3f6000830185612a7e565b613b4c6020830184612b94565b939250505056fea26469706673582212202c7a67765d6decc6b239b25d09c6dee23009a2fd39f3031df46c211af21bb4b564736f6c63430008180033",
  "linkReferences": {},
  "deployedLinkReferences": {}
}